{
  "_format": "hh-sol-artifact-1",
  "contractName": "ZetaQuestCoreAdapter",
  "sourceName": "contracts/contracts/ZetaQuestCoreAdapter.sol",
  "abi": [
    {
      "inputs": [
        {
          "internalType": "address",
          "name": "core_",
          "type": "address"
        },
        {
          "internalType": "address",
          "name": "score_",
          "type": "address"
        }
      ],
      "stateMutability": "nonpayable",
      "type": "constructor"
    },
    {
      "inputs": [],
      "name": "core",
      "outputs": [
        {
          "internalType": "contract IZetaQuestCoreLike",
          "name": "",
          "type": "address"
        }
      ],
      "stateMutability": "view",
      "type": "function"
    },
    {
      "inputs": [
        {
          "internalType": "address",
          "name": "player",
          "type": "address"
        }
      ],
      "name": "getPlayerState",
      "outputs": [
        {
          "internalType": "uint256",
          "name": "world",
          "type": "uint256"
        },
        {
          "internalType": "uint256",
          "name": "power",
          "type": "uint256"
        },
        {
          "internalType": "uint256",
          "name": "defense",
          "type": "uint256"
        },
        {
          "internalType": "uint256",
          "name": "xp",
          "type": "uint256"
        }
      ],
      "stateMutability": "view",
      "type": "function"
    },
    {
      "inputs": [],
      "name": "score",
      "outputs": [
        {
          "internalType": "contract IZetaQuestScoreLike",
          "name": "",
          "type": "address"
        }
      ],
      "stateMutability": "view",
      "type": "function"
    }
  ],
  "bytecode": "0x60c060405234801561001057600080fd5b5060405161069238038061069283398181016040528101906100329190610104565b8173ffffffffffffffffffffffffffffffffffffffff1660808173ffffffffffffffffffffffffffffffffffffffff16815250508073ffffffffffffffffffffffffffffffffffffffff1660a08173ffffffffffffffffffffffffffffffffffffffff16815250505050610144565b600080fd5b600073ffffffffffffffffffffffffffffffffffffffff82169050919050565b60006100d1826100a6565b9050919050565b6100e1816100c6565b81146100ec57600080fd5b50565b6000815190506100fe816100d8565b92915050565b6000806040838503121561011b5761011a6100a1565b5b6000610129858286016100ef565b925050602061013a858286016100ef565b9150509250929050565b60805160a05161051c61017660003960008181610169015261021201526000818160bd0152610236015261051c6000f3fe608060405234801561001057600080fd5b50600436106100415760003560e01c8063c01ca43f14610046578063efedc66914610079578063f2f4eb2614610097575b600080fd5b610060600480360381019061005b91906102bb565b6100b5565b6040516100709493929190610301565b60405180910390f35b610081610210565b60405161008e91906103a5565b60405180910390f35b61009f610234565b6040516100ac91906103e1565b60405180910390f35b6000806000807f000000000000000000000000000000000000000000000000000000000000000073ffffffffffffffffffffffffffffffffffffffff1663c01ca43f866040518263ffffffff1660e01b8152600401610114919061040b565b608060405180830381865afa158015610131573d6000803e3d6000fd5b505050506040513d601f19601f820116820180604052508101906101559190610452565b8094508195508296508397505050505060007f000000000000000000000000000000000000000000000000000000000000000073ffffffffffffffffffffffffffffffffffffffff1663883c00d6876040518263ffffffff1660e01b81526004016101c0919061040b565b602060405180830381865afa1580156101dd573d6000803e3d6000fd5b505050506040513d601f19601f8201168201806040525081019061020191906104b9565b90508082019150509193509193565b7f000000000000000000000000000000000000000000000000000000000000000081565b7f000000000000000000000000000000000000000000000000000000000000000081565b600080fd5b600073ffffffffffffffffffffffffffffffffffffffff82169050919050565b60006102888261025d565b9050919050565b6102988161027d565b81146102a357600080fd5b50565b6000813590506102b58161028f565b92915050565b6000602082840312156102d1576102d0610258565b5b60006102df848285016102a6565b91505092915050565b6000819050919050565b6102fb816102e8565b82525050565b600060808201905061031660008301876102f2565b61032360208301866102f2565b61033060408301856102f2565b61033d60608301846102f2565b95945050505050565b6000819050919050565b600061036b6103666103618461025d565b610346565b61025d565b9050919050565b600061037d82610350565b9050919050565b600061038f82610372565b9050919050565b61039f81610384565b82525050565b60006020820190506103ba6000830184610396565b92915050565b60006103cb82610372565b9050919050565b6103db816103c0565b82525050565b60006020820190506103f660008301846103d2565b92915050565b6104058161027d565b82525050565b600060208201905061042060008301846103fc565b92915050565b61042f816102e8565b811461043a57600080fd5b50565b60008151905061044c81610426565b92915050565b6000806000806080858703121561046c5761046b610258565b5b600061047a8782880161043d565b945050602061048b8782880161043d565b935050604061049c8782880161043d565b92505060606104ad8782880161043d565b91505092959194509250565b6000602082840312156104cf576104ce610258565b5b60006104dd8482850161043d565b9150509291505056fea264697066735822122091d64e9cb5f1c358e6288872b3e076c4b3f0e2f49fc48800f5ea713f5cbb825964736f6c63430008180033",
  "linkReferences": {},
  "deployedLinkReferences": {}
}