{"contracts/contracts/ZetaQuestNFTv2.sol":{"ZetaQuestNFTv2":{"abi":[{"inputs":[{"internalType":"string","name":"_baseImageURI","type":"string"}],"stateMutability":"nonpayable","type":"constructor"},{"inputs":[],"name":"ERC721EnumerableForbiddenBatchMint","type":"error"},{"inputs":[{"internalType":"address","name":"sender","type":"address"},{"internalType":"uint256","name":"tokenId","type":"uint256"},{"internalType":"address","name":"owner","type":"address"}],"name":"ERC721IncorrectOwner","type":"error"},{"inputs":[{"internalType":"address","name":"operator","type":"address"},{"internalType":"uint256","name":"tokenId","type":"uint256"}],"name":"ERC721InsufficientApproval","type":"error"},{"inputs":[{"internalType":"address","name":"approver","type":"address"}],"name":"ERC721InvalidApprover","type":"error"},{"inputs":[{"internalType":"address","name":"operator","type":"address"}],"name":"ERC721InvalidOperator","type":"error"},{"inputs":[{"internalType":"address","name":"owner","type":"address"}],"name":"ERC721InvalidOwner","type":"error"},{"inputs":[{"internalType":"address","name":"receiver","type":"address"}],"name":"ERC721InvalidReceiver","type":"error"},{"inputs":[{"internalType":"address","name":"sender","type":"address"}],"name":"ERC721InvalidSender","type":"error"},{"inputs":[{"internalType":"uint256","name":"tokenId","type":"uint256"}],"name":"ERC721NonexistentToken","type":"error"},{"inputs":[{"internalType":"address","name":"owner","type":"address"},{"internalType":"uint256","name":"index","type":"uint256"}],"name":"ERC721OutOfBoundsIndex","type":"error"},{"inputs":[{"internalType":"address","name":"owner","type":"address"}],"name":"OwnableInvalidOwner","type":"error"},{"inputs":[{"internalType":"address","name":"account","type":"address"}],"name":"OwnableUnauthorizedAccount","type":"error"},{"anonymous":false,"inputs":[{"indexed":true,"internalType":"address","name":"owner","type":"address"},{"indexed":true,"internalType":"address","name":"approved","type":"address"},{"indexed":true,"internalType":"uint256","name":"tokenId","type":"uint256"}],"name":"Approval","type":"event"},{"anonymous":false,"inputs":[{"indexed":true,"internalType":"address","name":"owner","type":"address"},{"indexed":true,"internalType":"address","name":"operator","type":"address"},{"indexed":false,"internalType":"bool","name":"approved","type":"bool"}],"name":"ApprovalForAll","type":"event"},{"anonymous":false,"inputs":[{"indexed":true,"internalType":"address","name":"previousOwner","type":"address"},{"indexed":true,"internalType":"address","name":"newOwner","type":"address"}],"name":"OwnershipTransferred","type":"event"},{"anonymous":false,"inputs":[{"indexed":true,"internalType":"address","name":"from","type":"address"},{"indexed":true,"internalType":"address","name":"to","type":"address"},{"indexed":true,"internalType":"uint256","name":"tokenId","type":"uint256"}],"name":"Transfer","type":"event"},{"inputs":[{"internalType":"address","name":"to","type":"address"},{"internalType":"uint256","name":"tokenId","type":"uint256"}],"name":"approve","outputs":[],"stateMutability":"nonpayable","type":"function"},{"inputs":[{"internalType":"address","name":"owner","type":"address"}],"name":"balanceOf","outputs":[{"internalType":"uint256","name":"","type":"uint256"}],"stateMutability":"view","type":"function"},{"inputs":[],"name":"baseImageURI","outputs":[{"internalType":"string","name":"","type":"string"}],"stateMutability":"view","type":"function"},{"inputs":[],"name":"core","outputs":[{"internalType":"address","name":"","type":"address"}],"stateMutability":"view","type":"function"},{"inputs":[{"internalType":"uint256","name":"tokenId","type":"uint256"}],"name":"getApproved","outputs":[{"internalType":"address","name":"","type":"address"}],"stateMutability":"view","type":"function"},{"inputs":[{"internalType":"uint256","name":"tokenId","type":"uint256"}],"name":"getRarity","outputs":[{"internalType":"enum ZetaQuestNFTv2.Rarity","name":"","type":"uint8"}],"stateMutability":"view","type":"function"},{"inputs":[{"internalType":"address","name":"owner","type":"address"},{"internalType":"address","name":"operator","type":"address"}],"name":"isApprovedForAll","outputs":[{"internalType":"bool","name":"","type":"bool"}],"stateMutability":"view","type":"function"},{"inputs":[],"name":"mint","outputs":[],"stateMutability":"nonpayable","type":"function"},{"inputs":[],"name":"name","outputs":[{"internalType":"string","name":"","type":"string"}],"stateMutability":"view","type":"function"},{"inputs":[],"name":"owner","outputs":[{"internalType":"address","name":"","type":"address"}],"stateMutability":"view","type":"function"},{"inputs":[{"internalType":"uint256","name":"tokenId","type":"uint256"}],"name":"ownerOf","outputs":[{"internalType":"address","name":"","type":"address"}],"stateMutability":"view","type":"function"},{"inputs":[],"name":"renounceOwnership","outputs":[],"stateMutability":"nonpayable","type":"function"},{"inputs":[{"internalType":"address","name":"from","type":"address"},{"internalType":"address","name":"to","type":"address"},{"internalType":"uint256","name":"tokenId","type":"uint256"}],"name":"safeTransferFrom","outputs":[],"stateMutability":"nonpayable","type":"function"},{"inputs":[{"internalType":"address","name":"from","type":"address"},{"internalType":"address","name":"to","type":"address"},{"internalType":"uint256","name":"tokenId","type":"uint256"},{"internalType":"bytes","name":"data","type":"bytes"}],"name":"safeTransferFrom","outputs":[],"stateMutability":"nonpayable","type":"function"},{"inputs":[{"internalType":"address","name":"operator","type":"address"},{"internalType":"bool","name":"approved","type":"bool"}],"name":"setApprovalForAll","outputs":[],"stateMutability":"nonpayable","type":"function"},{"inputs":[{"internalType":"string","name":"uri","type":"string"}],"name":"setBaseImageURI","outputs":[],"stateMutability":"nonpayable","type":"function"},{"inputs":[{"internalType":"address","name":"_core","type":"address"}],"name":"setCore","outputs":[],"stateMutability":"nonpayable","type":"function"},{"inputs":[{"internalType":"bytes4","name":"interfaceId","type":"bytes4"}],"name":"supportsInterface","outputs":[{"internalType":"bool","name":"","type":"bool"}],"stateMutability":"view","type":"function"},{"inputs":[],"name":"symbol","outputs":[{"internalType":"string","name":"","type":"string"}],"stateMutability":"view","type":"function"},{"inputs":[{"internalType":"uint256","name":"index","type":"uint256"}],"name":"tokenByIndex","outputs":[{"internalType":"uint256","name":"","type":"uint256"}],"stateMutability":"view","type":"function"},{"inputs":[{"internalType":"address","name":"owner","type":"address"},{"internalType":"uint256","name":"index","type":"uint256"}],"name":"tokenOfOwnerByIndex","outputs":[{"internalType":"uint256","name":"","type":"uint256"}],"stateMutability":"view","type":"function"},{"inputs":[{"internalType":"uint256","name":"tokenId","type":"uint256"}],"name":"tokenURI","outputs":[{"internalType":"string","name":"","type":"string"}],"stateMutability":"view","type":"function"},{"inputs":[],"name":"totalSupply","outputs":[{"internalType":"uint256","name":"","type":"uint256"}],"stateMutability":"view","type":"function"},{"inputs":[{"internalType":"address","name":"from","type":"address"},{"internalType":"address","name":"to","type":"address"},{"internalType":"uint256","name":"tokenId","type":"uint256"}],"name":"transferFrom","outputs":[],"stateMutability":"nonpayable","type":"function"},{"inputs":[{"internalType":"address","name":"newOwner","type":"address"}],"name":"transferOwnership","outputs":[],"stateMutability":"nonpayable","type":"function"}],"evm":{"bytecode":{"linkReferences":{},"object":"60806040526001600c553480156200001657600080fd5b50604051620048723803806200487283398181016040528101906200003c9190620003c8565b336040518060400160405280601281526020017f5a65746151756573742054726176656c657200000000000000000000000000008152506040518060400160405280600381526020017f5a515400000000000000000000000000000000000000000000000000000000008152508160009081620000ba919062000664565b508060019081620000cc919062000664565b505050600073ffffffffffffffffffffffffffffffffffffffff168173ffffffffffffffffffffffffffffffffffffffff1603620001445760006040517f1e4fbdf70000000000000000000000000000000000000000000000000000000081526004016200013b919062000790565b60405180910390fd5b62000155816200016f60201b60201c565b5080600d908162000167919062000664565b5050620007ad565b6000600a60009054906101000a900473ffffffffffffffffffffffffffffffffffffffff16905081600a60006101000a81548173ffffffffffffffffffffffffffffffffffffffff021916908373ffffffffffffffffffffffffffffffffffffffff1602179055508173ffffffffffffffffffffffffffffffffffffffff168173ffffffffffffffffffffffffffffffffffffffff167f8be0079c531659141344cd1fd0a4f28419497f9722a3daafe3b4186f6b6457e060405160405180910390a35050565b6000604051905090565b600080fd5b600080fd5b600080fd5b600080fd5b6000601f19601f8301169050919050565b7f4e487b7100000000000000000000000000000000000000000000000000000000600052604160045260246000fd5b6200029e8262000253565b810181811067ffffffffffffffff82111715620002c057620002bf62000264565b5b80604052505050565b6000620002d562000235565b9050620002e3828262000293565b919050565b600067ffffffffffffffff82111562000306576200030562000264565b5b620003118262000253565b9050602081019050919050565b60005b838110156200033e57808201518184015260208101905062000321565b60008484015250505050565b6000620003616200035b84620002e8565b620002c9565b90508281526020810184848401111562000380576200037f6200024e565b5b6200038d8482856200031e565b509392505050565b600082601f830112620003ad57620003ac62000249565b5b8151620003bf8482602086016200034a565b91505092915050565b600060208284031215620003e157620003e06200023f565b5b600082015167ffffffffffffffff81111562000402576200040162000244565b5b620004108482850162000395565b91505092915050565b600081519050919050565b7f4e487b7100000000000000000000000000000000000000000000000000000000600052602260045260246000fd5b600060028204905060018216806200046c57607f821691505b60208210810362000482576200048162000424565b5b50919050565b60008190508160005260206000209050919050565b60006020601f8301049050919050565b600082821b905092915050565b600060088302620004ec7fffffffffffffffffffffffffffffffffffffffffffffffffffffffffffffffff82620004ad565b620004f88683620004ad565b95508019841693508086168417925050509392505050565b6000819050919050565b6000819050919050565b6000620005456200053f620005398462000510565b6200051a565b62000510565b9050919050565b6000819050919050565b620005618362000524565b6200057962000570826200054c565b848454620004ba565b825550505050565b600090565b6200059062000581565b6200059d81848462000556565b505050565b5b81811015620005c557620005b960008262000586565b600181019050620005a3565b5050565b601f8211156200061457620005de8162000488565b620005e9846200049d565b81016020851015620005f9578190505b6200061162000608856200049d565b830182620005a2565b50505b505050565b600082821c905092915050565b6000620006396000198460080262000619565b1980831691505092915050565b600062000654838362000626565b9150826002028217905092915050565b6200066f8262000419565b67ffffffffffffffff8111156200068b576200068a62000264565b5b62000697825462000453565b620006a4828285620005c9565b600060209050601f831160018114620006dc5760008415620006c7578287015190505b620006d3858262000646565b86555062000743565b601f198416620006ec8662000488565b60005b828110156200071657848901518255600182019150602085019450602081019050620006ef565b8683101562000736578489015162000732601f89168262000626565b8355505b6001600288020188555050505b505050505050565b600073ffffffffffffffffffffffffffffffffffffffff82169050919050565b600062000778826200074b565b9050919050565b6200078a816200076b565b82525050565b6000602082019050620007a760008301846200077f565b92915050565b6140b580620007bd6000396000f3fe608060405234801561001057600080fd5b50600436106101735760003560e01c806370a08231116100de57806395d89b4111610097578063c87b56dd11610071578063c87b56dd14610436578063e985e9c514610466578063f2f4eb2614610496578063f2fde38b146104b457610173565b806395d89b41146103e0578063a22cb465146103fe578063b88d4fde1461041a57610173565b806370a0823114610332578063715018a61461036257806374f82e301461036c578063800096301461038a5780638647ca76146103a65780638da5cb5b146103c257610173565b806323b872dd1161013057806323b872dd1461023a5780632f745c591461025657806342842e0e1461028657806348758697146102a25780634f6ccce7146102d25780636352211e1461030257610173565b806301ffc9a71461017857806306fdde03146101a8578063081812fc146101c6578063095ea7b3146101f65780631249c58b1461021257806318160ddd1461021c575b600080fd5b610192600480360381019061018d919061289a565b6104d0565b60405161019f91906128e2565b60405180910390f35b6101b061054a565b6040516101bd919061298d565b60405180910390f35b6101e060048036038101906101db91906129e5565b6105dc565b6040516101ed9190612a53565b60405180910390f35b610210600480360381019061020b9190612a9a565b6105f8565b005b61021a61060e565b005b610224610727565b6040516102319190612ae9565b60405180910390f35b610254600480360381019061024f9190612b04565b610734565b005b610270600480360381019061026b9190612a9a565b610836565b60405161027d9190612ae9565b60405180910390f35b6102a0600480360381019061029b9190612b04565b6108df565b005b6102bc60048036038101906102b791906129e5565b6108ff565b6040516102c99190612bce565b60405180910390f35b6102ec60048036038101906102e791906129e5565b610933565b6040516102f99190612ae9565b60405180910390f35b61031c600480360381019061031791906129e5565b6109a9565b6040516103299190612a53565b60405180910390f35b61034c60048036038101906103479190612be9565b6109bb565b6040516103599190612ae9565b60405180910390f35b61036a610a75565b005b610374610a89565b604051610381919061298d565b60405180910390f35b6103a4600480360381019061039f9190612be9565b610b17565b005b6103c060048036038101906103bb9190612c7b565b610b63565b005b6103ca610b81565b6040516103d79190612a53565b60405180910390f35b6103e8610bab565b6040516103f5919061298d565b60405180910390f35b61041860048036038101906104139190612cf4565b610c3d565b005b610434600480360381019061042f9190612e64565b610c53565b005b610450600480360381019061044b91906129e5565b610c78565b60405161045d919061298d565b60405180910390f35b610480600480360381019061047b9190612ee7565b610f51565b60405161048d91906128e2565b60405180910390f35b61049e610fe5565b6040516104ab9190612a53565b60405180910390f35b6104ce60048036038101906104c99190612be9565b61100b565b005b60007f780e9d63000000000000000000000000000000000000000000000000000000007bffffffffffffffffffffffffffffffffffffffffffffffffffffffff1916827bffffffffffffffffffffffffffffffffffffffffffffffffffffffff19161480610543575061054282611091565b5b9050919050565b60606000805461055990612f56565b80601f016020809104026020016040519081016040528092919081815260200182805461058590612f56565b80156105d25780601f106105a7576101008083540402835291602001916105d2565b820191906000526020600020905b8154815290600101906020018083116105b557829003601f168201915b5050505050905090565b60006105e782611173565b506105f1826111fb565b9050919050565b61060a8282610605611238565b611240565b5050565b6000610619336109bb565b14610659576040517f08c379a000000000000000000000000000000000000000000000000000000000815260040161065090612fd3565b60405180910390fd5b6000600c600081548092919061066e90613022565b91905055905060004433834260405160200161068d94939291906130d3565b6040516020818303038152906040528051906020012060001c905060006064826106b79190613150565b9050600060028210156106cd57600290506106dc565b60148210156106db57600190505b5b80600b600086815260200190815260200160002060006101000a81548160ff0219169083600281111561071257610711612b57565b5b02179055506107213385611252565b50505050565b6000600880549050905090565b600073ffffffffffffffffffffffffffffffffffffffff168273ffffffffffffffffffffffffffffffffffffffff16036107a65760006040517f64a0ae9200000000000000000000000000000000000000000000000000000000815260040161079d9190612a53565b60405180910390fd5b60006107ba83836107b5611238565b611270565b90508373ffffffffffffffffffffffffffffffffffffffff168173ffffffffffffffffffffffffffffffffffffffff1614610830578382826040517f64283d7b00000000000000000000000000000000000000000000000000000000815260040161082793929190613181565b60405180910390fd5b50505050565b6000610841836109bb565b82106108865782826040517fa57d13dc00000000000000000000000000000000000000000000000000000000815260040161087d9291906131b8565b60405180910390fd5b600660008473ffffffffffffffffffffffffffffffffffffffff1673ffffffffffffffffffffffffffffffffffffffff168152602001908152602001600020600083815260200190815260200160002054905092915050565b6108fa83838360405180602001604052806000815250610c53565b505050565b600061090a82611173565b50600b600083815260200190815260200160002060009054906101000a900460ff169050919050565b600061093d610727565b8210610983576000826040517fa57d13dc00000000000000000000000000000000000000000000000000000000815260040161097a9291906131b8565b60405180910390fd5b60088281548110610997576109966131e1565b5b90600052602060002001549050919050565b60006109b482611173565b9050919050565b60008073ffffffffffffffffffffffffffffffffffffffff168273ffffffffffffffffffffffffffffffffffffffff1603610a2e5760006040517f89c62b64000000000000000000000000000000000000000000000000000000008152600401610a259190612a53565b60405180910390fd5b600360008373ffffffffffffffffffffffffffffffffffffffff1673ffffffffffffffffffffffffffffffffffffffff168152602001908152602001600020549050919050565b610a7d61138d565b610a876000611414565b565b600d8054610a9690612f56565b80601f0160208091040260200160405190810160405280929190818152602001828054610ac290612f56565b8015610b0f5780601f10610ae457610100808354040283529160200191610b0f565b820191906000526020600020905b815481529060010190602001808311610af257829003601f168201915b505050505081565b610b1f61138d565b80600e60006101000a81548173ffffffffffffffffffffffffffffffffffffffff021916908373ffffffffffffffffffffffffffffffffffffffff16021790555050565b610b6b61138d565b8181600d9182610b7c9291906133c7565b505050565b6000600a60009054906101000a900473ffffffffffffffffffffffffffffffffffffffff16905090565b606060018054610bba90612f56565b80601f0160208091040260200160405190810160405280929190818152602001828054610be690612f56565b8015610c335780601f10610c0857610100808354040283529160200191610c33565b820191906000526020600020905b815481529060010190602001808311610c1657829003601f168201915b5050505050905090565b610c4f610c48611238565b83836114da565b5050565b610c5e848484610734565b610c72610c69611238565b85858585611649565b50505050565b6060610c8382611173565b506000610caf600b600085815260200190815260200160002060009054906101000a900460ff166117fa565b90506000600d82604051602001610cc79291906135a2565b60405160208183030381529060405290506000610d03600b600087815260200190815260200160002060009054906101000a900460ff1661190b565b604051602001610d139190613669565b6040516020818303038152906040529050600073ffffffffffffffffffffffffffffffffffffffff16600e60009054906101000a900473ffffffffffffffffffffffffffffffffffffffff1673ffffffffffffffffffffffffffffffffffffffff1614610eee576000610d85866109a9565b9050600e60009054906101000a900473ffffffffffffffffffffffffffffffffffffffff1673ffffffffffffffffffffffffffffffffffffffff1663c01ca43f826040518263ffffffff1660e01b8152600401610de29190612a53565b608060405180830381865afa925050508015610e1c57506040513d601f19601f82011682018060405250810190610e19919061375c565b60015b15610eec57600081600060038110610e3757610e366131e1565b5b60200201519050600082600160038110610e5457610e536131e1565b5b60200201519050600083600260038110610e7157610e706131e1565b5b602002015190506000600a84610e8791906137a6565b90506000600a84610e9891906137a6565b905088610ea488611a1c565b610ead84611aea565b610eb684611aea565b610ebf87611a1c565b604051602001610ed3959493929190613965565b6040516020818303038152906040529850505050505050505b505b6000610ef986611a1c565b8383604051602001610f0d93929190613c42565b6040516020818303038152906040529050610f2781611b62565b604051602001610f379190613d0c565b604051602081830303815290604052945050505050919050565b6000600560008473ffffffffffffffffffffffffffffffffffffffff1673ffffffffffffffffffffffffffffffffffffffff16815260200190815260200160002060008373ffffffffffffffffffffffffffffffffffffffff1673ffffffffffffffffffffffffffffffffffffffff16815260200190815260200160002060009054906101000a900460ff16905092915050565b600e60009054906101000a900473ffffffffffffffffffffffffffffffffffffffff1681565b61101361138d565b600073ffffffffffffffffffffffffffffffffffffffff168173ffffffffffffffffffffffffffffffffffffffff16036110855760006040517f1e4fbdf700000000000000000000000000000000000000000000000000000000815260040161107c9190612a53565b60405180910390fd5b61108e81611414565b50565b60007f80ac58cd000000000000000000000000000000000000000000000000000000007bffffffffffffffffffffffffffffffffffffffffffffffffffffffff1916827bffffffffffffffffffffffffffffffffffffffffffffffffffffffff1916148061115c57507f5b5e139f000000000000000000000000000000000000000000000000000000007bffffffffffffffffffffffffffffffffffffffffffffffffffffffff1916827bffffffffffffffffffffffffffffffffffffffffffffffffffffffff1916145b8061116c575061116b82611b8f565b5b9050919050565b60008061117f83611bf9565b9050600073ffffffffffffffffffffffffffffffffffffffff168173ffffffffffffffffffffffffffffffffffffffff16036111f257826040517f7e2732890000000000000000000000000000000000000000000000000000000081526004016111e99190612ae9565b60405180910390fd5b80915050919050565b60006004600083815260200190815260200160002060009054906101000a900473ffffffffffffffffffffffffffffffffffffffff169050919050565b600033905090565b61124d8383836001611c36565b505050565b61126c828260405180602001604052806000815250611dfb565b5050565b60008061127e858585611e1f565b9050600073ffffffffffffffffffffffffffffffffffffffff168173ffffffffffffffffffffffffffffffffffffffff16036112c2576112bd84612039565b611301565b8473ffffffffffffffffffffffffffffffffffffffff168173ffffffffffffffffffffffffffffffffffffffff1614611300576112ff8185612082565b5b5b600073ffffffffffffffffffffffffffffffffffffffff168573ffffffffffffffffffffffffffffffffffffffff16036113435761133e8461216d565b611382565b8473ffffffffffffffffffffffffffffffffffffffff168173ffffffffffffffffffffffffffffffffffffffff161461138157611380858561223e565b5b5b809150509392505050565b611395611238565b73ffffffffffffffffffffffffffffffffffffffff166113b3610b81565b73ffffffffffffffffffffffffffffffffffffffff1614611412576113d6611238565b6040517f118cdaa70000000000000000000000000000000000000000000000000000000081526004016114099190612a53565b60405180910390fd5b565b6000600a60009054906101000a900473ffffffffffffffffffffffffffffffffffffffff16905081600a60006101000a81548173ffffffffffffffffffffffffffffffffffffffff021916908373ffffffffffffffffffffffffffffffffffffffff1602179055508173ffffffffffffffffffffffffffffffffffffffff168173ffffffffffffffffffffffffffffffffffffffff167f8be0079c531659141344cd1fd0a4f28419497f9722a3daafe3b4186f6b6457e060405160405180910390a35050565b600073ffffffffffffffffffffffffffffffffffffffff168273ffffffffffffffffffffffffffffffffffffffff160361154b57816040517f5b08ba180000000000000000000000000000000000000000000000000000000081526004016115429190612a53565b60405180910390fd5b80600560008573ffffffffffffffffffffffffffffffffffffffff1673ffffffffffffffffffffffffffffffffffffffff16815260200190815260200160002060008473ffffffffffffffffffffffffffffffffffffffff1673ffffffffffffffffffffffffffffffffffffffff16815260200190815260200160002060006101000a81548160ff0219169083151502179055508173ffffffffffffffffffffffffffffffffffffffff168373ffffffffffffffffffffffffffffffffffffffff167f17307eab39ab6107e8899845ad3d59bd9653f200f220920489ca2b5937696c318360405161163c91906128e2565b60405180910390a3505050565b60008373ffffffffffffffffffffffffffffffffffffffff163b11156117f3578273ffffffffffffffffffffffffffffffffffffffff1663150b7a02868685856040518563ffffffff1660e01b81526004016116a89493929190613d83565b6020604051808303816000875af19250505080156116e457506040513d601f19601f820116820180604052508101906116e19190613de4565b60015b611768573d8060008114611714576040519150601f19603f3d011682016040523d82523d6000602084013e611719565b606091505b50600081510361176057836040517f64a0ae920000000000000000000000000000000000000000000000000000000081526004016117579190612a53565b60405180910390fd5b805160208201fd5b63150b7a0260e01b7bffffffffffffffffffffffffffffffffffffffffffffffffffffffff1916817bffffffffffffffffffffffffffffffffffffffffffffffffffffffff1916146117f157836040517f64a0ae920000000000000000000000000000000000000000000000000000000081526004016117e89190612a53565b60405180910390fd5b505b5050505050565b6060600160028111156118105761180f612b57565b5b82600281111561182357611822612b57565b5b03611865576040518060400160405280600481526020017f72617265000000000000000000000000000000000000000000000000000000008152509050611906565b60028081111561187857611877612b57565b5b82600281111561188b5761188a612b57565b5b036118cd576040518060400160405280600481526020017f65706963000000000000000000000000000000000000000000000000000000008152509050611906565b6040518060400160405280600681526020017f6e6f726d616c000000000000000000000000000000000000000000000000000081525090505b919050565b60606001600281111561192157611920612b57565b5b82600281111561193457611933612b57565b5b03611976576040518060400160405280600481526020017f52617265000000000000000000000000000000000000000000000000000000008152509050611a17565b60028081111561198957611988612b57565b5b82600281111561199c5761199b612b57565b5b036119de576040518060400160405280600481526020017f45706963000000000000000000000000000000000000000000000000000000008152509050611a17565b6040518060400160405280600681526020017f4e6f726d616c000000000000000000000000000000000000000000000000000081525090505b919050565b606060006001611a2b846122c9565b01905060008167ffffffffffffffff811115611a4a57611a49612d39565b5b6040519080825280601f01601f191660200182016040528015611a7c5781602001600182028036833780820191505090505b509050600082602083010190505b600115611adf578080600190039150507f3031323334353637383961626364656600000000000000000000000000000000600a86061a8153600a8581611ad357611ad2613121565b5b04945060008503611a8a575b819350505050919050565b606060008212611b2357611afd82611a1c565b604051602001611b0d9190613e5d565b6040516020818303038152906040529050611b5d565b600082611b2f90613e7f565b9050611b3a81611a1c565b604051602001611b4a9190613f13565b6040516020818303038152906040529150505b919050565b6060611b888260405180606001604052806040815260200161404060409139600161241c565b9050919050565b60007f01ffc9a7000000000000000000000000000000000000000000000000000000007bffffffffffffffffffffffffffffffffffffffffffffffffffffffff1916827bffffffffffffffffffffffffffffffffffffffffffffffffffffffff1916149050919050565b60006002600083815260200190815260200160002060009054906101000a900473ffffffffffffffffffffffffffffffffffffffff169050919050565b8080611c6f5750600073ffffffffffffffffffffffffffffffffffffffff168273ffffffffffffffffffffffffffffffffffffffff1614155b15611da3576000611c7f84611173565b9050600073ffffffffffffffffffffffffffffffffffffffff168373ffffffffffffffffffffffffffffffffffffffff1614158015611cea57508273ffffffffffffffffffffffffffffffffffffffff168173ffffffffffffffffffffffffffffffffffffffff1614155b8015611cfd5750611cfb8184610f51565b155b15611d3f57826040517fa9fbf51f000000000000000000000000000000000000000000000000000000008152600401611d369190612a53565b60405180910390fd5b8115611da157838573ffffffffffffffffffffffffffffffffffffffff168273ffffffffffffffffffffffffffffffffffffffff167f8c5be1e5ebec7d5bd14f71427d1e84f3dd0314c0f7b2291e5b200ac8c7c3b92560405160405180910390a45b505b836004600085815260200190815260200160002060006101000a81548173ffffffffffffffffffffffffffffffffffffffff021916908373ffffffffffffffffffffffffffffffffffffffff16021790555050505050565b611e0583836125b0565b611e1a611e10611238565b6000858585611649565b505050565b600080611e2b84611bf9565b9050600073ffffffffffffffffffffffffffffffffffffffff168373ffffffffffffffffffffffffffffffffffffffff1614611e6d57611e6c8184866126a9565b5b600073ffffffffffffffffffffffffffffffffffffffff168173ffffffffffffffffffffffffffffffffffffffff1614611efe57611eaf600085600080611c36565b6001600360008373ffffffffffffffffffffffffffffffffffffffff1673ffffffffffffffffffffffffffffffffffffffff168152602001908152602001600020600082825403925050819055505b600073ffffffffffffffffffffffffffffffffffffffff168573ffffffffffffffffffffffffffffffffffffffff1614611f81576001600360008773ffffffffffffffffffffffffffffffffffffffff1673ffffffffffffffffffffffffffffffffffffffff168152602001908152602001600020600082825401925050819055505b846002600086815260200190815260200160002060006101000a81548173ffffffffffffffffffffffffffffffffffffffff021916908373ffffffffffffffffffffffffffffffffffffffff160217905550838573ffffffffffffffffffffffffffffffffffffffff168273ffffffffffffffffffffffffffffffffffffffff167fddf252ad1be2c89b69c2b068fc378daa952ba7f163c4a11628f55a4df523b3ef60405160405180910390a4809150509392505050565b6008805490506009600083815260200190815260200160002081905550600881908060018154018082558091505060019003906000526020600020016000909190919091505550565b600061208d836109bb565b90506000600760008481526020019081526020016000205490506000600660008673ffffffffffffffffffffffffffffffffffffffff1673ffffffffffffffffffffffffffffffffffffffff16815260200190815260200160002090508282146121395760008160008581526020019081526020016000205490508082600085815260200190815260200160002081905550826007600083815260200190815260200160002081905550505b6007600085815260200190815260200160002060009055806000848152602001908152602001600020600090555050505050565b600060016008805490506121819190613f35565b90506000600960008481526020019081526020016000205490506000600883815481106121b1576121b06131e1565b5b9060005260206000200154905080600883815481106121d3576121d26131e1565b5b90600052602060002001819055508160096000838152602001908152602001600020819055506009600085815260200190815260200160002060009055600880548061222257612221613f69565b5b6001900381819060005260206000200160009055905550505050565b6000600161224b846109bb565b6122559190613f35565b905081600660008573ffffffffffffffffffffffffffffffffffffffff1673ffffffffffffffffffffffffffffffffffffffff168152602001908152602001600020600083815260200190815260200160002081905550806007600084815260200190815260200160002081905550505050565b600080600090507a184f03e93ff9f4daa797ed6e38ed64bf6a1f0100000000000000008310612327577a184f03e93ff9f4daa797ed6e38ed64bf6a1f010000000000000000838161231d5761231c613121565b5b0492506040810190505b6d04ee2d6d415b85acef81000000008310612364576d04ee2d6d415b85acef8100000000838161235a57612359613121565b5b0492506020810190505b662386f26fc10000831061239357662386f26fc10000838161238957612388613121565b5b0492506010810190505b6305f5e10083106123bc576305f5e10083816123b2576123b1613121565b5b0492506008810190505b61271083106123e15761271083816123d7576123d6613121565b5b0492506004810190505b6064831061240457606483816123fa576123f9613121565b5b0492506002810190505b600a8310612413576001810190505b80915050919050565b6060600084510361243e576040518060200160405280600081525090506125a9565b6000826124705760036002865160046124579190613f98565b6124619190613fda565b61246b919061400e565b612497565b6003600286516124809190613fda565b61248a919061400e565b60046124969190613f98565b5b905060008167ffffffffffffffff8111156124b5576124b4612d39565b5b6040519080825280601f01601f1916602001820160405280156124e75781602001600182028036833780820191505090505b50905060018501602082018788518901602081018051600082525b8284101561255d576003840193508351603f8160121c168701518653600186019550603f81600c1c168701518653600186019550603f8160061c168701518653600186019550603f8116870151865360018601955050612502565b808252891561259d5760038c51066001811461258057600281146125935761259b565b603d6001870353603d600287035361259b565b603d60018703535b505b50505050505080925050505b9392505050565b600073ffffffffffffffffffffffffffffffffffffffff168273ffffffffffffffffffffffffffffffffffffffff16036126225760006040517f64a0ae920000000000000000000000000000000000000000000000000000000081526004016126199190612a53565b60405180910390fd5b600061263083836000611270565b9050600073ffffffffffffffffffffffffffffffffffffffff168173ffffffffffffffffffffffffffffffffffffffff16146126a45760006040517f73c6ac6e00000000000000000000000000000000000000000000000000000000815260040161269b9190612a53565b60405180910390fd5b505050565b6126b483838361276d565b61276857600073ffffffffffffffffffffffffffffffffffffffff168373ffffffffffffffffffffffffffffffffffffffff160361272957806040517f7e2732890000000000000000000000000000000000000000000000000000000081526004016127209190612ae9565b60405180910390fd5b81816040517f177e802f00000000000000000000000000000000000000000000000000000000815260040161275f9291906131b8565b60405180910390fd5b505050565b60008073ffffffffffffffffffffffffffffffffffffffff168373ffffffffffffffffffffffffffffffffffffffff161415801561282557508273ffffffffffffffffffffffffffffffffffffffff168473ffffffffffffffffffffffffffffffffffffffff1614806127e657506127e58484610f51565b5b8061282457508273ffffffffffffffffffffffffffffffffffffffff1661280c836111fb565b73ffffffffffffffffffffffffffffffffffffffff16145b5b90509392505050565b6000604051905090565b600080fd5b600080fd5b60007fffffffff0000000000000000000000000000000000000000000000000000000082169050919050565b61287781612842565b811461288257600080fd5b50565b6000813590506128948161286e565b92915050565b6000602082840312156128b0576128af612838565b5b60006128be84828501612885565b91505092915050565b60008115159050919050565b6128dc816128c7565b82525050565b60006020820190506128f760008301846128d3565b92915050565b600081519050919050565b600082825260208201905092915050565b60005b8381101561293757808201518184015260208101905061291c565b60008484015250505050565b6000601f19601f8301169050919050565b600061295f826128fd565b6129698185612908565b9350612979818560208601612919565b61298281612943565b840191505092915050565b600060208201905081810360008301526129a78184612954565b905092915050565b6000819050919050565b6129c2816129af565b81146129cd57600080fd5b50565b6000813590506129df816129b9565b92915050565b6000602082840312156129fb576129fa612838565b5b6000612a09848285016129d0565b91505092915050565b600073ffffffffffffffffffffffffffffffffffffffff82169050919050565b6000612a3d82612a12565b9050919050565b612a4d81612a32565b82525050565b6000602082019050612a686000830184612a44565b92915050565b612a7781612a32565b8114612a8257600080fd5b50565b600081359050612a9481612a6e565b92915050565b60008060408385031215612ab157612ab0612838565b5b6000612abf85828601612a85565b9250506020612ad0858286016129d0565b9150509250929050565b612ae3816129af565b82525050565b6000602082019050612afe6000830184612ada565b92915050565b600080600060608486031215612b1d57612b1c612838565b5b6000612b2b86828701612a85565b9350506020612b3c86828701612a85565b9250506040612b4d868287016129d0565b9150509250925092565b7f4e487b7100000000000000000000000000000000000000000000000000000000600052602160045260246000fd5b60038110612b9757612b96612b57565b5b50565b6000819050612ba882612b86565b919050565b6000612bb882612b9a565b9050919050565b612bc881612bad565b82525050565b6000602082019050612be36000830184612bbf565b92915050565b600060208284031215612bff57612bfe612838565b5b6000612c0d84828501612a85565b91505092915050565b600080fd5b600080fd5b600080fd5b60008083601f840112612c3b57612c3a612c16565b5b8235905067ffffffffffffffff811115612c5857612c57612c1b565b5b602083019150836001820283011115612c7457612c73612c20565b5b9250929050565b60008060208385031215612c9257612c91612838565b5b600083013567ffffffffffffffff811115612cb057612caf61283d565b5b612cbc85828601612c25565b92509250509250929050565b612cd1816128c7565b8114612cdc57600080fd5b50565b600081359050612cee81612cc8565b92915050565b60008060408385031215612d0b57612d0a612838565b5b6000612d1985828601612a85565b9250506020612d2a85828601612cdf565b9150509250929050565b600080fd5b7f4e487b7100000000000000000000000000000000000000000000000000000000600052604160045260246000fd5b612d7182612943565b810181811067ffffffffffffffff82111715612d9057612d8f612d39565b5b80604052505050565b6000612da361282e565b9050612daf8282612d68565b919050565b600067ffffffffffffffff821115612dcf57612dce612d39565b5b612dd882612943565b9050602081019050919050565b82818337600083830152505050565b6000612e07612e0284612db4565b612d99565b905082815260208101848484011115612e2357612e22612d34565b5b612e2e848285612de5565b509392505050565b600082601f830112612e4b57612e4a612c16565b5b8135612e5b848260208601612df4565b91505092915050565b60008060008060808587031215612e7e57612e7d612838565b5b6000612e8c87828801612a85565b9450506020612e9d87828801612a85565b9350506040612eae878288016129d0565b925050606085013567ffffffffffffffff811115612ecf57612ece61283d565b5b612edb87828801612e36565b91505092959194509250565b60008060408385031215612efe57612efd612838565b5b6000612f0c85828601612a85565b9250506020612f1d85828601612a85565b9150509250929050565b7f4e487b7100000000000000000000000000000000000000000000000000000000600052602260045260246000fd5b60006002820490506001821680612f6e57607f821691505b602082108103612f8157612f80612f27565b5b50919050565b7f4f6e652070657220616464726573730000000000000000000000000000000000600082015250565b6000612fbd600f83612908565b9150612fc882612f87565b602082019050919050565b60006020820190508181036000830152612fec81612fb0565b9050919050565b7f4e487b7100000000000000000000000000000000000000000000000000000000600052601160045260246000fd5b600061302d826129af565b91507fffffffffffffffffffffffffffffffffffffffffffffffffffffffffffffffff820361305f5761305e612ff3565b5b600182019050919050565b6000819050919050565b613085613080826129af565b61306a565b82525050565b60008160601b9050919050565b60006130a38261308b565b9050919050565b60006130b582613098565b9050919050565b6130cd6130c882612a32565b6130aa565b82525050565b60006130df8287613074565b6020820191506130ef82866130bc565b6014820191506130ff8285613074565b60208201915061310f8284613074565b60208201915081905095945050505050565b7f4e487b7100000000000000000000000000000000000000000000000000000000600052601260045260246000fd5b600061315b826129af565b9150613166836129af565b92508261317657613175613121565b5b828206905092915050565b60006060820190506131966000830186612a44565b6131a36020830185612ada565b6131b06040830184612a44565b949350505050565b60006040820190506131cd6000830185612a44565b6131da6020830184612ada565b9392505050565b7f4e487b7100000000000000000000000000000000000000000000000000000000600052603260045260246000fd5b600082905092915050565b60008190508160005260206000209050919050565b60006020601f8301049050919050565b600082821b905092915050565b60006008830261327d7fffffffffffffffffffffffffffffffffffffffffffffffffffffffffffffffff82613240565b6132878683613240565b95508019841693508086168417925050509392505050565b6000819050919050565b60006132c46132bf6132ba846129af565b61329f565b6129af565b9050919050565b6000819050919050565b6132de836132a9565b6132f26132ea826132cb565b84845461324d565b825550505050565b600090565b6133076132fa565b6133128184846132d5565b505050565b5b818110156133365761332b6000826132ff565b600181019050613318565b5050565b601f82111561337b5761334c8161321b565b61335584613230565b81016020851015613364578190505b61337861337085613230565b830182613317565b50505b505050565b600082821c905092915050565b600061339e60001984600802613380565b1980831691505092915050565b60006133b7838361338d565b9150826002028217905092915050565b6133d18383613210565b67ffffffffffffffff8111156133ea576133e9612d39565b5b6133f48254612f56565b6133ff82828561333a565b6000601f83116001811461342e576000841561341c578287013590505b61342685826133ab565b86555061348e565b601f19841661343c8661321b565b60005b828110156134645784890135825560018201915060208501945060208101905061343f565b86831015613481578489013561347d601f89168261338d565b8355505b6001600288020188555050505b50505050505050565b600081905092915050565b600081546134af81612f56565b6134b98186613497565b945060018216600081146134d457600181146134e95761351c565b60ff198316865281151582028601935061351c565b6134f28561321b565b60005b83811015613514578154818901526001820191506020810190506134f5565b838801955050505b50505092915050565b6000613530826128fd565b61353a8185613497565b935061354a818560208601612919565b80840191505092915050565b7f2e706e6700000000000000000000000000000000000000000000000000000000600082015250565b600061358c600483613497565b915061359782613556565b600482019050919050565b60006135ae82856134a2565b91506135ba8284613525565b91506135c58261357f565b91508190509392505050565b7f7b2274726169745f74797065223a22726172697479222c2276616c7565223a22600082015250565b6000613607602083613497565b9150613612826135d1565b602082019050919050565b7f227d000000000000000000000000000000000000000000000000000000000000600082015250565b6000613653600283613497565b915061365e8261361d565b600282019050919050565b6000613674826135fa565b91506136808284613525565b915061368b82613646565b915081905092915050565b6000815190506136a5816129b9565b92915050565b600067ffffffffffffffff8211156136c6576136c5612d39565b5b602082029050919050565b60006136e46136df846136ab565b612d99565b905080602084028301858111156136fe576136fd612c20565b5b835b8181101561372757806137138882613696565b845260208401935050602081019050613700565b5050509392505050565b600082601f83011261374657613745612c16565b5b60036137538482856136d1565b91505092915050565b6000806080838503121561377357613772612838565b5b600061378185828601613696565b925050602061379285828601613731565b9150509250929050565b6000819050919050565b60006137b18261379c565b91506137bc8361379c565b92508282039050818112600084121682821360008512151617156137e3576137e2612ff3565b5b92915050565b7f2c7b2274726169745f74797065223a22776f726c64222c2276616c7565223a22600082015250565b600061381f602083613497565b915061382a826137e9565b602082019050919050565b7f2c7b2274726169745f74797065223a22627566665f706f776572222c2276616c60008201527f7565223a22000000000000000000000000000000000000000000000000000000602082015250565b6000613891602583613497565b915061389c82613835565b602582019050919050565b7f2c7b2274726169745f74797065223a22627566665f646566656e7365222c227660008201527f616c7565223a2200000000000000000000000000000000000000000000000000602082015250565b6000613903602783613497565b915061390e826138a7565b602782019050919050565b7f2c7b2274726169745f74797065223a227870222c2276616c7565223a22000000600082015250565b600061394f601d83613497565b915061395a82613919565b601d82019050919050565b60006139718288613525565b915061397c82613812565b91506139888287613525565b915061399382613646565b915061399e82613884565b91506139aa8286613525565b91506139b582613646565b91506139c0826138f6565b91506139cc8285613525565b91506139d782613646565b91506139e282613942565b91506139ee8284613525565b91506139f982613646565b91508190509695505050505050565b7f7b226e616d65223a225a65746151756573742054726176656c65722023000000600082015250565b6000613a3e601d83613497565b9150613a4982613a08565b601d82019050919050565b7f222c226465736372697074696f6e223a225250472d6c6974652063726f73732d60008201527f636861696e206f6e205a657461436861696e2e222c0000000000000000000000602082015250565b6000613ab0603583613497565b9150613abb82613a54565b603582019050919050565b7f22696d616765223a220000000000000000000000000000000000000000000000600082015250565b6000613afc600983613497565b9150613b0782613ac6565b600982019050919050565b7f222c000000000000000000000000000000000000000000000000000000000000600082015250565b6000613b48600283613497565b9150613b5382613b12565b600282019050919050565b7f2261747472696275746573223a5b000000000000000000000000000000000000600082015250565b6000613b94600e83613497565b9150613b9f82613b5e565b600e82019050919050565b7f5d00000000000000000000000000000000000000000000000000000000000000600082015250565b6000613be0600183613497565b9150613beb82613baa565b600182019050919050565b7f7d00000000000000000000000000000000000000000000000000000000000000600082015250565b6000613c2c600183613497565b9150613c3782613bf6565b600182019050919050565b6000613c4d82613a31565b9150613c598286613525565b9150613c6482613aa3565b9150613c6f82613aef565b9150613c7b8285613525565b9150613c8682613b3b565b9150613c9182613b87565b9150613c9d8284613525565b9150613ca882613bd3565b9150613cb382613c1f565b9150819050949350505050565b7f646174613a6170706c69636174696f6e2f6a736f6e3b6261736536342c000000600082015250565b6000613cf6601d83613497565b9150613d0182613cc0565b601d82019050919050565b6000613d1782613ce9565b9150613d238284613525565b915081905092915050565b600081519050919050565b600082825260208201905092915050565b6000613d5582613d2e565b613d5f8185613d39565b9350613d6f818560208601612919565b613d7881612943565b840191505092915050565b6000608082019050613d986000830187612a44565b613da56020830186612a44565b613db26040830185612ada565b8181036060830152613dc48184613d4a565b905095945050505050565b600081519050613dde8161286e565b92915050565b600060208284031215613dfa57613df9612838565b5b6000613e0884828501613dcf565b91505092915050565b7f2b00000000000000000000000000000000000000000000000000000000000000600082015250565b6000613e47600183613497565b9150613e5282613e11565b600182019050919050565b6000613e6882613e3a565b9150613e748284613525565b915081905092915050565b6000613e8a8261379c565b91507f80000000000000000000000000000000000000000000000000000000000000008203613ebc57613ebb612ff3565b5b816000039050919050565b7f2d00000000000000000000000000000000000000000000000000000000000000600082015250565b6000613efd600183613497565b9150613f0882613ec7565b600182019050919050565b6000613f1e82613ef0565b9150613f2a8284613525565b915081905092915050565b6000613f40826129af565b9150613f4b836129af565b9250828203905081811115613f6357613f62612ff3565b5b92915050565b7f4e487b7100000000000000000000000000000000000000000000000000000000600052603160045260246000fd5b6000613fa3826129af565b9150613fae836129af565b9250828202613fbc816129af565b91508282048414831517613fd357613fd2612ff3565b5b5092915050565b6000613fe5826129af565b9150613ff0836129af565b925082820190508082111561400857614007612ff3565b5b92915050565b6000614019826129af565b9150614024836129af565b92508261403457614033613121565b5b82820490509291505056fe4142434445464748494a4b4c4d4e4f505152535455565758595a6162636465666768696a6b6c6d6e6f707172737475767778797a303132333435363738392b2fa264697066735822122044ccd8c1c9e907d989d9a087882d76438c43557e3fd41b32e55d6a4756db184e64736f6c63430008180033","opcodes":"PUSH1 0x80 PUSH1 0x40 MSTORE PUSH1 0x1 PUSH1 0xC SSTORE CALLVALUE DUP1 ISZERO PUSH3 0x16 JUMPI PUSH1 0x0 DUP1 REVERT JUMPDEST POP PUSH1 0x40 MLOAD PUSH3 0x4872 CODESIZE SUB DUP1 PUSH3 0x4872 DUP4 CODECOPY DUP2 DUP2 ADD PUSH1 0x40 MSTORE DUP2 ADD SWAP1 PUSH3 0x3C SWAP2 SWAP1 PUSH3 0x3C8 JUMP JUMPDEST CALLER PUSH1 0x40 MLOAD DUP1 PUSH1 0x40 ADD PUSH1 0x40 MSTORE DUP1 PUSH1 0x12 DUP2 MSTORE PUSH1 0x20 ADD PUSH32 0x5A65746151756573742054726176656C65720000000000000000000000000000 DUP2 MSTORE POP PUSH1 0x40 MLOAD DUP1 PUSH1 0x40 ADD PUSH1 0x40 MSTORE DUP1 PUSH1 0x3 DUP2 MSTORE PUSH1 0x20 ADD PUSH32 0x5A51540000000000000000000000000000000000000000000000000000000000 DUP2 MSTORE POP DUP2 PUSH1 0x0 SWAP1 DUP2 PUSH3 0xBA SWAP2 SWAP1 PUSH3 0x664 JUMP JUMPDEST POP DUP1 PUSH1 0x1 SWAP1 DUP2 PUSH3 0xCC SWAP2 SWAP1 PUSH3 0x664 JUMP JUMPDEST POP POP POP PUSH1 0x0 PUSH20 0xFFFFFFFFFFFFFFFFFFFFFFFFFFFFFFFFFFFFFFFF AND DUP2 PUSH20 0xFFFFFFFFFFFFFFFFFFFFFFFFFFFFFFFFFFFFFFFF AND SUB PUSH3 0x144 JUMPI PUSH1 0x0 PUSH1 0x40 MLOAD PUSH32 0x1E4FBDF700000000000000000000000000000000000000000000000000000000 DUP2 MSTORE PUSH1 0x4 ADD PUSH3 0x13B SWAP2 SWAP1 PUSH3 0x790 JUMP JUMPDEST PUSH1 0x40 MLOAD DUP1 SWAP2 SUB SWAP1 REVERT JUMPDEST PUSH3 0x155 DUP2 PUSH3 0x16F PUSH1 0x20 SHL PUSH1 0x20 SHR JUMP JUMPDEST POP DUP1 PUSH1 0xD SWAP1 DUP2 PUSH3 0x167 SWAP2 SWAP1 PUSH3 0x664 JUMP JUMPDEST POP POP PUSH3 0x7AD JUMP JUMPDEST PUSH1 0x0 PUSH1 0xA PUSH1 0x0 SWAP1 SLOAD SWAP1 PUSH2 0x100 EXP SWAP1 DIV PUSH20 0xFFFFFFFFFFFFFFFFFFFFFFFFFFFFFFFFFFFFFFFF AND SWAP1 POP DUP2 PUSH1 0xA PUSH1 0x0 PUSH2 0x100 EXP DUP2 SLOAD DUP2 PUSH20 0xFFFFFFFFFFFFFFFFFFFFFFFFFFFFFFFFFFFFFFFF MUL NOT AND SWAP1 DUP4 PUSH20 0xFFFFFFFFFFFFFFFFFFFFFFFFFFFFFFFFFFFFFFFF AND MUL OR SWAP1 SSTORE POP DUP2 PUSH20 0xFFFFFFFFFFFFFFFFFFFFFFFFFFFFFFFFFFFFFFFF AND DUP2 PUSH20 0xFFFFFFFFFFFFFFFFFFFFFFFFFFFFFFFFFFFFFFFF AND PUSH32 0x8BE0079C531659141344CD1FD0A4F28419497F9722A3DAAFE3B4186F6B6457E0 PUSH1 0x40 MLOAD PUSH1 0x40 MLOAD DUP1 SWAP2 SUB SWAP1 LOG3 POP POP JUMP JUMPDEST PUSH1 0x0 PUSH1 0x40 MLOAD SWAP1 POP SWAP1 JUMP JUMPDEST PUSH1 0x0 DUP1 REVERT JUMPDEST PUSH1 0x0 DUP1 REVERT JUMPDEST PUSH1 0x0 DUP1 REVERT JUMPDEST PUSH1 0x0 DUP1 REVERT JUMPDEST PUSH1 0x0 PUSH1 0x1F NOT PUSH1 0x1F DUP4 ADD AND SWAP1 POP SWAP2 SWAP1 POP JUMP JUMPDEST PUSH32 0x4E487B7100000000000000000000000000000000000000000000000000000000 PUSH1 0x0 MSTORE PUSH1 0x41 PUSH1 0x4 MSTORE PUSH1 0x24 PUSH1 0x0 REVERT JUMPDEST PUSH3 0x29E DUP3 PUSH3 0x253 JUMP JUMPDEST DUP2 ADD DUP2 DUP2 LT PUSH8 0xFFFFFFFFFFFFFFFF DUP3 GT OR ISZERO PUSH3 0x2C0 JUMPI PUSH3 0x2BF PUSH3 0x264 JUMP JUMPDEST JUMPDEST DUP1 PUSH1 0x40 MSTORE POP POP POP JUMP JUMPDEST PUSH1 0x0 PUSH3 0x2D5 PUSH3 0x235 JUMP JUMPDEST SWAP1 POP PUSH3 0x2E3 DUP3 DUP3 PUSH3 0x293 JUMP JUMPDEST SWAP2 SWAP1 POP JUMP JUMPDEST PUSH1 0x0 PUSH8 0xFFFFFFFFFFFFFFFF DUP3 GT ISZERO PUSH3 0x306 JUMPI PUSH3 0x305 PUSH3 0x264 JUMP JUMPDEST JUMPDEST PUSH3 0x311 DUP3 PUSH3 0x253 JUMP JUMPDEST SWAP1 POP PUSH1 0x20 DUP2 ADD SWAP1 POP SWAP2 SWAP1 POP JUMP JUMPDEST PUSH1 0x0 JUMPDEST DUP4 DUP2 LT ISZERO PUSH3 0x33E JUMPI DUP1 DUP3 ADD MLOAD DUP2 DUP5 ADD MSTORE PUSH1 0x20 DUP2 ADD SWAP1 POP PUSH3 0x321 JUMP JUMPDEST PUSH1 0x0 DUP5 DUP5 ADD MSTORE POP POP POP POP JUMP JUMPDEST PUSH1 0x0 PUSH3 0x361 PUSH3 0x35B DUP5 PUSH3 0x2E8 JUMP JUMPDEST PUSH3 0x2C9 JUMP JUMPDEST SWAP1 POP DUP3 DUP2 MSTORE PUSH1 0x20 DUP2 ADD DUP5 DUP5 DUP5 ADD GT ISZERO PUSH3 0x380 JUMPI PUSH3 0x37F PUSH3 0x24E JUMP JUMPDEST JUMPDEST PUSH3 0x38D DUP5 DUP3 DUP6 PUSH3 0x31E JUMP JUMPDEST POP SWAP4 SWAP3 POP POP POP JUMP JUMPDEST PUSH1 0x0 DUP3 PUSH1 0x1F DUP4 ADD SLT PUSH3 0x3AD JUMPI PUSH3 0x3AC PUSH3 0x249 JUMP JUMPDEST JUMPDEST DUP2 MLOAD PUSH3 0x3BF DUP5 DUP3 PUSH1 0x20 DUP7 ADD PUSH3 0x34A JUMP JUMPDEST SWAP2 POP POP SWAP3 SWAP2 POP POP JUMP JUMPDEST PUSH1 0x0 PUSH1 0x20 DUP3 DUP5 SUB SLT ISZERO PUSH3 0x3E1 JUMPI PUSH3 0x3E0 PUSH3 0x23F JUMP JUMPDEST JUMPDEST PUSH1 0x0 DUP3 ADD MLOAD PUSH8 0xFFFFFFFFFFFFFFFF DUP2 GT ISZERO PUSH3 0x402 JUMPI PUSH3 0x401 PUSH3 0x244 JUMP JUMPDEST JUMPDEST PUSH3 0x410 DUP5 DUP3 DUP6 ADD PUSH3 0x395 JUMP JUMPDEST SWAP2 POP POP SWAP3 SWAP2 POP POP JUMP JUMPDEST PUSH1 0x0 DUP2 MLOAD SWAP1 POP SWAP2 SWAP1 POP JUMP JUMPDEST PUSH32 0x4E487B7100000000000000000000000000000000000000000000000000000000 PUSH1 0x0 MSTORE PUSH1 0x22 PUSH1 0x4 MSTORE PUSH1 0x24 PUSH1 0x0 REVERT JUMPDEST PUSH1 0x0 PUSH1 0x2 DUP3 DIV SWAP1 POP PUSH1 0x1 DUP3 AND DUP1 PUSH3 0x46C JUMPI PUSH1 0x7F DUP3 AND SWAP2 POP JUMPDEST PUSH1 0x20 DUP3 LT DUP2 SUB PUSH3 0x482 JUMPI PUSH3 0x481 PUSH3 0x424 JUMP JUMPDEST JUMPDEST POP SWAP2 SWAP1 POP JUMP JUMPDEST PUSH1 0x0 DUP2 SWAP1 POP DUP2 PUSH1 0x0 MSTORE PUSH1 0x20 PUSH1 0x0 KECCAK256 SWAP1 POP SWAP2 SWAP1 POP JUMP JUMPDEST PUSH1 0x0 PUSH1 0x20 PUSH1 0x1F DUP4 ADD DIV SWAP1 POP SWAP2 SWAP1 POP JUMP JUMPDEST PUSH1 0x0 DUP3 DUP3 SHL SWAP1 POP SWAP3 SWAP2 POP POP JUMP JUMPDEST PUSH1 0x0 PUSH1 0x8 DUP4 MUL PUSH3 0x4EC PUSH32 0xFFFFFFFFFFFFFFFFFFFFFFFFFFFFFFFFFFFFFFFFFFFFFFFFFFFFFFFFFFFFFFFF DUP3 PUSH3 0x4AD JUMP JUMPDEST PUSH3 0x4F8 DUP7 DUP4 PUSH3 0x4AD JUMP JUMPDEST SWAP6 POP DUP1 NOT DUP5 AND SWAP4 POP DUP1 DUP7 AND DUP5 OR SWAP3 POP POP POP SWAP4 SWAP3 POP POP POP JUMP JUMPDEST PUSH1 0x0 DUP2 SWAP1 POP SWAP2 SWAP1 POP JUMP JUMPDEST PUSH1 0x0 DUP2 SWAP1 POP SWAP2 SWAP1 POP JUMP JUMPDEST PUSH1 0x0 PUSH3 0x545 PUSH3 0x53F PUSH3 0x539 DUP5 PUSH3 0x510 JUMP JUMPDEST PUSH3 0x51A JUMP JUMPDEST PUSH3 0x510 JUMP JUMPDEST SWAP1 POP SWAP2 SWAP1 POP JUMP JUMPDEST PUSH1 0x0 DUP2 SWAP1 POP SWAP2 SWAP1 POP JUMP JUMPDEST PUSH3 0x561 DUP4 PUSH3 0x524 JUMP JUMPDEST PUSH3 0x579 PUSH3 0x570 DUP3 PUSH3 0x54C JUMP JUMPDEST DUP5 DUP5 SLOAD PUSH3 0x4BA JUMP JUMPDEST DUP3 SSTORE POP POP POP POP JUMP JUMPDEST PUSH1 0x0 SWAP1 JUMP JUMPDEST PUSH3 0x590 PUSH3 0x581 JUMP JUMPDEST PUSH3 0x59D DUP2 DUP5 DUP5 PUSH3 0x556 JUMP JUMPDEST POP POP POP JUMP JUMPDEST JUMPDEST DUP2 DUP2 LT ISZERO PUSH3 0x5C5 JUMPI PUSH3 0x5B9 PUSH1 0x0 DUP3 PUSH3 0x586 JUMP JUMPDEST PUSH1 0x1 DUP2 ADD SWAP1 POP PUSH3 0x5A3 JUMP JUMPDEST POP POP JUMP JUMPDEST PUSH1 0x1F DUP3 GT ISZERO PUSH3 0x614 JUMPI PUSH3 0x5DE DUP2 PUSH3 0x488 JUMP JUMPDEST PUSH3 0x5E9 DUP5 PUSH3 0x49D JUMP JUMPDEST DUP2 ADD PUSH1 0x20 DUP6 LT ISZERO PUSH3 0x5F9 JUMPI DUP2 SWAP1 POP JUMPDEST PUSH3 0x611 PUSH3 0x608 DUP6 PUSH3 0x49D JUMP JUMPDEST DUP4 ADD DUP3 PUSH3 0x5A2 JUMP JUMPDEST POP POP JUMPDEST POP POP POP JUMP JUMPDEST PUSH1 0x0 DUP3 DUP3 SHR SWAP1 POP SWAP3 SWAP2 POP POP JUMP JUMPDEST PUSH1 0x0 PUSH3 0x639 PUSH1 0x0 NOT DUP5 PUSH1 0x8 MUL PUSH3 0x619 JUMP JUMPDEST NOT DUP1 DUP4 AND SWAP2 POP POP SWAP3 SWAP2 POP POP JUMP JUMPDEST PUSH1 0x0 PUSH3 0x654 DUP4 DUP4 PUSH3 0x626 JUMP JUMPDEST SWAP2 POP DUP3 PUSH1 0x2 MUL DUP3 OR SWAP1 POP SWAP3 SWAP2 POP POP JUMP JUMPDEST PUSH3 0x66F DUP3 PUSH3 0x419 JUMP JUMPDEST PUSH8 0xFFFFFFFFFFFFFFFF DUP2 GT ISZERO PUSH3 0x68B JUMPI PUSH3 0x68A PUSH3 0x264 JUMP JUMPDEST JUMPDEST PUSH3 0x697 DUP3 SLOAD PUSH3 0x453 JUMP JUMPDEST PUSH3 0x6A4 DUP3 DUP3 DUP6 PUSH3 0x5C9 JUMP JUMPDEST PUSH1 0x0 PUSH1 0x20 SWAP1 POP PUSH1 0x1F DUP4 GT PUSH1 0x1 DUP2 EQ PUSH3 0x6DC JUMPI PUSH1 0x0 DUP5 ISZERO PUSH3 0x6C7 JUMPI DUP3 DUP8 ADD MLOAD SWAP1 POP JUMPDEST PUSH3 0x6D3 DUP6 DUP3 PUSH3 0x646 JUMP JUMPDEST DUP7 SSTORE POP PUSH3 0x743 JUMP JUMPDEST PUSH1 0x1F NOT DUP5 AND PUSH3 0x6EC DUP7 PUSH3 0x488 JUMP JUMPDEST PUSH1 0x0 JUMPDEST DUP3 DUP2 LT ISZERO PUSH3 0x716 JUMPI DUP5 DUP10 ADD MLOAD DUP3 SSTORE PUSH1 0x1 DUP3 ADD SWAP2 POP PUSH1 0x20 DUP6 ADD SWAP5 POP PUSH1 0x20 DUP2 ADD SWAP1 POP PUSH3 0x6EF JUMP JUMPDEST DUP7 DUP4 LT ISZERO PUSH3 0x736 JUMPI DUP5 DUP10 ADD MLOAD PUSH3 0x732 PUSH1 0x1F DUP10 AND DUP3 PUSH3 0x626 JUMP JUMPDEST DUP4 SSTORE POP JUMPDEST PUSH1 0x1 PUSH1 0x2 DUP9 MUL ADD DUP9 SSTORE POP POP POP JUMPDEST POP POP POP POP POP POP JUMP JUMPDEST PUSH1 0x0 PUSH20 0xFFFFFFFFFFFFFFFFFFFFFFFFFFFFFFFFFFFFFFFF DUP3 AND SWAP1 POP SWAP2 SWAP1 POP JUMP JUMPDEST PUSH1 0x0 PUSH3 0x778 DUP3 PUSH3 0x74B JUMP JUMPDEST SWAP1 POP SWAP2 SWAP1 POP JUMP JUMPDEST PUSH3 0x78A DUP2 PUSH3 0x76B JUMP JUMPDEST DUP3 MSTORE POP POP JUMP JUMPDEST PUSH1 0x0 PUSH1 0x20 DUP3 ADD SWAP1 POP PUSH3 0x7A7 PUSH1 0x0 DUP4 ADD DUP5 PUSH3 0x77F JUMP JUMPDEST SWAP3 SWAP2 POP POP JUMP JUMPDEST PUSH2 0x40B5 DUP1 PUSH3 0x7BD PUSH1 0x0 CODECOPY PUSH1 0x0 RETURN INVALID PUSH1 0x80 PUSH1 0x40 MSTORE CALLVALUE DUP1 ISZERO PUSH2 0x10 JUMPI PUSH1 0x0 DUP1 REVERT JUMPDEST POP PUSH1 0x4 CALLDATASIZE LT PUSH2 0x173 JUMPI PUSH1 0x0 CALLDATALOAD PUSH1 0xE0 SHR DUP1 PUSH4 0x70A08231 GT PUSH2 0xDE JUMPI DUP1 PUSH4 0x95D89B41 GT PUSH2 0x97 JUMPI DUP1 PUSH4 0xC87B56DD GT PUSH2 0x71 JUMPI DUP1 PUSH4 0xC87B56DD EQ PUSH2 0x436 JUMPI DUP1 PUSH4 0xE985E9C5 EQ PUSH2 0x466 JUMPI DUP1 PUSH4 0xF2F4EB26 EQ PUSH2 0x496 JUMPI DUP1 PUSH4 0xF2FDE38B EQ PUSH2 0x4B4 JUMPI PUSH2 0x173 JUMP JUMPDEST DUP1 PUSH4 0x95D89B41 EQ PUSH2 0x3E0 JUMPI DUP1 PUSH4 0xA22CB465 EQ PUSH2 0x3FE JUMPI DUP1 PUSH4 0xB88D4FDE EQ PUSH2 0x41A JUMPI PUSH2 0x173 JUMP JUMPDEST DUP1 PUSH4 0x70A08231 EQ PUSH2 0x332 JUMPI DUP1 PUSH4 0x715018A6 EQ PUSH2 0x362 JUMPI DUP1 PUSH4 0x74F82E30 EQ PUSH2 0x36C JUMPI DUP1 PUSH4 0x80009630 EQ PUSH2 0x38A JUMPI DUP1 PUSH4 0x8647CA76 EQ PUSH2 0x3A6 JUMPI DUP1 PUSH4 0x8DA5CB5B EQ PUSH2 0x3C2 JUMPI PUSH2 0x173 JUMP JUMPDEST DUP1 PUSH4 0x23B872DD GT PUSH2 0x130 JUMPI DUP1 PUSH4 0x23B872DD EQ PUSH2 0x23A JUMPI DUP1 PUSH4 0x2F745C59 EQ PUSH2 0x256 JUMPI DUP1 PUSH4 0x42842E0E EQ PUSH2 0x286 JUMPI DUP1 PUSH4 0x48758697 EQ PUSH2 0x2A2 JUMPI DUP1 PUSH4 0x4F6CCCE7 EQ PUSH2 0x2D2 JUMPI DUP1 PUSH4 0x6352211E EQ PUSH2 0x302 JUMPI PUSH2 0x173 JUMP JUMPDEST DUP1 PUSH4 0x1FFC9A7 EQ PUSH2 0x178 JUMPI DUP1 PUSH4 0x6FDDE03 EQ PUSH2 0x1A8 JUMPI DUP1 PUSH4 0x81812FC EQ PUSH2 0x1C6 JUMPI DUP1 PUSH4 0x95EA7B3 EQ PUSH2 0x1F6 JUMPI DUP1 PUSH4 0x1249C58B EQ PUSH2 0x212 JUMPI DUP1 PUSH4 0x18160DDD EQ PUSH2 0x21C JUMPI JUMPDEST PUSH1 0x0 DUP1 REVERT JUMPDEST PUSH2 0x192 PUSH1 0x4 DUP1 CALLDATASIZE SUB DUP2 ADD SWAP1 PUSH2 0x18D SWAP2 SWAP1 PUSH2 0x289A JUMP JUMPDEST PUSH2 0x4D0 JUMP JUMPDEST PUSH1 0x40 MLOAD PUSH2 0x19F SWAP2 SWAP1 PUSH2 0x28E2 JUMP JUMPDEST PUSH1 0x40 MLOAD DUP1 SWAP2 SUB SWAP1 RETURN JUMPDEST PUSH2 0x1B0 PUSH2 0x54A JUMP JUMPDEST PUSH1 0x40 MLOAD PUSH2 0x1BD SWAP2 SWAP1 PUSH2 0x298D JUMP JUMPDEST PUSH1 0x40 MLOAD DUP1 SWAP2 SUB SWAP1 RETURN JUMPDEST PUSH2 0x1E0 PUSH1 0x4 DUP1 CALLDATASIZE SUB DUP2 ADD SWAP1 PUSH2 0x1DB SWAP2 SWAP1 PUSH2 0x29E5 JUMP JUMPDEST PUSH2 0x5DC JUMP JUMPDEST PUSH1 0x40 MLOAD PUSH2 0x1ED SWAP2 SWAP1 PUSH2 0x2A53 JUMP JUMPDEST PUSH1 0x40 MLOAD DUP1 SWAP2 SUB SWAP1 RETURN JUMPDEST PUSH2 0x210 PUSH1 0x4 DUP1 CALLDATASIZE SUB DUP2 ADD SWAP1 PUSH2 0x20B SWAP2 SWAP1 PUSH2 0x2A9A JUMP JUMPDEST PUSH2 0x5F8 JUMP JUMPDEST STOP JUMPDEST PUSH2 0x21A PUSH2 0x60E JUMP JUMPDEST STOP JUMPDEST PUSH2 0x224 PUSH2 0x727 JUMP JUMPDEST PUSH1 0x40 MLOAD PUSH2 0x231 SWAP2 SWAP1 PUSH2 0x2AE9 JUMP JUMPDEST PUSH1 0x40 MLOAD DUP1 SWAP2 SUB SWAP1 RETURN JUMPDEST PUSH2 0x254 PUSH1 0x4 DUP1 CALLDATASIZE SUB DUP2 ADD SWAP1 PUSH2 0x24F SWAP2 SWAP1 PUSH2 0x2B04 JUMP JUMPDEST PUSH2 0x734 JUMP JUMPDEST STOP JUMPDEST PUSH2 0x270 PUSH1 0x4 DUP1 CALLDATASIZE SUB DUP2 ADD SWAP1 PUSH2 0x26B SWAP2 SWAP1 PUSH2 0x2A9A JUMP JUMPDEST PUSH2 0x836 JUMP JUMPDEST PUSH1 0x40 MLOAD PUSH2 0x27D SWAP2 SWAP1 PUSH2 0x2AE9 JUMP JUMPDEST PUSH1 0x40 MLOAD DUP1 SWAP2 SUB SWAP1 RETURN JUMPDEST PUSH2 0x2A0 PUSH1 0x4 DUP1 CALLDATASIZE SUB DUP2 ADD SWAP1 PUSH2 0x29B SWAP2 SWAP1 PUSH2 0x2B04 JUMP JUMPDEST PUSH2 0x8DF JUMP JUMPDEST STOP JUMPDEST PUSH2 0x2BC PUSH1 0x4 DUP1 CALLDATASIZE SUB DUP2 ADD SWAP1 PUSH2 0x2B7 SWAP2 SWAP1 PUSH2 0x29E5 JUMP JUMPDEST PUSH2 0x8FF JUMP JUMPDEST PUSH1 0x40 MLOAD PUSH2 0x2C9 SWAP2 SWAP1 PUSH2 0x2BCE JUMP JUMPDEST PUSH1 0x40 MLOAD DUP1 SWAP2 SUB SWAP1 RETURN JUMPDEST PUSH2 0x2EC PUSH1 0x4 DUP1 CALLDATASIZE SUB DUP2 ADD SWAP1 PUSH2 0x2E7 SWAP2 SWAP1 PUSH2 0x29E5 JUMP JUMPDEST PUSH2 0x933 JUMP JUMPDEST PUSH1 0x40 MLOAD PUSH2 0x2F9 SWAP2 SWAP1 PUSH2 0x2AE9 JUMP JUMPDEST PUSH1 0x40 MLOAD DUP1 SWAP2 SUB SWAP1 RETURN JUMPDEST PUSH2 0x31C PUSH1 0x4 DUP1 CALLDATASIZE SUB DUP2 ADD SWAP1 PUSH2 0x317 SWAP2 SWAP1 PUSH2 0x29E5 JUMP JUMPDEST PUSH2 0x9A9 JUMP JUMPDEST PUSH1 0x40 MLOAD PUSH2 0x329 SWAP2 SWAP1 PUSH2 0x2A53 JUMP JUMPDEST PUSH1 0x40 MLOAD DUP1 SWAP2 SUB SWAP1 RETURN JUMPDEST PUSH2 0x34C PUSH1 0x4 DUP1 CALLDATASIZE SUB DUP2 ADD SWAP1 PUSH2 0x347 SWAP2 SWAP1 PUSH2 0x2BE9 JUMP JUMPDEST PUSH2 0x9BB JUMP JUMPDEST PUSH1 0x40 MLOAD PUSH2 0x359 SWAP2 SWAP1 PUSH2 0x2AE9 JUMP JUMPDEST PUSH1 0x40 MLOAD DUP1 SWAP2 SUB SWAP1 RETURN JUMPDEST PUSH2 0x36A PUSH2 0xA75 JUMP JUMPDEST STOP JUMPDEST PUSH2 0x374 PUSH2 0xA89 JUMP JUMPDEST PUSH1 0x40 MLOAD PUSH2 0x381 SWAP2 SWAP1 PUSH2 0x298D JUMP JUMPDEST PUSH1 0x40 MLOAD DUP1 SWAP2 SUB SWAP1 RETURN JUMPDEST PUSH2 0x3A4 PUSH1 0x4 DUP1 CALLDATASIZE SUB DUP2 ADD SWAP1 PUSH2 0x39F SWAP2 SWAP1 PUSH2 0x2BE9 JUMP JUMPDEST PUSH2 0xB17 JUMP JUMPDEST STOP JUMPDEST PUSH2 0x3C0 PUSH1 0x4 DUP1 CALLDATASIZE SUB DUP2 ADD SWAP1 PUSH2 0x3BB SWAP2 SWAP1 PUSH2 0x2C7B JUMP JUMPDEST PUSH2 0xB63 JUMP JUMPDEST STOP JUMPDEST PUSH2 0x3CA PUSH2 0xB81 JUMP JUMPDEST PUSH1 0x40 MLOAD PUSH2 0x3D7 SWAP2 SWAP1 PUSH2 0x2A53 JUMP JUMPDEST PUSH1 0x40 MLOAD DUP1 SWAP2 SUB SWAP1 RETURN JUMPDEST PUSH2 0x3E8 PUSH2 0xBAB JUMP JUMPDEST PUSH1 0x40 MLOAD PUSH2 0x3F5 SWAP2 SWAP1 PUSH2 0x298D JUMP JUMPDEST PUSH1 0x40 MLOAD DUP1 SWAP2 SUB SWAP1 RETURN JUMPDEST PUSH2 0x418 PUSH1 0x4 DUP1 CALLDATASIZE SUB DUP2 ADD SWAP1 PUSH2 0x413 SWAP2 SWAP1 PUSH2 0x2CF4 JUMP JUMPDEST PUSH2 0xC3D JUMP JUMPDEST STOP JUMPDEST PUSH2 0x434 PUSH1 0x4 DUP1 CALLDATASIZE SUB DUP2 ADD SWAP1 PUSH2 0x42F SWAP2 SWAP1 PUSH2 0x2E64 JUMP JUMPDEST PUSH2 0xC53 JUMP JUMPDEST STOP JUMPDEST PUSH2 0x450 PUSH1 0x4 DUP1 CALLDATASIZE SUB DUP2 ADD SWAP1 PUSH2 0x44B SWAP2 SWAP1 PUSH2 0x29E5 JUMP JUMPDEST PUSH2 0xC78 JUMP JUMPDEST PUSH1 0x40 MLOAD PUSH2 0x45D SWAP2 SWAP1 PUSH2 0x298D JUMP JUMPDEST PUSH1 0x40 MLOAD DUP1 SWAP2 SUB SWAP1 RETURN JUMPDEST PUSH2 0x480 PUSH1 0x4 DUP1 CALLDATASIZE SUB DUP2 ADD SWAP1 PUSH2 0x47B SWAP2 SWAP1 PUSH2 0x2EE7 JUMP JUMPDEST PUSH2 0xF51 JUMP JUMPDEST PUSH1 0x40 MLOAD PUSH2 0x48D SWAP2 SWAP1 PUSH2 0x28E2 JUMP JUMPDEST PUSH1 0x40 MLOAD DUP1 SWAP2 SUB SWAP1 RETURN JUMPDEST PUSH2 0x49E PUSH2 0xFE5 JUMP JUMPDEST PUSH1 0x40 MLOAD PUSH2 0x4AB SWAP2 SWAP1 PUSH2 0x2A53 JUMP JUMPDEST PUSH1 0x40 MLOAD DUP1 SWAP2 SUB SWAP1 RETURN JUMPDEST PUSH2 0x4CE PUSH1 0x4 DUP1 CALLDATASIZE SUB DUP2 ADD SWAP1 PUSH2 0x4C9 SWAP2 SWAP1 PUSH2 0x2BE9 JUMP JUMPDEST PUSH2 0x100B JUMP JUMPDEST STOP JUMPDEST PUSH1 0x0 PUSH32 0x780E9D6300000000000000000000000000000000000000000000000000000000 PUSH28 0xFFFFFFFFFFFFFFFFFFFFFFFFFFFFFFFFFFFFFFFFFFFFFFFFFFFFFFFF NOT AND DUP3 PUSH28 0xFFFFFFFFFFFFFFFFFFFFFFFFFFFFFFFFFFFFFFFFFFFFFFFFFFFFFFFF NOT AND EQ DUP1 PUSH2 0x543 JUMPI POP PUSH2 0x542 DUP3 PUSH2 0x1091 JUMP JUMPDEST JUMPDEST SWAP1 POP SWAP2 SWAP1 POP JUMP JUMPDEST PUSH1 0x60 PUSH1 0x0 DUP1 SLOAD PUSH2 0x559 SWAP1 PUSH2 0x2F56 JUMP JUMPDEST DUP1 PUSH1 0x1F ADD PUSH1 0x20 DUP1 SWAP2 DIV MUL PUSH1 0x20 ADD PUSH1 0x40 MLOAD SWAP1 DUP2 ADD PUSH1 0x40 MSTORE DUP1 SWAP3 SWAP2 SWAP1 DUP2 DUP2 MSTORE PUSH1 0x20 ADD DUP3 DUP1 SLOAD PUSH2 0x585 SWAP1 PUSH2 0x2F56 JUMP JUMPDEST DUP1 ISZERO PUSH2 0x5D2 JUMPI DUP1 PUSH1 0x1F LT PUSH2 0x5A7 JUMPI PUSH2 0x100 DUP1 DUP4 SLOAD DIV MUL DUP4 MSTORE SWAP2 PUSH1 0x20 ADD SWAP2 PUSH2 0x5D2 JUMP JUMPDEST DUP3 ADD SWAP2 SWAP1 PUSH1 0x0 MSTORE PUSH1 0x20 PUSH1 0x0 KECCAK256 SWAP1 JUMPDEST DUP2 SLOAD DUP2 MSTORE SWAP1 PUSH1 0x1 ADD SWAP1 PUSH1 0x20 ADD DUP1 DUP4 GT PUSH2 0x5B5 JUMPI DUP3 SWAP1 SUB PUSH1 0x1F AND DUP3 ADD SWAP2 JUMPDEST POP POP POP POP POP SWAP1 POP SWAP1 JUMP JUMPDEST PUSH1 0x0 PUSH2 0x5E7 DUP3 PUSH2 0x1173 JUMP JUMPDEST POP PUSH2 0x5F1 DUP3 PUSH2 0x11FB JUMP JUMPDEST SWAP1 POP SWAP2 SWAP1 POP JUMP JUMPDEST PUSH2 0x60A DUP3 DUP3 PUSH2 0x605 PUSH2 0x1238 JUMP JUMPDEST PUSH2 0x1240 JUMP JUMPDEST POP POP JUMP JUMPDEST PUSH1 0x0 PUSH2 0x619 CALLER PUSH2 0x9BB JUMP JUMPDEST EQ PUSH2 0x659 JUMPI PUSH1 0x40 MLOAD PUSH32 0x8C379A000000000000000000000000000000000000000000000000000000000 DUP2 MSTORE PUSH1 0x4 ADD PUSH2 0x650 SWAP1 PUSH2 0x2FD3 JUMP JUMPDEST PUSH1 0x40 MLOAD DUP1 SWAP2 SUB SWAP1 REVERT JUMPDEST PUSH1 0x0 PUSH1 0xC PUSH1 0x0 DUP2 SLOAD DUP1 SWAP3 SWAP2 SWAP1 PUSH2 0x66E SWAP1 PUSH2 0x3022 JUMP JUMPDEST SWAP2 SWAP1 POP SSTORE SWAP1 POP PUSH1 0x0 PREVRANDAO CALLER DUP4 TIMESTAMP PUSH1 0x40 MLOAD PUSH1 0x20 ADD PUSH2 0x68D SWAP5 SWAP4 SWAP3 SWAP2 SWAP1 PUSH2 0x30D3 JUMP JUMPDEST PUSH1 0x40 MLOAD PUSH1 0x20 DUP2 DUP4 SUB SUB DUP2 MSTORE SWAP1 PUSH1 0x40 MSTORE DUP1 MLOAD SWAP1 PUSH1 0x20 ADD KECCAK256 PUSH1 0x0 SHR SWAP1 POP PUSH1 0x0 PUSH1 0x64 DUP3 PUSH2 0x6B7 SWAP2 SWAP1 PUSH2 0x3150 JUMP JUMPDEST SWAP1 POP PUSH1 0x0 PUSH1 0x2 DUP3 LT ISZERO PUSH2 0x6CD JUMPI PUSH1 0x2 SWAP1 POP PUSH2 0x6DC JUMP JUMPDEST PUSH1 0x14 DUP3 LT ISZERO PUSH2 0x6DB JUMPI PUSH1 0x1 SWAP1 POP JUMPDEST JUMPDEST DUP1 PUSH1 0xB PUSH1 0x0 DUP7 DUP2 MSTORE PUSH1 0x20 ADD SWAP1 DUP2 MSTORE PUSH1 0x20 ADD PUSH1 0x0 KECCAK256 PUSH1 0x0 PUSH2 0x100 EXP DUP2 SLOAD DUP2 PUSH1 0xFF MUL NOT AND SWAP1 DUP4 PUSH1 0x2 DUP2 GT ISZERO PUSH2 0x712 JUMPI PUSH2 0x711 PUSH2 0x2B57 JUMP JUMPDEST JUMPDEST MUL OR SWAP1 SSTORE POP PUSH2 0x721 CALLER DUP6 PUSH2 0x1252 JUMP JUMPDEST POP POP POP POP JUMP JUMPDEST PUSH1 0x0 PUSH1 0x8 DUP1 SLOAD SWAP1 POP SWAP1 POP SWAP1 JUMP JUMPDEST PUSH1 0x0 PUSH20 0xFFFFFFFFFFFFFFFFFFFFFFFFFFFFFFFFFFFFFFFF AND DUP3 PUSH20 0xFFFFFFFFFFFFFFFFFFFFFFFFFFFFFFFFFFFFFFFF AND SUB PUSH2 0x7A6 JUMPI PUSH1 0x0 PUSH1 0x40 MLOAD PUSH32 0x64A0AE9200000000000000000000000000000000000000000000000000000000 DUP2 MSTORE PUSH1 0x4 ADD PUSH2 0x79D SWAP2 SWAP1 PUSH2 0x2A53 JUMP JUMPDEST PUSH1 0x40 MLOAD DUP1 SWAP2 SUB SWAP1 REVERT JUMPDEST PUSH1 0x0 PUSH2 0x7BA DUP4 DUP4 PUSH2 0x7B5 PUSH2 0x1238 JUMP JUMPDEST PUSH2 0x1270 JUMP JUMPDEST SWAP1 POP DUP4 PUSH20 0xFFFFFFFFFFFFFFFFFFFFFFFFFFFFFFFFFFFFFFFF AND DUP2 PUSH20 0xFFFFFFFFFFFFFFFFFFFFFFFFFFFFFFFFFFFFFFFF AND EQ PUSH2 0x830 JUMPI DUP4 DUP3 DUP3 PUSH1 0x40 MLOAD PUSH32 0x64283D7B00000000000000000000000000000000000000000000000000000000 DUP2 MSTORE PUSH1 0x4 ADD PUSH2 0x827 SWAP4 SWAP3 SWAP2 SWAP1 PUSH2 0x3181 JUMP JUMPDEST PUSH1 0x40 MLOAD DUP1 SWAP2 SUB SWAP1 REVERT JUMPDEST POP POP POP POP JUMP JUMPDEST PUSH1 0x0 PUSH2 0x841 DUP4 PUSH2 0x9BB JUMP JUMPDEST DUP3 LT PUSH2 0x886 JUMPI DUP3 DUP3 PUSH1 0x40 MLOAD PUSH32 0xA57D13DC00000000000000000000000000000000000000000000000000000000 DUP2 MSTORE PUSH1 0x4 ADD PUSH2 0x87D SWAP3 SWAP2 SWAP1 PUSH2 0x31B8 JUMP JUMPDEST PUSH1 0x40 MLOAD DUP1 SWAP2 SUB SWAP1 REVERT JUMPDEST PUSH1 0x6 PUSH1 0x0 DUP5 PUSH20 0xFFFFFFFFFFFFFFFFFFFFFFFFFFFFFFFFFFFFFFFF AND PUSH20 0xFFFFFFFFFFFFFFFFFFFFFFFFFFFFFFFFFFFFFFFF AND DUP2 MSTORE PUSH1 0x20 ADD SWAP1 DUP2 MSTORE PUSH1 0x20 ADD PUSH1 0x0 KECCAK256 PUSH1 0x0 DUP4 DUP2 MSTORE PUSH1 0x20 ADD SWAP1 DUP2 MSTORE PUSH1 0x20 ADD PUSH1 0x0 KECCAK256 SLOAD SWAP1 POP SWAP3 SWAP2 POP POP JUMP JUMPDEST PUSH2 0x8FA DUP4 DUP4 DUP4 PUSH1 0x40 MLOAD DUP1 PUSH1 0x20 ADD PUSH1 0x40 MSTORE DUP1 PUSH1 0x0 DUP2 MSTORE POP PUSH2 0xC53 JUMP JUMPDEST POP POP POP JUMP JUMPDEST PUSH1 0x0 PUSH2 0x90A DUP3 PUSH2 0x1173 JUMP JUMPDEST POP PUSH1 0xB PUSH1 0x0 DUP4 DUP2 MSTORE PUSH1 0x20 ADD SWAP1 DUP2 MSTORE PUSH1 0x20 ADD PUSH1 0x0 KECCAK256 PUSH1 0x0 SWAP1 SLOAD SWAP1 PUSH2 0x100 EXP SWAP1 DIV PUSH1 0xFF AND SWAP1 POP SWAP2 SWAP1 POP JUMP JUMPDEST PUSH1 0x0 PUSH2 0x93D PUSH2 0x727 JUMP JUMPDEST DUP3 LT PUSH2 0x983 JUMPI PUSH1 0x0 DUP3 PUSH1 0x40 MLOAD PUSH32 0xA57D13DC00000000000000000000000000000000000000000000000000000000 DUP2 MSTORE PUSH1 0x4 ADD PUSH2 0x97A SWAP3 SWAP2 SWAP1 PUSH2 0x31B8 JUMP JUMPDEST PUSH1 0x40 MLOAD DUP1 SWAP2 SUB SWAP1 REVERT JUMPDEST PUSH1 0x8 DUP3 DUP2 SLOAD DUP2 LT PUSH2 0x997 JUMPI PUSH2 0x996 PUSH2 0x31E1 JUMP JUMPDEST JUMPDEST SWAP1 PUSH1 0x0 MSTORE PUSH1 0x20 PUSH1 0x0 KECCAK256 ADD SLOAD SWAP1 POP SWAP2 SWAP1 POP JUMP JUMPDEST PUSH1 0x0 PUSH2 0x9B4 DUP3 PUSH2 0x1173 JUMP JUMPDEST SWAP1 POP SWAP2 SWAP1 POP JUMP JUMPDEST PUSH1 0x0 DUP1 PUSH20 0xFFFFFFFFFFFFFFFFFFFFFFFFFFFFFFFFFFFFFFFF AND DUP3 PUSH20 0xFFFFFFFFFFFFFFFFFFFFFFFFFFFFFFFFFFFFFFFF AND SUB PUSH2 0xA2E JUMPI PUSH1 0x0 PUSH1 0x40 MLOAD PUSH32 0x89C62B6400000000000000000000000000000000000000000000000000000000 DUP2 MSTORE PUSH1 0x4 ADD PUSH2 0xA25 SWAP2 SWAP1 PUSH2 0x2A53 JUMP JUMPDEST PUSH1 0x40 MLOAD DUP1 SWAP2 SUB SWAP1 REVERT JUMPDEST PUSH1 0x3 PUSH1 0x0 DUP4 PUSH20 0xFFFFFFFFFFFFFFFFFFFFFFFFFFFFFFFFFFFFFFFF AND PUSH20 0xFFFFFFFFFFFFFFFFFFFFFFFFFFFFFFFFFFFFFFFF AND DUP2 MSTORE PUSH1 0x20 ADD SWAP1 DUP2 MSTORE PUSH1 0x20 ADD PUSH1 0x0 KECCAK256 SLOAD SWAP1 POP SWAP2 SWAP1 POP JUMP JUMPDEST PUSH2 0xA7D PUSH2 0x138D JUMP JUMPDEST PUSH2 0xA87 PUSH1 0x0 PUSH2 0x1414 JUMP JUMPDEST JUMP JUMPDEST PUSH1 0xD DUP1 SLOAD PUSH2 0xA96 SWAP1 PUSH2 0x2F56 JUMP JUMPDEST DUP1 PUSH1 0x1F ADD PUSH1 0x20 DUP1 SWAP2 DIV MUL PUSH1 0x20 ADD PUSH1 0x40 MLOAD SWAP1 DUP2 ADD PUSH1 0x40 MSTORE DUP1 SWAP3 SWAP2 SWAP1 DUP2 DUP2 MSTORE PUSH1 0x20 ADD DUP3 DUP1 SLOAD PUSH2 0xAC2 SWAP1 PUSH2 0x2F56 JUMP JUMPDEST DUP1 ISZERO PUSH2 0xB0F JUMPI DUP1 PUSH1 0x1F LT PUSH2 0xAE4 JUMPI PUSH2 0x100 DUP1 DUP4 SLOAD DIV MUL DUP4 MSTORE SWAP2 PUSH1 0x20 ADD SWAP2 PUSH2 0xB0F JUMP JUMPDEST DUP3 ADD SWAP2 SWAP1 PUSH1 0x0 MSTORE PUSH1 0x20 PUSH1 0x0 KECCAK256 SWAP1 JUMPDEST DUP2 SLOAD DUP2 MSTORE SWAP1 PUSH1 0x1 ADD SWAP1 PUSH1 0x20 ADD DUP1 DUP4 GT PUSH2 0xAF2 JUMPI DUP3 SWAP1 SUB PUSH1 0x1F AND DUP3 ADD SWAP2 JUMPDEST POP POP POP POP POP DUP2 JUMP JUMPDEST PUSH2 0xB1F PUSH2 0x138D JUMP JUMPDEST DUP1 PUSH1 0xE PUSH1 0x0 PUSH2 0x100 EXP DUP2 SLOAD DUP2 PUSH20 0xFFFFFFFFFFFFFFFFFFFFFFFFFFFFFFFFFFFFFFFF MUL NOT AND SWAP1 DUP4 PUSH20 0xFFFFFFFFFFFFFFFFFFFFFFFFFFFFFFFFFFFFFFFF AND MUL OR SWAP1 SSTORE POP POP JUMP JUMPDEST PUSH2 0xB6B PUSH2 0x138D JUMP JUMPDEST DUP2 DUP2 PUSH1 0xD SWAP2 DUP3 PUSH2 0xB7C SWAP3 SWAP2 SWAP1 PUSH2 0x33C7 JUMP JUMPDEST POP POP POP JUMP JUMPDEST PUSH1 0x0 PUSH1 0xA PUSH1 0x0 SWAP1 SLOAD SWAP1 PUSH2 0x100 EXP SWAP1 DIV PUSH20 0xFFFFFFFFFFFFFFFFFFFFFFFFFFFFFFFFFFFFFFFF AND SWAP1 POP SWAP1 JUMP JUMPDEST PUSH1 0x60 PUSH1 0x1 DUP1 SLOAD PUSH2 0xBBA SWAP1 PUSH2 0x2F56 JUMP JUMPDEST DUP1 PUSH1 0x1F ADD PUSH1 0x20 DUP1 SWAP2 DIV MUL PUSH1 0x20 ADD PUSH1 0x40 MLOAD SWAP1 DUP2 ADD PUSH1 0x40 MSTORE DUP1 SWAP3 SWAP2 SWAP1 DUP2 DUP2 MSTORE PUSH1 0x20 ADD DUP3 DUP1 SLOAD PUSH2 0xBE6 SWAP1 PUSH2 0x2F56 JUMP JUMPDEST DUP1 ISZERO PUSH2 0xC33 JUMPI DUP1 PUSH1 0x1F LT PUSH2 0xC08 JUMPI PUSH2 0x100 DUP1 DUP4 SLOAD DIV MUL DUP4 MSTORE SWAP2 PUSH1 0x20 ADD SWAP2 PUSH2 0xC33 JUMP JUMPDEST DUP3 ADD SWAP2 SWAP1 PUSH1 0x0 MSTORE PUSH1 0x20 PUSH1 0x0 KECCAK256 SWAP1 JUMPDEST DUP2 SLOAD DUP2 MSTORE SWAP1 PUSH1 0x1 ADD SWAP1 PUSH1 0x20 ADD DUP1 DUP4 GT PUSH2 0xC16 JUMPI DUP3 SWAP1 SUB PUSH1 0x1F AND DUP3 ADD SWAP2 JUMPDEST POP POP POP POP POP SWAP1 POP SWAP1 JUMP JUMPDEST PUSH2 0xC4F PUSH2 0xC48 PUSH2 0x1238 JUMP JUMPDEST DUP4 DUP4 PUSH2 0x14DA JUMP JUMPDEST POP POP JUMP JUMPDEST PUSH2 0xC5E DUP5 DUP5 DUP5 PUSH2 0x734 JUMP JUMPDEST PUSH2 0xC72 PUSH2 0xC69 PUSH2 0x1238 JUMP JUMPDEST DUP6 DUP6 DUP6 DUP6 PUSH2 0x1649 JUMP JUMPDEST POP POP POP POP JUMP JUMPDEST PUSH1 0x60 PUSH2 0xC83 DUP3 PUSH2 0x1173 JUMP JUMPDEST POP PUSH1 0x0 PUSH2 0xCAF PUSH1 0xB PUSH1 0x0 DUP6 DUP2 MSTORE PUSH1 0x20 ADD SWAP1 DUP2 MSTORE PUSH1 0x20 ADD PUSH1 0x0 KECCAK256 PUSH1 0x0 SWAP1 SLOAD SWAP1 PUSH2 0x100 EXP SWAP1 DIV PUSH1 0xFF AND PUSH2 0x17FA JUMP JUMPDEST SWAP1 POP PUSH1 0x0 PUSH1 0xD DUP3 PUSH1 0x40 MLOAD PUSH1 0x20 ADD PUSH2 0xCC7 SWAP3 SWAP2 SWAP1 PUSH2 0x35A2 JUMP JUMPDEST PUSH1 0x40 MLOAD PUSH1 0x20 DUP2 DUP4 SUB SUB DUP2 MSTORE SWAP1 PUSH1 0x40 MSTORE SWAP1 POP PUSH1 0x0 PUSH2 0xD03 PUSH1 0xB PUSH1 0x0 DUP8 DUP2 MSTORE PUSH1 0x20 ADD SWAP1 DUP2 MSTORE PUSH1 0x20 ADD PUSH1 0x0 KECCAK256 PUSH1 0x0 SWAP1 SLOAD SWAP1 PUSH2 0x100 EXP SWAP1 DIV PUSH1 0xFF AND PUSH2 0x190B JUMP JUMPDEST PUSH1 0x40 MLOAD PUSH1 0x20 ADD PUSH2 0xD13 SWAP2 SWAP1 PUSH2 0x3669 JUMP JUMPDEST PUSH1 0x40 MLOAD PUSH1 0x20 DUP2 DUP4 SUB SUB DUP2 MSTORE SWAP1 PUSH1 0x40 MSTORE SWAP1 POP PUSH1 0x0 PUSH20 0xFFFFFFFFFFFFFFFFFFFFFFFFFFFFFFFFFFFFFFFF AND PUSH1 0xE PUSH1 0x0 SWAP1 SLOAD SWAP1 PUSH2 0x100 EXP SWAP1 DIV PUSH20 0xFFFFFFFFFFFFFFFFFFFFFFFFFFFFFFFFFFFFFFFF AND PUSH20 0xFFFFFFFFFFFFFFFFFFFFFFFFFFFFFFFFFFFFFFFF AND EQ PUSH2 0xEEE JUMPI PUSH1 0x0 PUSH2 0xD85 DUP7 PUSH2 0x9A9 JUMP JUMPDEST SWAP1 POP PUSH1 0xE PUSH1 0x0 SWAP1 SLOAD SWAP1 PUSH2 0x100 EXP SWAP1 DIV PUSH20 0xFFFFFFFFFFFFFFFFFFFFFFFFFFFFFFFFFFFFFFFF AND PUSH20 0xFFFFFFFFFFFFFFFFFFFFFFFFFFFFFFFFFFFFFFFF AND PUSH4 0xC01CA43F DUP3 PUSH1 0x40 MLOAD DUP3 PUSH4 0xFFFFFFFF AND PUSH1 0xE0 SHL DUP2 MSTORE PUSH1 0x4 ADD PUSH2 0xDE2 SWAP2 SWAP1 PUSH2 0x2A53 JUMP JUMPDEST PUSH1 0x80 PUSH1 0x40 MLOAD DUP1 DUP4 SUB DUP2 DUP7 GAS STATICCALL SWAP3 POP POP POP DUP1 ISZERO PUSH2 0xE1C JUMPI POP PUSH1 0x40 MLOAD RETURNDATASIZE PUSH1 0x1F NOT PUSH1 0x1F DUP3 ADD AND DUP3 ADD DUP1 PUSH1 0x40 MSTORE POP DUP2 ADD SWAP1 PUSH2 0xE19 SWAP2 SWAP1 PUSH2 0x375C JUMP JUMPDEST PUSH1 0x1 JUMPDEST ISZERO PUSH2 0xEEC JUMPI PUSH1 0x0 DUP2 PUSH1 0x0 PUSH1 0x3 DUP2 LT PUSH2 0xE37 JUMPI PUSH2 0xE36 PUSH2 0x31E1 JUMP JUMPDEST JUMPDEST PUSH1 0x20 MUL ADD MLOAD SWAP1 POP PUSH1 0x0 DUP3 PUSH1 0x1 PUSH1 0x3 DUP2 LT PUSH2 0xE54 JUMPI PUSH2 0xE53 PUSH2 0x31E1 JUMP JUMPDEST JUMPDEST PUSH1 0x20 MUL ADD MLOAD SWAP1 POP PUSH1 0x0 DUP4 PUSH1 0x2 PUSH1 0x3 DUP2 LT PUSH2 0xE71 JUMPI PUSH2 0xE70 PUSH2 0x31E1 JUMP JUMPDEST JUMPDEST PUSH1 0x20 MUL ADD MLOAD SWAP1 POP PUSH1 0x0 PUSH1 0xA DUP5 PUSH2 0xE87 SWAP2 SWAP1 PUSH2 0x37A6 JUMP JUMPDEST SWAP1 POP PUSH1 0x0 PUSH1 0xA DUP5 PUSH2 0xE98 SWAP2 SWAP1 PUSH2 0x37A6 JUMP JUMPDEST SWAP1 POP DUP9 PUSH2 0xEA4 DUP9 PUSH2 0x1A1C JUMP JUMPDEST PUSH2 0xEAD DUP5 PUSH2 0x1AEA JUMP JUMPDEST PUSH2 0xEB6 DUP5 PUSH2 0x1AEA JUMP JUMPDEST PUSH2 0xEBF DUP8 PUSH2 0x1A1C JUMP JUMPDEST PUSH1 0x40 MLOAD PUSH1 0x20 ADD PUSH2 0xED3 SWAP6 SWAP5 SWAP4 SWAP3 SWAP2 SWAP1 PUSH2 0x3965 JUMP JUMPDEST PUSH1 0x40 MLOAD PUSH1 0x20 DUP2 DUP4 SUB SUB DUP2 MSTORE SWAP1 PUSH1 0x40 MSTORE SWAP9 POP POP POP POP POP POP POP POP JUMPDEST POP JUMPDEST PUSH1 0x0 PUSH2 0xEF9 DUP7 PUSH2 0x1A1C JUMP JUMPDEST DUP4 DUP4 PUSH1 0x40 MLOAD PUSH1 0x20 ADD PUSH2 0xF0D SWAP4 SWAP3 SWAP2 SWAP1 PUSH2 0x3C42 JUMP JUMPDEST PUSH1 0x40 MLOAD PUSH1 0x20 DUP2 DUP4 SUB SUB DUP2 MSTORE SWAP1 PUSH1 0x40 MSTORE SWAP1 POP PUSH2 0xF27 DUP2 PUSH2 0x1B62 JUMP JUMPDEST PUSH1 0x40 MLOAD PUSH1 0x20 ADD PUSH2 0xF37 SWAP2 SWAP1 PUSH2 0x3D0C JUMP JUMPDEST PUSH1 0x40 MLOAD PUSH1 0x20 DUP2 DUP4 SUB SUB DUP2 MSTORE SWAP1 PUSH1 0x40 MSTORE SWAP5 POP POP POP POP POP SWAP2 SWAP1 POP JUMP JUMPDEST PUSH1 0x0 PUSH1 0x5 PUSH1 0x0 DUP5 PUSH20 0xFFFFFFFFFFFFFFFFFFFFFFFFFFFFFFFFFFFFFFFF AND PUSH20 0xFFFFFFFFFFFFFFFFFFFFFFFFFFFFFFFFFFFFFFFF AND DUP2 MSTORE PUSH1 0x20 ADD SWAP1 DUP2 MSTORE PUSH1 0x20 ADD PUSH1 0x0 KECCAK256 PUSH1 0x0 DUP4 PUSH20 0xFFFFFFFFFFFFFFFFFFFFFFFFFFFFFFFFFFFFFFFF AND PUSH20 0xFFFFFFFFFFFFFFFFFFFFFFFFFFFFFFFFFFFFFFFF AND DUP2 MSTORE PUSH1 0x20 ADD SWAP1 DUP2 MSTORE PUSH1 0x20 ADD PUSH1 0x0 KECCAK256 PUSH1 0x0 SWAP1 SLOAD SWAP1 PUSH2 0x100 EXP SWAP1 DIV PUSH1 0xFF AND SWAP1 POP SWAP3 SWAP2 POP POP JUMP JUMPDEST PUSH1 0xE PUSH1 0x0 SWAP1 SLOAD SWAP1 PUSH2 0x100 EXP SWAP1 DIV PUSH20 0xFFFFFFFFFFFFFFFFFFFFFFFFFFFFFFFFFFFFFFFF AND DUP2 JUMP JUMPDEST PUSH2 0x1013 PUSH2 0x138D JUMP JUMPDEST PUSH1 0x0 PUSH20 0xFFFFFFFFFFFFFFFFFFFFFFFFFFFFFFFFFFFFFFFF AND DUP2 PUSH20 0xFFFFFFFFFFFFFFFFFFFFFFFFFFFFFFFFFFFFFFFF AND SUB PUSH2 0x1085 JUMPI PUSH1 0x0 PUSH1 0x40 MLOAD PUSH32 0x1E4FBDF700000000000000000000000000000000000000000000000000000000 DUP2 MSTORE PUSH1 0x4 ADD PUSH2 0x107C SWAP2 SWAP1 PUSH2 0x2A53 JUMP JUMPDEST PUSH1 0x40 MLOAD DUP1 SWAP2 SUB SWAP1 REVERT JUMPDEST PUSH2 0x108E DUP2 PUSH2 0x1414 JUMP JUMPDEST POP JUMP JUMPDEST PUSH1 0x0 PUSH32 0x80AC58CD00000000000000000000000000000000000000000000000000000000 PUSH28 0xFFFFFFFFFFFFFFFFFFFFFFFFFFFFFFFFFFFFFFFFFFFFFFFFFFFFFFFF NOT AND DUP3 PUSH28 0xFFFFFFFFFFFFFFFFFFFFFFFFFFFFFFFFFFFFFFFFFFFFFFFFFFFFFFFF NOT AND EQ DUP1 PUSH2 0x115C JUMPI POP PUSH32 0x5B5E139F00000000000000000000000000000000000000000000000000000000 PUSH28 0xFFFFFFFFFFFFFFFFFFFFFFFFFFFFFFFFFFFFFFFFFFFFFFFFFFFFFFFF NOT AND DUP3 PUSH28 0xFFFFFFFFFFFFFFFFFFFFFFFFFFFFFFFFFFFFFFFFFFFFFFFFFFFFFFFF NOT AND EQ JUMPDEST DUP1 PUSH2 0x116C JUMPI POP PUSH2 0x116B DUP3 PUSH2 0x1B8F JUMP JUMPDEST JUMPDEST SWAP1 POP SWAP2 SWAP1 POP JUMP JUMPDEST PUSH1 0x0 DUP1 PUSH2 0x117F DUP4 PUSH2 0x1BF9 JUMP JUMPDEST SWAP1 POP PUSH1 0x0 PUSH20 0xFFFFFFFFFFFFFFFFFFFFFFFFFFFFFFFFFFFFFFFF AND DUP2 PUSH20 0xFFFFFFFFFFFFFFFFFFFFFFFFFFFFFFFFFFFFFFFF AND SUB PUSH2 0x11F2 JUMPI DUP3 PUSH1 0x40 MLOAD PUSH32 0x7E27328900000000000000000000000000000000000000000000000000000000 DUP2 MSTORE PUSH1 0x4 ADD PUSH2 0x11E9 SWAP2 SWAP1 PUSH2 0x2AE9 JUMP JUMPDEST PUSH1 0x40 MLOAD DUP1 SWAP2 SUB SWAP1 REVERT JUMPDEST DUP1 SWAP2 POP POP SWAP2 SWAP1 POP JUMP JUMPDEST PUSH1 0x0 PUSH1 0x4 PUSH1 0x0 DUP4 DUP2 MSTORE PUSH1 0x20 ADD SWAP1 DUP2 MSTORE PUSH1 0x20 ADD PUSH1 0x0 KECCAK256 PUSH1 0x0 SWAP1 SLOAD SWAP1 PUSH2 0x100 EXP SWAP1 DIV PUSH20 0xFFFFFFFFFFFFFFFFFFFFFFFFFFFFFFFFFFFFFFFF AND SWAP1 POP SWAP2 SWAP1 POP JUMP JUMPDEST PUSH1 0x0 CALLER SWAP1 POP SWAP1 JUMP JUMPDEST PUSH2 0x124D DUP4 DUP4 DUP4 PUSH1 0x1 PUSH2 0x1C36 JUMP JUMPDEST POP POP POP JUMP JUMPDEST PUSH2 0x126C DUP3 DUP3 PUSH1 0x40 MLOAD DUP1 PUSH1 0x20 ADD PUSH1 0x40 MSTORE DUP1 PUSH1 0x0 DUP2 MSTORE POP PUSH2 0x1DFB JUMP JUMPDEST POP POP JUMP JUMPDEST PUSH1 0x0 DUP1 PUSH2 0x127E DUP6 DUP6 DUP6 PUSH2 0x1E1F JUMP JUMPDEST SWAP1 POP PUSH1 0x0 PUSH20 0xFFFFFFFFFFFFFFFFFFFFFFFFFFFFFFFFFFFFFFFF AND DUP2 PUSH20 0xFFFFFFFFFFFFFFFFFFFFFFFFFFFFFFFFFFFFFFFF AND SUB PUSH2 0x12C2 JUMPI PUSH2 0x12BD DUP5 PUSH2 0x2039 JUMP JUMPDEST PUSH2 0x1301 JUMP JUMPDEST DUP5 PUSH20 0xFFFFFFFFFFFFFFFFFFFFFFFFFFFFFFFFFFFFFFFF AND DUP2 PUSH20 0xFFFFFFFFFFFFFFFFFFFFFFFFFFFFFFFFFFFFFFFF AND EQ PUSH2 0x1300 JUMPI PUSH2 0x12FF DUP2 DUP6 PUSH2 0x2082 JUMP JUMPDEST JUMPDEST JUMPDEST PUSH1 0x0 PUSH20 0xFFFFFFFFFFFFFFFFFFFFFFFFFFFFFFFFFFFFFFFF AND DUP6 PUSH20 0xFFFFFFFFFFFFFFFFFFFFFFFFFFFFFFFFFFFFFFFF AND SUB PUSH2 0x1343 JUMPI PUSH2 0x133E DUP5 PUSH2 0x216D JUMP JUMPDEST PUSH2 0x1382 JUMP JUMPDEST DUP5 PUSH20 0xFFFFFFFFFFFFFFFFFFFFFFFFFFFFFFFFFFFFFFFF AND DUP2 PUSH20 0xFFFFFFFFFFFFFFFFFFFFFFFFFFFFFFFFFFFFFFFF AND EQ PUSH2 0x1381 JUMPI PUSH2 0x1380 DUP6 DUP6 PUSH2 0x223E JUMP JUMPDEST JUMPDEST JUMPDEST DUP1 SWAP2 POP POP SWAP4 SWAP3 POP POP POP JUMP JUMPDEST PUSH2 0x1395 PUSH2 0x1238 JUMP JUMPDEST PUSH20 0xFFFFFFFFFFFFFFFFFFFFFFFFFFFFFFFFFFFFFFFF AND PUSH2 0x13B3 PUSH2 0xB81 JUMP JUMPDEST PUSH20 0xFFFFFFFFFFFFFFFFFFFFFFFFFFFFFFFFFFFFFFFF AND EQ PUSH2 0x1412 JUMPI PUSH2 0x13D6 PUSH2 0x1238 JUMP JUMPDEST PUSH1 0x40 MLOAD PUSH32 0x118CDAA700000000000000000000000000000000000000000000000000000000 DUP2 MSTORE PUSH1 0x4 ADD PUSH2 0x1409 SWAP2 SWAP1 PUSH2 0x2A53 JUMP JUMPDEST PUSH1 0x40 MLOAD DUP1 SWAP2 SUB SWAP1 REVERT JUMPDEST JUMP JUMPDEST PUSH1 0x0 PUSH1 0xA PUSH1 0x0 SWAP1 SLOAD SWAP1 PUSH2 0x100 EXP SWAP1 DIV PUSH20 0xFFFFFFFFFFFFFFFFFFFFFFFFFFFFFFFFFFFFFFFF AND SWAP1 POP DUP2 PUSH1 0xA PUSH1 0x0 PUSH2 0x100 EXP DUP2 SLOAD DUP2 PUSH20 0xFFFFFFFFFFFFFFFFFFFFFFFFFFFFFFFFFFFFFFFF MUL NOT AND SWAP1 DUP4 PUSH20 0xFFFFFFFFFFFFFFFFFFFFFFFFFFFFFFFFFFFFFFFF AND MUL OR SWAP1 SSTORE POP DUP2 PUSH20 0xFFFFFFFFFFFFFFFFFFFFFFFFFFFFFFFFFFFFFFFF AND DUP2 PUSH20 0xFFFFFFFFFFFFFFFFFFFFFFFFFFFFFFFFFFFFFFFF AND PUSH32 0x8BE0079C531659141344CD1FD0A4F28419497F9722A3DAAFE3B4186F6B6457E0 PUSH1 0x40 MLOAD PUSH1 0x40 MLOAD DUP1 SWAP2 SUB SWAP1 LOG3 POP POP JUMP JUMPDEST PUSH1 0x0 PUSH20 0xFFFFFFFFFFFFFFFFFFFFFFFFFFFFFFFFFFFFFFFF AND DUP3 PUSH20 0xFFFFFFFFFFFFFFFFFFFFFFFFFFFFFFFFFFFFFFFF AND SUB PUSH2 0x154B JUMPI DUP2 PUSH1 0x40 MLOAD PUSH32 0x5B08BA1800000000000000000000000000000000000000000000000000000000 DUP2 MSTORE PUSH1 0x4 ADD PUSH2 0x1542 SWAP2 SWAP1 PUSH2 0x2A53 JUMP JUMPDEST PUSH1 0x40 MLOAD DUP1 SWAP2 SUB SWAP1 REVERT JUMPDEST DUP1 PUSH1 0x5 PUSH1 0x0 DUP6 PUSH20 0xFFFFFFFFFFFFFFFFFFFFFFFFFFFFFFFFFFFFFFFF AND PUSH20 0xFFFFFFFFFFFFFFFFFFFFFFFFFFFFFFFFFFFFFFFF AND DUP2 MSTORE PUSH1 0x20 ADD SWAP1 DUP2 MSTORE PUSH1 0x20 ADD PUSH1 0x0 KECCAK256 PUSH1 0x0 DUP5 PUSH20 0xFFFFFFFFFFFFFFFFFFFFFFFFFFFFFFFFFFFFFFFF AND PUSH20 0xFFFFFFFFFFFFFFFFFFFFFFFFFFFFFFFFFFFFFFFF AND DUP2 MSTORE PUSH1 0x20 ADD SWAP1 DUP2 MSTORE PUSH1 0x20 ADD PUSH1 0x0 KECCAK256 PUSH1 0x0 PUSH2 0x100 EXP DUP2 SLOAD DUP2 PUSH1 0xFF MUL NOT AND SWAP1 DUP4 ISZERO ISZERO MUL OR SWAP1 SSTORE POP DUP2 PUSH20 0xFFFFFFFFFFFFFFFFFFFFFFFFFFFFFFFFFFFFFFFF AND DUP4 PUSH20 0xFFFFFFFFFFFFFFFFFFFFFFFFFFFFFFFFFFFFFFFF AND PUSH32 0x17307EAB39AB6107E8899845AD3D59BD9653F200F220920489CA2B5937696C31 DUP4 PUSH1 0x40 MLOAD PUSH2 0x163C SWAP2 SWAP1 PUSH2 0x28E2 JUMP JUMPDEST PUSH1 0x40 MLOAD DUP1 SWAP2 SUB SWAP1 LOG3 POP POP POP JUMP JUMPDEST PUSH1 0x0 DUP4 PUSH20 0xFFFFFFFFFFFFFFFFFFFFFFFFFFFFFFFFFFFFFFFF AND EXTCODESIZE GT ISZERO PUSH2 0x17F3 JUMPI DUP3 PUSH20 0xFFFFFFFFFFFFFFFFFFFFFFFFFFFFFFFFFFFFFFFF AND PUSH4 0x150B7A02 DUP7 DUP7 DUP6 DUP6 PUSH1 0x40 MLOAD DUP6 PUSH4 0xFFFFFFFF AND PUSH1 0xE0 SHL DUP2 MSTORE PUSH1 0x4 ADD PUSH2 0x16A8 SWAP5 SWAP4 SWAP3 SWAP2 SWAP1 PUSH2 0x3D83 JUMP JUMPDEST PUSH1 0x20 PUSH1 0x40 MLOAD DUP1 DUP4 SUB DUP2 PUSH1 0x0 DUP8 GAS CALL SWAP3 POP POP POP DUP1 ISZERO PUSH2 0x16E4 JUMPI POP PUSH1 0x40 MLOAD RETURNDATASIZE PUSH1 0x1F NOT PUSH1 0x1F DUP3 ADD AND DUP3 ADD DUP1 PUSH1 0x40 MSTORE POP DUP2 ADD SWAP1 PUSH2 0x16E1 SWAP2 SWAP1 PUSH2 0x3DE4 JUMP JUMPDEST PUSH1 0x1 JUMPDEST PUSH2 0x1768 JUMPI RETURNDATASIZE DUP1 PUSH1 0x0 DUP2 EQ PUSH2 0x1714 JUMPI PUSH1 0x40 MLOAD SWAP2 POP PUSH1 0x1F NOT PUSH1 0x3F RETURNDATASIZE ADD AND DUP3 ADD PUSH1 0x40 MSTORE RETURNDATASIZE DUP3 MSTORE RETURNDATASIZE PUSH1 0x0 PUSH1 0x20 DUP5 ADD RETURNDATACOPY PUSH2 0x1719 JUMP JUMPDEST PUSH1 0x60 SWAP2 POP JUMPDEST POP PUSH1 0x0 DUP2 MLOAD SUB PUSH2 0x1760 JUMPI DUP4 PUSH1 0x40 MLOAD PUSH32 0x64A0AE9200000000000000000000000000000000000000000000000000000000 DUP2 MSTORE PUSH1 0x4 ADD PUSH2 0x1757 SWAP2 SWAP1 PUSH2 0x2A53 JUMP JUMPDEST PUSH1 0x40 MLOAD DUP1 SWAP2 SUB SWAP1 REVERT JUMPDEST DUP1 MLOAD PUSH1 0x20 DUP3 ADD REVERT JUMPDEST PUSH4 0x150B7A02 PUSH1 0xE0 SHL PUSH28 0xFFFFFFFFFFFFFFFFFFFFFFFFFFFFFFFFFFFFFFFFFFFFFFFFFFFFFFFF NOT AND DUP2 PUSH28 0xFFFFFFFFFFFFFFFFFFFFFFFFFFFFFFFFFFFFFFFFFFFFFFFFFFFFFFFF NOT AND EQ PUSH2 0x17F1 JUMPI DUP4 PUSH1 0x40 MLOAD PUSH32 0x64A0AE9200000000000000000000000000000000000000000000000000000000 DUP2 MSTORE PUSH1 0x4 ADD PUSH2 0x17E8 SWAP2 SWAP1 PUSH2 0x2A53 JUMP JUMPDEST PUSH1 0x40 MLOAD DUP1 SWAP2 SUB SWAP1 REVERT JUMPDEST POP JUMPDEST POP POP POP POP POP JUMP JUMPDEST PUSH1 0x60 PUSH1 0x1 PUSH1 0x2 DUP2 GT ISZERO PUSH2 0x1810 JUMPI PUSH2 0x180F PUSH2 0x2B57 JUMP JUMPDEST JUMPDEST DUP3 PUSH1 0x2 DUP2 GT ISZERO PUSH2 0x1823 JUMPI PUSH2 0x1822 PUSH2 0x2B57 JUMP JUMPDEST JUMPDEST SUB PUSH2 0x1865 JUMPI PUSH1 0x40 MLOAD DUP1 PUSH1 0x40 ADD PUSH1 0x40 MSTORE DUP1 PUSH1 0x4 DUP2 MSTORE PUSH1 0x20 ADD PUSH32 0x7261726500000000000000000000000000000000000000000000000000000000 DUP2 MSTORE POP SWAP1 POP PUSH2 0x1906 JUMP JUMPDEST PUSH1 0x2 DUP1 DUP2 GT ISZERO PUSH2 0x1878 JUMPI PUSH2 0x1877 PUSH2 0x2B57 JUMP JUMPDEST JUMPDEST DUP3 PUSH1 0x2 DUP2 GT ISZERO PUSH2 0x188B JUMPI PUSH2 0x188A PUSH2 0x2B57 JUMP JUMPDEST JUMPDEST SUB PUSH2 0x18CD JUMPI PUSH1 0x40 MLOAD DUP1 PUSH1 0x40 ADD PUSH1 0x40 MSTORE DUP1 PUSH1 0x4 DUP2 MSTORE PUSH1 0x20 ADD PUSH32 0x6570696300000000000000000000000000000000000000000000000000000000 DUP2 MSTORE POP SWAP1 POP PUSH2 0x1906 JUMP JUMPDEST PUSH1 0x40 MLOAD DUP1 PUSH1 0x40 ADD PUSH1 0x40 MSTORE DUP1 PUSH1 0x6 DUP2 MSTORE PUSH1 0x20 ADD PUSH32 0x6E6F726D616C0000000000000000000000000000000000000000000000000000 DUP2 MSTORE POP SWAP1 POP JUMPDEST SWAP2 SWAP1 POP JUMP JUMPDEST PUSH1 0x60 PUSH1 0x1 PUSH1 0x2 DUP2 GT ISZERO PUSH2 0x1921 JUMPI PUSH2 0x1920 PUSH2 0x2B57 JUMP JUMPDEST JUMPDEST DUP3 PUSH1 0x2 DUP2 GT ISZERO PUSH2 0x1934 JUMPI PUSH2 0x1933 PUSH2 0x2B57 JUMP JUMPDEST JUMPDEST SUB PUSH2 0x1976 JUMPI PUSH1 0x40 MLOAD DUP1 PUSH1 0x40 ADD PUSH1 0x40 MSTORE DUP1 PUSH1 0x4 DUP2 MSTORE PUSH1 0x20 ADD PUSH32 0x5261726500000000000000000000000000000000000000000000000000000000 DUP2 MSTORE POP SWAP1 POP PUSH2 0x1A17 JUMP JUMPDEST PUSH1 0x2 DUP1 DUP2 GT ISZERO PUSH2 0x1989 JUMPI PUSH2 0x1988 PUSH2 0x2B57 JUMP JUMPDEST JUMPDEST DUP3 PUSH1 0x2 DUP2 GT ISZERO PUSH2 0x199C JUMPI PUSH2 0x199B PUSH2 0x2B57 JUMP JUMPDEST JUMPDEST SUB PUSH2 0x19DE JUMPI PUSH1 0x40 MLOAD DUP1 PUSH1 0x40 ADD PUSH1 0x40 MSTORE DUP1 PUSH1 0x4 DUP2 MSTORE PUSH1 0x20 ADD PUSH32 0x4570696300000000000000000000000000000000000000000000000000000000 DUP2 MSTORE POP SWAP1 POP PUSH2 0x1A17 JUMP JUMPDEST PUSH1 0x40 MLOAD DUP1 PUSH1 0x40 ADD PUSH1 0x40 MSTORE DUP1 PUSH1 0x6 DUP2 MSTORE PUSH1 0x20 ADD PUSH32 0x4E6F726D616C0000000000000000000000000000000000000000000000000000 DUP2 MSTORE POP SWAP1 POP JUMPDEST SWAP2 SWAP1 POP JUMP JUMPDEST PUSH1 0x60 PUSH1 0x0 PUSH1 0x1 PUSH2 0x1A2B DUP5 PUSH2 0x22C9 JUMP JUMPDEST ADD SWAP1 POP PUSH1 0x0 DUP2 PUSH8 0xFFFFFFFFFFFFFFFF DUP2 GT ISZERO PUSH2 0x1A4A JUMPI PUSH2 0x1A49 PUSH2 0x2D39 JUMP JUMPDEST JUMPDEST PUSH1 0x40 MLOAD SWAP1 DUP1 DUP3 MSTORE DUP1 PUSH1 0x1F ADD PUSH1 0x1F NOT AND PUSH1 0x20 ADD DUP3 ADD PUSH1 0x40 MSTORE DUP1 ISZERO PUSH2 0x1A7C JUMPI DUP2 PUSH1 0x20 ADD PUSH1 0x1 DUP3 MUL DUP1 CALLDATASIZE DUP4 CALLDATACOPY DUP1 DUP3 ADD SWAP2 POP POP SWAP1 POP JUMPDEST POP SWAP1 POP PUSH1 0x0 DUP3 PUSH1 0x20 DUP4 ADD ADD SWAP1 POP JUMPDEST PUSH1 0x1 ISZERO PUSH2 0x1ADF JUMPI DUP1 DUP1 PUSH1 0x1 SWAP1 SUB SWAP2 POP POP PUSH32 0x3031323334353637383961626364656600000000000000000000000000000000 PUSH1 0xA DUP7 MOD BYTE DUP2 MSTORE8 PUSH1 0xA DUP6 DUP2 PUSH2 0x1AD3 JUMPI PUSH2 0x1AD2 PUSH2 0x3121 JUMP JUMPDEST JUMPDEST DIV SWAP5 POP PUSH1 0x0 DUP6 SUB PUSH2 0x1A8A JUMPI JUMPDEST DUP2 SWAP4 POP POP POP POP SWAP2 SWAP1 POP JUMP JUMPDEST PUSH1 0x60 PUSH1 0x0 DUP3 SLT PUSH2 0x1B23 JUMPI PUSH2 0x1AFD DUP3 PUSH2 0x1A1C JUMP JUMPDEST PUSH1 0x40 MLOAD PUSH1 0x20 ADD PUSH2 0x1B0D SWAP2 SWAP1 PUSH2 0x3E5D JUMP JUMPDEST PUSH1 0x40 MLOAD PUSH1 0x20 DUP2 DUP4 SUB SUB DUP2 MSTORE SWAP1 PUSH1 0x40 MSTORE SWAP1 POP PUSH2 0x1B5D JUMP JUMPDEST PUSH1 0x0 DUP3 PUSH2 0x1B2F SWAP1 PUSH2 0x3E7F JUMP JUMPDEST SWAP1 POP PUSH2 0x1B3A DUP2 PUSH2 0x1A1C JUMP JUMPDEST PUSH1 0x40 MLOAD PUSH1 0x20 ADD PUSH2 0x1B4A SWAP2 SWAP1 PUSH2 0x3F13 JUMP JUMPDEST PUSH1 0x40 MLOAD PUSH1 0x20 DUP2 DUP4 SUB SUB DUP2 MSTORE SWAP1 PUSH1 0x40 MSTORE SWAP2 POP POP JUMPDEST SWAP2 SWAP1 POP JUMP JUMPDEST PUSH1 0x60 PUSH2 0x1B88 DUP3 PUSH1 0x40 MLOAD DUP1 PUSH1 0x60 ADD PUSH1 0x40 MSTORE DUP1 PUSH1 0x40 DUP2 MSTORE PUSH1 0x20 ADD PUSH2 0x4040 PUSH1 0x40 SWAP2 CODECOPY PUSH1 0x1 PUSH2 0x241C JUMP JUMPDEST SWAP1 POP SWAP2 SWAP1 POP JUMP JUMPDEST PUSH1 0x0 PUSH32 0x1FFC9A700000000000000000000000000000000000000000000000000000000 PUSH28 0xFFFFFFFFFFFFFFFFFFFFFFFFFFFFFFFFFFFFFFFFFFFFFFFFFFFFFFFF NOT AND DUP3 PUSH28 0xFFFFFFFFFFFFFFFFFFFFFFFFFFFFFFFFFFFFFFFFFFFFFFFFFFFFFFFF NOT AND EQ SWAP1 POP SWAP2 SWAP1 POP JUMP JUMPDEST PUSH1 0x0 PUSH1 0x2 PUSH1 0x0 DUP4 DUP2 MSTORE PUSH1 0x20 ADD SWAP1 DUP2 MSTORE PUSH1 0x20 ADD PUSH1 0x0 KECCAK256 PUSH1 0x0 SWAP1 SLOAD SWAP1 PUSH2 0x100 EXP SWAP1 DIV PUSH20 0xFFFFFFFFFFFFFFFFFFFFFFFFFFFFFFFFFFFFFFFF AND SWAP1 POP SWAP2 SWAP1 POP JUMP JUMPDEST DUP1 DUP1 PUSH2 0x1C6F JUMPI POP PUSH1 0x0 PUSH20 0xFFFFFFFFFFFFFFFFFFFFFFFFFFFFFFFFFFFFFFFF AND DUP3 PUSH20 0xFFFFFFFFFFFFFFFFFFFFFFFFFFFFFFFFFFFFFFFF AND EQ ISZERO JUMPDEST ISZERO PUSH2 0x1DA3 JUMPI PUSH1 0x0 PUSH2 0x1C7F DUP5 PUSH2 0x1173 JUMP JUMPDEST SWAP1 POP PUSH1 0x0 PUSH20 0xFFFFFFFFFFFFFFFFFFFFFFFFFFFFFFFFFFFFFFFF AND DUP4 PUSH20 0xFFFFFFFFFFFFFFFFFFFFFFFFFFFFFFFFFFFFFFFF AND EQ ISZERO DUP1 ISZERO PUSH2 0x1CEA JUMPI POP DUP3 PUSH20 0xFFFFFFFFFFFFFFFFFFFFFFFFFFFFFFFFFFFFFFFF AND DUP2 PUSH20 0xFFFFFFFFFFFFFFFFFFFFFFFFFFFFFFFFFFFFFFFF AND EQ ISZERO JUMPDEST DUP1 ISZERO PUSH2 0x1CFD JUMPI POP PUSH2 0x1CFB DUP2 DUP5 PUSH2 0xF51 JUMP JUMPDEST ISZERO JUMPDEST ISZERO PUSH2 0x1D3F JUMPI DUP3 PUSH1 0x40 MLOAD PUSH32 0xA9FBF51F00000000000000000000000000000000000000000000000000000000 DUP2 MSTORE PUSH1 0x4 ADD PUSH2 0x1D36 SWAP2 SWAP1 PUSH2 0x2A53 JUMP JUMPDEST PUSH1 0x40 MLOAD DUP1 SWAP2 SUB SWAP1 REVERT JUMPDEST DUP2 ISZERO PUSH2 0x1DA1 JUMPI DUP4 DUP6 PUSH20 0xFFFFFFFFFFFFFFFFFFFFFFFFFFFFFFFFFFFFFFFF AND DUP3 PUSH20 0xFFFFFFFFFFFFFFFFFFFFFFFFFFFFFFFFFFFFFFFF AND PUSH32 0x8C5BE1E5EBEC7D5BD14F71427D1E84F3DD0314C0F7B2291E5B200AC8C7C3B925 PUSH1 0x40 MLOAD PUSH1 0x40 MLOAD DUP1 SWAP2 SUB SWAP1 LOG4 JUMPDEST POP JUMPDEST DUP4 PUSH1 0x4 PUSH1 0x0 DUP6 DUP2 MSTORE PUSH1 0x20 ADD SWAP1 DUP2 MSTORE PUSH1 0x20 ADD PUSH1 0x0 KECCAK256 PUSH1 0x0 PUSH2 0x100 EXP DUP2 SLOAD DUP2 PUSH20 0xFFFFFFFFFFFFFFFFFFFFFFFFFFFFFFFFFFFFFFFF MUL NOT AND SWAP1 DUP4 PUSH20 0xFFFFFFFFFFFFFFFFFFFFFFFFFFFFFFFFFFFFFFFF AND MUL OR SWAP1 SSTORE POP POP POP POP POP JUMP JUMPDEST PUSH2 0x1E05 DUP4 DUP4 PUSH2 0x25B0 JUMP JUMPDEST PUSH2 0x1E1A PUSH2 0x1E10 PUSH2 0x1238 JUMP JUMPDEST PUSH1 0x0 DUP6 DUP6 DUP6 PUSH2 0x1649 JUMP JUMPDEST POP POP POP JUMP JUMPDEST PUSH1 0x0 DUP1 PUSH2 0x1E2B DUP5 PUSH2 0x1BF9 JUMP JUMPDEST SWAP1 POP PUSH1 0x0 PUSH20 0xFFFFFFFFFFFFFFFFFFFFFFFFFFFFFFFFFFFFFFFF AND DUP4 PUSH20 0xFFFFFFFFFFFFFFFFFFFFFFFFFFFFFFFFFFFFFFFF AND EQ PUSH2 0x1E6D JUMPI PUSH2 0x1E6C DUP2 DUP5 DUP7 PUSH2 0x26A9 JUMP JUMPDEST JUMPDEST PUSH1 0x0 PUSH20 0xFFFFFFFFFFFFFFFFFFFFFFFFFFFFFFFFFFFFFFFF AND DUP2 PUSH20 0xFFFFFFFFFFFFFFFFFFFFFFFFFFFFFFFFFFFFFFFF AND EQ PUSH2 0x1EFE JUMPI PUSH2 0x1EAF PUSH1 0x0 DUP6 PUSH1 0x0 DUP1 PUSH2 0x1C36 JUMP JUMPDEST PUSH1 0x1 PUSH1 0x3 PUSH1 0x0 DUP4 PUSH20 0xFFFFFFFFFFFFFFFFFFFFFFFFFFFFFFFFFFFFFFFF AND PUSH20 0xFFFFFFFFFFFFFFFFFFFFFFFFFFFFFFFFFFFFFFFF AND DUP2 MSTORE PUSH1 0x20 ADD SWAP1 DUP2 MSTORE PUSH1 0x20 ADD PUSH1 0x0 KECCAK256 PUSH1 0x0 DUP3 DUP3 SLOAD SUB SWAP3 POP POP DUP2 SWAP1 SSTORE POP JUMPDEST PUSH1 0x0 PUSH20 0xFFFFFFFFFFFFFFFFFFFFFFFFFFFFFFFFFFFFFFFF AND DUP6 PUSH20 0xFFFFFFFFFFFFFFFFFFFFFFFFFFFFFFFFFFFFFFFF AND EQ PUSH2 0x1F81 JUMPI PUSH1 0x1 PUSH1 0x3 PUSH1 0x0 DUP8 PUSH20 0xFFFFFFFFFFFFFFFFFFFFFFFFFFFFFFFFFFFFFFFF AND PUSH20 0xFFFFFFFFFFFFFFFFFFFFFFFFFFFFFFFFFFFFFFFF AND DUP2 MSTORE PUSH1 0x20 ADD SWAP1 DUP2 MSTORE PUSH1 0x20 ADD PUSH1 0x0 KECCAK256 PUSH1 0x0 DUP3 DUP3 SLOAD ADD SWAP3 POP POP DUP2 SWAP1 SSTORE POP JUMPDEST DUP5 PUSH1 0x2 PUSH1 0x0 DUP7 DUP2 MSTORE PUSH1 0x20 ADD SWAP1 DUP2 MSTORE PUSH1 0x20 ADD PUSH1 0x0 KECCAK256 PUSH1 0x0 PUSH2 0x100 EXP DUP2 SLOAD DUP2 PUSH20 0xFFFFFFFFFFFFFFFFFFFFFFFFFFFFFFFFFFFFFFFF MUL NOT AND SWAP1 DUP4 PUSH20 0xFFFFFFFFFFFFFFFFFFFFFFFFFFFFFFFFFFFFFFFF AND MUL OR SWAP1 SSTORE POP DUP4 DUP6 PUSH20 0xFFFFFFFFFFFFFFFFFFFFFFFFFFFFFFFFFFFFFFFF AND DUP3 PUSH20 0xFFFFFFFFFFFFFFFFFFFFFFFFFFFFFFFFFFFFFFFF AND PUSH32 0xDDF252AD1BE2C89B69C2B068FC378DAA952BA7F163C4A11628F55A4DF523B3EF PUSH1 0x40 MLOAD PUSH1 0x40 MLOAD DUP1 SWAP2 SUB SWAP1 LOG4 DUP1 SWAP2 POP POP SWAP4 SWAP3 POP POP POP JUMP JUMPDEST PUSH1 0x8 DUP1 SLOAD SWAP1 POP PUSH1 0x9 PUSH1 0x0 DUP4 DUP2 MSTORE PUSH1 0x20 ADD SWAP1 DUP2 MSTORE PUSH1 0x20 ADD PUSH1 0x0 KECCAK256 DUP2 SWAP1 SSTORE POP PUSH1 0x8 DUP2 SWAP1 DUP1 PUSH1 0x1 DUP2 SLOAD ADD DUP1 DUP3 SSTORE DUP1 SWAP2 POP POP PUSH1 0x1 SWAP1 SUB SWAP1 PUSH1 0x0 MSTORE PUSH1 0x20 PUSH1 0x0 KECCAK256 ADD PUSH1 0x0 SWAP1 SWAP2 SWAP1 SWAP2 SWAP1 SWAP2 POP SSTORE POP JUMP JUMPDEST PUSH1 0x0 PUSH2 0x208D DUP4 PUSH2 0x9BB JUMP JUMPDEST SWAP1 POP PUSH1 0x0 PUSH1 0x7 PUSH1 0x0 DUP5 DUP2 MSTORE PUSH1 0x20 ADD SWAP1 DUP2 MSTORE PUSH1 0x20 ADD PUSH1 0x0 KECCAK256 SLOAD SWAP1 POP PUSH1 0x0 PUSH1 0x6 PUSH1 0x0 DUP7 PUSH20 0xFFFFFFFFFFFFFFFFFFFFFFFFFFFFFFFFFFFFFFFF AND PUSH20 0xFFFFFFFFFFFFFFFFFFFFFFFFFFFFFFFFFFFFFFFF AND DUP2 MSTORE PUSH1 0x20 ADD SWAP1 DUP2 MSTORE PUSH1 0x20 ADD PUSH1 0x0 KECCAK256 SWAP1 POP DUP3 DUP3 EQ PUSH2 0x2139 JUMPI PUSH1 0x0 DUP2 PUSH1 0x0 DUP6 DUP2 MSTORE PUSH1 0x20 ADD SWAP1 DUP2 MSTORE PUSH1 0x20 ADD PUSH1 0x0 KECCAK256 SLOAD SWAP1 POP DUP1 DUP3 PUSH1 0x0 DUP6 DUP2 MSTORE PUSH1 0x20 ADD SWAP1 DUP2 MSTORE PUSH1 0x20 ADD PUSH1 0x0 KECCAK256 DUP2 SWAP1 SSTORE POP DUP3 PUSH1 0x7 PUSH1 0x0 DUP4 DUP2 MSTORE PUSH1 0x20 ADD SWAP1 DUP2 MSTORE PUSH1 0x20 ADD PUSH1 0x0 KECCAK256 DUP2 SWAP1 SSTORE POP POP JUMPDEST PUSH1 0x7 PUSH1 0x0 DUP6 DUP2 MSTORE PUSH1 0x20 ADD SWAP1 DUP2 MSTORE PUSH1 0x20 ADD PUSH1 0x0 KECCAK256 PUSH1 0x0 SWAP1 SSTORE DUP1 PUSH1 0x0 DUP5 DUP2 MSTORE PUSH1 0x20 ADD SWAP1 DUP2 MSTORE PUSH1 0x20 ADD PUSH1 0x0 KECCAK256 PUSH1 0x0 SWAP1 SSTORE POP POP POP POP POP JUMP JUMPDEST PUSH1 0x0 PUSH1 0x1 PUSH1 0x8 DUP1 SLOAD SWAP1 POP PUSH2 0x2181 SWAP2 SWAP1 PUSH2 0x3F35 JUMP JUMPDEST SWAP1 POP PUSH1 0x0 PUSH1 0x9 PUSH1 0x0 DUP5 DUP2 MSTORE PUSH1 0x20 ADD SWAP1 DUP2 MSTORE PUSH1 0x20 ADD PUSH1 0x0 KECCAK256 SLOAD SWAP1 POP PUSH1 0x0 PUSH1 0x8 DUP4 DUP2 SLOAD DUP2 LT PUSH2 0x21B1 JUMPI PUSH2 0x21B0 PUSH2 0x31E1 JUMP JUMPDEST JUMPDEST SWAP1 PUSH1 0x0 MSTORE PUSH1 0x20 PUSH1 0x0 KECCAK256 ADD SLOAD SWAP1 POP DUP1 PUSH1 0x8 DUP4 DUP2 SLOAD DUP2 LT PUSH2 0x21D3 JUMPI PUSH2 0x21D2 PUSH2 0x31E1 JUMP JUMPDEST JUMPDEST SWAP1 PUSH1 0x0 MSTORE PUSH1 0x20 PUSH1 0x0 KECCAK256 ADD DUP2 SWAP1 SSTORE POP DUP2 PUSH1 0x9 PUSH1 0x0 DUP4 DUP2 MSTORE PUSH1 0x20 ADD SWAP1 DUP2 MSTORE PUSH1 0x20 ADD PUSH1 0x0 KECCAK256 DUP2 SWAP1 SSTORE POP PUSH1 0x9 PUSH1 0x0 DUP6 DUP2 MSTORE PUSH1 0x20 ADD SWAP1 DUP2 MSTORE PUSH1 0x20 ADD PUSH1 0x0 KECCAK256 PUSH1 0x0 SWAP1 SSTORE PUSH1 0x8 DUP1 SLOAD DUP1 PUSH2 0x2222 JUMPI PUSH2 0x2221 PUSH2 0x3F69 JUMP JUMPDEST JUMPDEST PUSH1 0x1 SWAP1 SUB DUP2 DUP2 SWAP1 PUSH1 0x0 MSTORE PUSH1 0x20 PUSH1 0x0 KECCAK256 ADD PUSH1 0x0 SWAP1 SSTORE SWAP1 SSTORE POP POP POP POP JUMP JUMPDEST PUSH1 0x0 PUSH1 0x1 PUSH2 0x224B DUP5 PUSH2 0x9BB JUMP JUMPDEST PUSH2 0x2255 SWAP2 SWAP1 PUSH2 0x3F35 JUMP JUMPDEST SWAP1 POP DUP2 PUSH1 0x6 PUSH1 0x0 DUP6 PUSH20 0xFFFFFFFFFFFFFFFFFFFFFFFFFFFFFFFFFFFFFFFF AND PUSH20 0xFFFFFFFFFFFFFFFFFFFFFFFFFFFFFFFFFFFFFFFF AND DUP2 MSTORE PUSH1 0x20 ADD SWAP1 DUP2 MSTORE PUSH1 0x20 ADD PUSH1 0x0 KECCAK256 PUSH1 0x0 DUP4 DUP2 MSTORE PUSH1 0x20 ADD SWAP1 DUP2 MSTORE PUSH1 0x20 ADD PUSH1 0x0 KECCAK256 DUP2 SWAP1 SSTORE POP DUP1 PUSH1 0x7 PUSH1 0x0 DUP5 DUP2 MSTORE PUSH1 0x20 ADD SWAP1 DUP2 MSTORE PUSH1 0x20 ADD PUSH1 0x0 KECCAK256 DUP2 SWAP1 SSTORE POP POP POP POP JUMP JUMPDEST PUSH1 0x0 DUP1 PUSH1 0x0 SWAP1 POP PUSH27 0x184F03E93FF9F4DAA797ED6E38ED64BF6A1F010000000000000000 DUP4 LT PUSH2 0x2327 JUMPI PUSH27 0x184F03E93FF9F4DAA797ED6E38ED64BF6A1F010000000000000000 DUP4 DUP2 PUSH2 0x231D JUMPI PUSH2 0x231C PUSH2 0x3121 JUMP JUMPDEST JUMPDEST DIV SWAP3 POP PUSH1 0x40 DUP2 ADD SWAP1 POP JUMPDEST PUSH14 0x4EE2D6D415B85ACEF8100000000 DUP4 LT PUSH2 0x2364 JUMPI PUSH14 0x4EE2D6D415B85ACEF8100000000 DUP4 DUP2 PUSH2 0x235A JUMPI PUSH2 0x2359 PUSH2 0x3121 JUMP JUMPDEST JUMPDEST DIV SWAP3 POP PUSH1 0x20 DUP2 ADD SWAP1 POP JUMPDEST PUSH7 0x2386F26FC10000 DUP4 LT PUSH2 0x2393 JUMPI PUSH7 0x2386F26FC10000 DUP4 DUP2 PUSH2 0x2389 JUMPI PUSH2 0x2388 PUSH2 0x3121 JUMP JUMPDEST JUMPDEST DIV SWAP3 POP PUSH1 0x10 DUP2 ADD SWAP1 POP JUMPDEST PUSH4 0x5F5E100 DUP4 LT PUSH2 0x23BC JUMPI PUSH4 0x5F5E100 DUP4 DUP2 PUSH2 0x23B2 JUMPI PUSH2 0x23B1 PUSH2 0x3121 JUMP JUMPDEST JUMPDEST DIV SWAP3 POP PUSH1 0x8 DUP2 ADD SWAP1 POP JUMPDEST PUSH2 0x2710 DUP4 LT PUSH2 0x23E1 JUMPI PUSH2 0x2710 DUP4 DUP2 PUSH2 0x23D7 JUMPI PUSH2 0x23D6 PUSH2 0x3121 JUMP JUMPDEST JUMPDEST DIV SWAP3 POP PUSH1 0x4 DUP2 ADD SWAP1 POP JUMPDEST PUSH1 0x64 DUP4 LT PUSH2 0x2404 JUMPI PUSH1 0x64 DUP4 DUP2 PUSH2 0x23FA JUMPI PUSH2 0x23F9 PUSH2 0x3121 JUMP JUMPDEST JUMPDEST DIV SWAP3 POP PUSH1 0x2 DUP2 ADD SWAP1 POP JUMPDEST PUSH1 0xA DUP4 LT PUSH2 0x2413 JUMPI PUSH1 0x1 DUP2 ADD SWAP1 POP JUMPDEST DUP1 SWAP2 POP POP SWAP2 SWAP1 POP JUMP JUMPDEST PUSH1 0x60 PUSH1 0x0 DUP5 MLOAD SUB PUSH2 0x243E JUMPI PUSH1 0x40 MLOAD DUP1 PUSH1 0x20 ADD PUSH1 0x40 MSTORE DUP1 PUSH1 0x0 DUP2 MSTORE POP SWAP1 POP PUSH2 0x25A9 JUMP JUMPDEST PUSH1 0x0 DUP3 PUSH2 0x2470 JUMPI PUSH1 0x3 PUSH1 0x2 DUP7 MLOAD PUSH1 0x4 PUSH2 0x2457 SWAP2 SWAP1 PUSH2 0x3F98 JUMP JUMPDEST PUSH2 0x2461 SWAP2 SWAP1 PUSH2 0x3FDA JUMP JUMPDEST PUSH2 0x246B SWAP2 SWAP1 PUSH2 0x400E JUMP JUMPDEST PUSH2 0x2497 JUMP JUMPDEST PUSH1 0x3 PUSH1 0x2 DUP7 MLOAD PUSH2 0x2480 SWAP2 SWAP1 PUSH2 0x3FDA JUMP JUMPDEST PUSH2 0x248A SWAP2 SWAP1 PUSH2 0x400E JUMP JUMPDEST PUSH1 0x4 PUSH2 0x2496 SWAP2 SWAP1 PUSH2 0x3F98 JUMP JUMPDEST JUMPDEST SWAP1 POP PUSH1 0x0 DUP2 PUSH8 0xFFFFFFFFFFFFFFFF DUP2 GT ISZERO PUSH2 0x24B5 JUMPI PUSH2 0x24B4 PUSH2 0x2D39 JUMP JUMPDEST JUMPDEST PUSH1 0x40 MLOAD SWAP1 DUP1 DUP3 MSTORE DUP1 PUSH1 0x1F ADD PUSH1 0x1F NOT AND PUSH1 0x20 ADD DUP3 ADD PUSH1 0x40 MSTORE DUP1 ISZERO PUSH2 0x24E7 JUMPI DUP2 PUSH1 0x20 ADD PUSH1 0x1 DUP3 MUL DUP1 CALLDATASIZE DUP4 CALLDATACOPY DUP1 DUP3 ADD SWAP2 POP POP SWAP1 POP JUMPDEST POP SWAP1 POP PUSH1 0x1 DUP6 ADD PUSH1 0x20 DUP3 ADD DUP8 DUP9 MLOAD DUP10 ADD PUSH1 0x20 DUP2 ADD DUP1 MLOAD PUSH1 0x0 DUP3 MSTORE JUMPDEST DUP3 DUP5 LT ISZERO PUSH2 0x255D JUMPI PUSH1 0x3 DUP5 ADD SWAP4 POP DUP4 MLOAD PUSH1 0x3F DUP2 PUSH1 0x12 SHR AND DUP8 ADD MLOAD DUP7 MSTORE8 PUSH1 0x1 DUP7 ADD SWAP6 POP PUSH1 0x3F DUP2 PUSH1 0xC SHR AND DUP8 ADD MLOAD DUP7 MSTORE8 PUSH1 0x1 DUP7 ADD SWAP6 POP PUSH1 0x3F DUP2 PUSH1 0x6 SHR AND DUP8 ADD MLOAD DUP7 MSTORE8 PUSH1 0x1 DUP7 ADD SWAP6 POP PUSH1 0x3F DUP2 AND DUP8 ADD MLOAD DUP7 MSTORE8 PUSH1 0x1 DUP7 ADD SWAP6 POP POP PUSH2 0x2502 JUMP JUMPDEST DUP1 DUP3 MSTORE DUP10 ISZERO PUSH2 0x259D JUMPI PUSH1 0x3 DUP13 MLOAD MOD PUSH1 0x1 DUP2 EQ PUSH2 0x2580 JUMPI PUSH1 0x2 DUP2 EQ PUSH2 0x2593 JUMPI PUSH2 0x259B JUMP JUMPDEST PUSH1 0x3D PUSH1 0x1 DUP8 SUB MSTORE8 PUSH1 0x3D PUSH1 0x2 DUP8 SUB MSTORE8 PUSH2 0x259B JUMP JUMPDEST PUSH1 0x3D PUSH1 0x1 DUP8 SUB MSTORE8 JUMPDEST POP JUMPDEST POP POP POP POP POP POP DUP1 SWAP3 POP POP POP JUMPDEST SWAP4 SWAP3 POP POP POP JUMP JUMPDEST PUSH1 0x0 PUSH20 0xFFFFFFFFFFFFFFFFFFFFFFFFFFFFFFFFFFFFFFFF AND DUP3 PUSH20 0xFFFFFFFFFFFFFFFFFFFFFFFFFFFFFFFFFFFFFFFF AND SUB PUSH2 0x2622 JUMPI PUSH1 0x0 PUSH1 0x40 MLOAD PUSH32 0x64A0AE9200000000000000000000000000000000000000000000000000000000 DUP2 MSTORE PUSH1 0x4 ADD PUSH2 0x2619 SWAP2 SWAP1 PUSH2 0x2A53 JUMP JUMPDEST PUSH1 0x40 MLOAD DUP1 SWAP2 SUB SWAP1 REVERT JUMPDEST PUSH1 0x0 PUSH2 0x2630 DUP4 DUP4 PUSH1 0x0 PUSH2 0x1270 JUMP JUMPDEST SWAP1 POP PUSH1 0x0 PUSH20 0xFFFFFFFFFFFFFFFFFFFFFFFFFFFFFFFFFFFFFFFF AND DUP2 PUSH20 0xFFFFFFFFFFFFFFFFFFFFFFFFFFFFFFFFFFFFFFFF AND EQ PUSH2 0x26A4 JUMPI PUSH1 0x0 PUSH1 0x40 MLOAD PUSH32 0x73C6AC6E00000000000000000000000000000000000000000000000000000000 DUP2 MSTORE PUSH1 0x4 ADD PUSH2 0x269B SWAP2 SWAP1 PUSH2 0x2A53 JUMP JUMPDEST PUSH1 0x40 MLOAD DUP1 SWAP2 SUB SWAP1 REVERT JUMPDEST POP POP POP JUMP JUMPDEST PUSH2 0x26B4 DUP4 DUP4 DUP4 PUSH2 0x276D JUMP JUMPDEST PUSH2 0x2768 JUMPI PUSH1 0x0 PUSH20 0xFFFFFFFFFFFFFFFFFFFFFFFFFFFFFFFFFFFFFFFF AND DUP4 PUSH20 0xFFFFFFFFFFFFFFFFFFFFFFFFFFFFFFFFFFFFFFFF AND SUB PUSH2 0x2729 JUMPI DUP1 PUSH1 0x40 MLOAD PUSH32 0x7E27328900000000000000000000000000000000000000000000000000000000 DUP2 MSTORE PUSH1 0x4 ADD PUSH2 0x2720 SWAP2 SWAP1 PUSH2 0x2AE9 JUMP JUMPDEST PUSH1 0x40 MLOAD DUP1 SWAP2 SUB SWAP1 REVERT JUMPDEST DUP2 DUP2 PUSH1 0x40 MLOAD PUSH32 0x177E802F00000000000000000000000000000000000000000000000000000000 DUP2 MSTORE PUSH1 0x4 ADD PUSH2 0x275F SWAP3 SWAP2 SWAP1 PUSH2 0x31B8 JUMP JUMPDEST PUSH1 0x40 MLOAD DUP1 SWAP2 SUB SWAP1 REVERT JUMPDEST POP POP POP JUMP JUMPDEST PUSH1 0x0 DUP1 PUSH20 0xFFFFFFFFFFFFFFFFFFFFFFFFFFFFFFFFFFFFFFFF AND DUP4 PUSH20 0xFFFFFFFFFFFFFFFFFFFFFFFFFFFFFFFFFFFFFFFF AND EQ ISZERO DUP1 ISZERO PUSH2 0x2825 JUMPI POP DUP3 PUSH20 0xFFFFFFFFFFFFFFFFFFFFFFFFFFFFFFFFFFFFFFFF AND DUP5 PUSH20 0xFFFFFFFFFFFFFFFFFFFFFFFFFFFFFFFFFFFFFFFF AND EQ DUP1 PUSH2 0x27E6 JUMPI POP PUSH2 0x27E5 DUP5 DUP5 PUSH2 0xF51 JUMP JUMPDEST JUMPDEST DUP1 PUSH2 0x2824 JUMPI POP DUP3 PUSH20 0xFFFFFFFFFFFFFFFFFFFFFFFFFFFFFFFFFFFFFFFF AND PUSH2 0x280C DUP4 PUSH2 0x11FB JUMP JUMPDEST PUSH20 0xFFFFFFFFFFFFFFFFFFFFFFFFFFFFFFFFFFFFFFFF AND EQ JUMPDEST JUMPDEST SWAP1 POP SWAP4 SWAP3 POP POP POP JUMP JUMPDEST PUSH1 0x0 PUSH1 0x40 MLOAD SWAP1 POP SWAP1 JUMP JUMPDEST PUSH1 0x0 DUP1 REVERT JUMPDEST PUSH1 0x0 DUP1 REVERT JUMPDEST PUSH1 0x0 PUSH32 0xFFFFFFFF00000000000000000000000000000000000000000000000000000000 DUP3 AND SWAP1 POP SWAP2 SWAP1 POP JUMP JUMPDEST PUSH2 0x2877 DUP2 PUSH2 0x2842 JUMP JUMPDEST DUP2 EQ PUSH2 0x2882 JUMPI PUSH1 0x0 DUP1 REVERT JUMPDEST POP JUMP JUMPDEST PUSH1 0x0 DUP2 CALLDATALOAD SWAP1 POP PUSH2 0x2894 DUP2 PUSH2 0x286E JUMP JUMPDEST SWAP3 SWAP2 POP POP JUMP JUMPDEST PUSH1 0x0 PUSH1 0x20 DUP3 DUP5 SUB SLT ISZERO PUSH2 0x28B0 JUMPI PUSH2 0x28AF PUSH2 0x2838 JUMP JUMPDEST JUMPDEST PUSH1 0x0 PUSH2 0x28BE DUP5 DUP3 DUP6 ADD PUSH2 0x2885 JUMP JUMPDEST SWAP2 POP POP SWAP3 SWAP2 POP POP JUMP JUMPDEST PUSH1 0x0 DUP2 ISZERO ISZERO SWAP1 POP SWAP2 SWAP1 POP JUMP JUMPDEST PUSH2 0x28DC DUP2 PUSH2 0x28C7 JUMP JUMPDEST DUP3 MSTORE POP POP JUMP JUMPDEST PUSH1 0x0 PUSH1 0x20 DUP3 ADD SWAP1 POP PUSH2 0x28F7 PUSH1 0x0 DUP4 ADD DUP5 PUSH2 0x28D3 JUMP JUMPDEST SWAP3 SWAP2 POP POP JUMP JUMPDEST PUSH1 0x0 DUP2 MLOAD SWAP1 POP SWAP2 SWAP1 POP JUMP JUMPDEST PUSH1 0x0 DUP3 DUP3 MSTORE PUSH1 0x20 DUP3 ADD SWAP1 POP SWAP3 SWAP2 POP POP JUMP JUMPDEST PUSH1 0x0 JUMPDEST DUP4 DUP2 LT ISZERO PUSH2 0x2937 JUMPI DUP1 DUP3 ADD MLOAD DUP2 DUP5 ADD MSTORE PUSH1 0x20 DUP2 ADD SWAP1 POP PUSH2 0x291C JUMP JUMPDEST PUSH1 0x0 DUP5 DUP5 ADD MSTORE POP POP POP POP JUMP JUMPDEST PUSH1 0x0 PUSH1 0x1F NOT PUSH1 0x1F DUP4 ADD AND SWAP1 POP SWAP2 SWAP1 POP JUMP JUMPDEST PUSH1 0x0 PUSH2 0x295F DUP3 PUSH2 0x28FD JUMP JUMPDEST PUSH2 0x2969 DUP2 DUP6 PUSH2 0x2908 JUMP JUMPDEST SWAP4 POP PUSH2 0x2979 DUP2 DUP6 PUSH1 0x20 DUP7 ADD PUSH2 0x2919 JUMP JUMPDEST PUSH2 0x2982 DUP2 PUSH2 0x2943 JUMP JUMPDEST DUP5 ADD SWAP2 POP POP SWAP3 SWAP2 POP POP JUMP JUMPDEST PUSH1 0x0 PUSH1 0x20 DUP3 ADD SWAP1 POP DUP2 DUP2 SUB PUSH1 0x0 DUP4 ADD MSTORE PUSH2 0x29A7 DUP2 DUP5 PUSH2 0x2954 JUMP JUMPDEST SWAP1 POP SWAP3 SWAP2 POP POP JUMP JUMPDEST PUSH1 0x0 DUP2 SWAP1 POP SWAP2 SWAP1 POP JUMP JUMPDEST PUSH2 0x29C2 DUP2 PUSH2 0x29AF JUMP JUMPDEST DUP2 EQ PUSH2 0x29CD JUMPI PUSH1 0x0 DUP1 REVERT JUMPDEST POP JUMP JUMPDEST PUSH1 0x0 DUP2 CALLDATALOAD SWAP1 POP PUSH2 0x29DF DUP2 PUSH2 0x29B9 JUMP JUMPDEST SWAP3 SWAP2 POP POP JUMP JUMPDEST PUSH1 0x0 PUSH1 0x20 DUP3 DUP5 SUB SLT ISZERO PUSH2 0x29FB JUMPI PUSH2 0x29FA PUSH2 0x2838 JUMP JUMPDEST JUMPDEST PUSH1 0x0 PUSH2 0x2A09 DUP5 DUP3 DUP6 ADD PUSH2 0x29D0 JUMP JUMPDEST SWAP2 POP POP SWAP3 SWAP2 POP POP JUMP JUMPDEST PUSH1 0x0 PUSH20 0xFFFFFFFFFFFFFFFFFFFFFFFFFFFFFFFFFFFFFFFF DUP3 AND SWAP1 POP SWAP2 SWAP1 POP JUMP JUMPDEST PUSH1 0x0 PUSH2 0x2A3D DUP3 PUSH2 0x2A12 JUMP JUMPDEST SWAP1 POP SWAP2 SWAP1 POP JUMP JUMPDEST PUSH2 0x2A4D DUP2 PUSH2 0x2A32 JUMP JUMPDEST DUP3 MSTORE POP POP JUMP JUMPDEST PUSH1 0x0 PUSH1 0x20 DUP3 ADD SWAP1 POP PUSH2 0x2A68 PUSH1 0x0 DUP4 ADD DUP5 PUSH2 0x2A44 JUMP JUMPDEST SWAP3 SWAP2 POP POP JUMP JUMPDEST PUSH2 0x2A77 DUP2 PUSH2 0x2A32 JUMP JUMPDEST DUP2 EQ PUSH2 0x2A82 JUMPI PUSH1 0x0 DUP1 REVERT JUMPDEST POP JUMP JUMPDEST PUSH1 0x0 DUP2 CALLDATALOAD SWAP1 POP PUSH2 0x2A94 DUP2 PUSH2 0x2A6E JUMP JUMPDEST SWAP3 SWAP2 POP POP JUMP JUMPDEST PUSH1 0x0 DUP1 PUSH1 0x40 DUP4 DUP6 SUB SLT ISZERO PUSH2 0x2AB1 JUMPI PUSH2 0x2AB0 PUSH2 0x2838 JUMP JUMPDEST JUMPDEST PUSH1 0x0 PUSH2 0x2ABF DUP6 DUP3 DUP7 ADD PUSH2 0x2A85 JUMP JUMPDEST SWAP3 POP POP PUSH1 0x20 PUSH2 0x2AD0 DUP6 DUP3 DUP7 ADD PUSH2 0x29D0 JUMP JUMPDEST SWAP2 POP POP SWAP3 POP SWAP3 SWAP1 POP JUMP JUMPDEST PUSH2 0x2AE3 DUP2 PUSH2 0x29AF JUMP JUMPDEST DUP3 MSTORE POP POP JUMP JUMPDEST PUSH1 0x0 PUSH1 0x20 DUP3 ADD SWAP1 POP PUSH2 0x2AFE PUSH1 0x0 DUP4 ADD DUP5 PUSH2 0x2ADA JUMP JUMPDEST SWAP3 SWAP2 POP POP JUMP JUMPDEST PUSH1 0x0 DUP1 PUSH1 0x0 PUSH1 0x60 DUP5 DUP7 SUB SLT ISZERO PUSH2 0x2B1D JUMPI PUSH2 0x2B1C PUSH2 0x2838 JUMP JUMPDEST JUMPDEST PUSH1 0x0 PUSH2 0x2B2B DUP7 DUP3 DUP8 ADD PUSH2 0x2A85 JUMP JUMPDEST SWAP4 POP POP PUSH1 0x20 PUSH2 0x2B3C DUP7 DUP3 DUP8 ADD PUSH2 0x2A85 JUMP JUMPDEST SWAP3 POP POP PUSH1 0x40 PUSH2 0x2B4D DUP7 DUP3 DUP8 ADD PUSH2 0x29D0 JUMP JUMPDEST SWAP2 POP POP SWAP3 POP SWAP3 POP SWAP3 JUMP JUMPDEST PUSH32 0x4E487B7100000000000000000000000000000000000000000000000000000000 PUSH1 0x0 MSTORE PUSH1 0x21 PUSH1 0x4 MSTORE PUSH1 0x24 PUSH1 0x0 REVERT JUMPDEST PUSH1 0x3 DUP2 LT PUSH2 0x2B97 JUMPI PUSH2 0x2B96 PUSH2 0x2B57 JUMP JUMPDEST JUMPDEST POP JUMP JUMPDEST PUSH1 0x0 DUP2 SWAP1 POP PUSH2 0x2BA8 DUP3 PUSH2 0x2B86 JUMP JUMPDEST SWAP2 SWAP1 POP JUMP JUMPDEST PUSH1 0x0 PUSH2 0x2BB8 DUP3 PUSH2 0x2B9A JUMP JUMPDEST SWAP1 POP SWAP2 SWAP1 POP JUMP JUMPDEST PUSH2 0x2BC8 DUP2 PUSH2 0x2BAD JUMP JUMPDEST DUP3 MSTORE POP POP JUMP JUMPDEST PUSH1 0x0 PUSH1 0x20 DUP3 ADD SWAP1 POP PUSH2 0x2BE3 PUSH1 0x0 DUP4 ADD DUP5 PUSH2 0x2BBF JUMP JUMPDEST SWAP3 SWAP2 POP POP JUMP JUMPDEST PUSH1 0x0 PUSH1 0x20 DUP3 DUP5 SUB SLT ISZERO PUSH2 0x2BFF JUMPI PUSH2 0x2BFE PUSH2 0x2838 JUMP JUMPDEST JUMPDEST PUSH1 0x0 PUSH2 0x2C0D DUP5 DUP3 DUP6 ADD PUSH2 0x2A85 JUMP JUMPDEST SWAP2 POP POP SWAP3 SWAP2 POP POP JUMP JUMPDEST PUSH1 0x0 DUP1 REVERT JUMPDEST PUSH1 0x0 DUP1 REVERT JUMPDEST PUSH1 0x0 DUP1 REVERT JUMPDEST PUSH1 0x0 DUP1 DUP4 PUSH1 0x1F DUP5 ADD SLT PUSH2 0x2C3B JUMPI PUSH2 0x2C3A PUSH2 0x2C16 JUMP JUMPDEST JUMPDEST DUP3 CALLDATALOAD SWAP1 POP PUSH8 0xFFFFFFFFFFFFFFFF DUP2 GT ISZERO PUSH2 0x2C58 JUMPI PUSH2 0x2C57 PUSH2 0x2C1B JUMP JUMPDEST JUMPDEST PUSH1 0x20 DUP4 ADD SWAP2 POP DUP4 PUSH1 0x1 DUP3 MUL DUP4 ADD GT ISZERO PUSH2 0x2C74 JUMPI PUSH2 0x2C73 PUSH2 0x2C20 JUMP JUMPDEST JUMPDEST SWAP3 POP SWAP3 SWAP1 POP JUMP JUMPDEST PUSH1 0x0 DUP1 PUSH1 0x20 DUP4 DUP6 SUB SLT ISZERO PUSH2 0x2C92 JUMPI PUSH2 0x2C91 PUSH2 0x2838 JUMP JUMPDEST JUMPDEST PUSH1 0x0 DUP4 ADD CALLDATALOAD PUSH8 0xFFFFFFFFFFFFFFFF DUP2 GT ISZERO PUSH2 0x2CB0 JUMPI PUSH2 0x2CAF PUSH2 0x283D JUMP JUMPDEST JUMPDEST PUSH2 0x2CBC DUP6 DUP3 DUP7 ADD PUSH2 0x2C25 JUMP JUMPDEST SWAP3 POP SWAP3 POP POP SWAP3 POP SWAP3 SWAP1 POP JUMP JUMPDEST PUSH2 0x2CD1 DUP2 PUSH2 0x28C7 JUMP JUMPDEST DUP2 EQ PUSH2 0x2CDC JUMPI PUSH1 0x0 DUP1 REVERT JUMPDEST POP JUMP JUMPDEST PUSH1 0x0 DUP2 CALLDATALOAD SWAP1 POP PUSH2 0x2CEE DUP2 PUSH2 0x2CC8 JUMP JUMPDEST SWAP3 SWAP2 POP POP JUMP JUMPDEST PUSH1 0x0 DUP1 PUSH1 0x40 DUP4 DUP6 SUB SLT ISZERO PUSH2 0x2D0B JUMPI PUSH2 0x2D0A PUSH2 0x2838 JUMP JUMPDEST JUMPDEST PUSH1 0x0 PUSH2 0x2D19 DUP6 DUP3 DUP7 ADD PUSH2 0x2A85 JUMP JUMPDEST SWAP3 POP POP PUSH1 0x20 PUSH2 0x2D2A DUP6 DUP3 DUP7 ADD PUSH2 0x2CDF JUMP JUMPDEST SWAP2 POP POP SWAP3 POP SWAP3 SWAP1 POP JUMP JUMPDEST PUSH1 0x0 DUP1 REVERT JUMPDEST PUSH32 0x4E487B7100000000000000000000000000000000000000000000000000000000 PUSH1 0x0 MSTORE PUSH1 0x41 PUSH1 0x4 MSTORE PUSH1 0x24 PUSH1 0x0 REVERT JUMPDEST PUSH2 0x2D71 DUP3 PUSH2 0x2943 JUMP JUMPDEST DUP2 ADD DUP2 DUP2 LT PUSH8 0xFFFFFFFFFFFFFFFF DUP3 GT OR ISZERO PUSH2 0x2D90 JUMPI PUSH2 0x2D8F PUSH2 0x2D39 JUMP JUMPDEST JUMPDEST DUP1 PUSH1 0x40 MSTORE POP POP POP JUMP JUMPDEST PUSH1 0x0 PUSH2 0x2DA3 PUSH2 0x282E JUMP JUMPDEST SWAP1 POP PUSH2 0x2DAF DUP3 DUP3 PUSH2 0x2D68 JUMP JUMPDEST SWAP2 SWAP1 POP JUMP JUMPDEST PUSH1 0x0 PUSH8 0xFFFFFFFFFFFFFFFF DUP3 GT ISZERO PUSH2 0x2DCF JUMPI PUSH2 0x2DCE PUSH2 0x2D39 JUMP JUMPDEST JUMPDEST PUSH2 0x2DD8 DUP3 PUSH2 0x2943 JUMP JUMPDEST SWAP1 POP PUSH1 0x20 DUP2 ADD SWAP1 POP SWAP2 SWAP1 POP JUMP JUMPDEST DUP3 DUP2 DUP4 CALLDATACOPY PUSH1 0x0 DUP4 DUP4 ADD MSTORE POP POP POP JUMP JUMPDEST PUSH1 0x0 PUSH2 0x2E07 PUSH2 0x2E02 DUP5 PUSH2 0x2DB4 JUMP JUMPDEST PUSH2 0x2D99 JUMP JUMPDEST SWAP1 POP DUP3 DUP2 MSTORE PUSH1 0x20 DUP2 ADD DUP5 DUP5 DUP5 ADD GT ISZERO PUSH2 0x2E23 JUMPI PUSH2 0x2E22 PUSH2 0x2D34 JUMP JUMPDEST JUMPDEST PUSH2 0x2E2E DUP5 DUP3 DUP6 PUSH2 0x2DE5 JUMP JUMPDEST POP SWAP4 SWAP3 POP POP POP JUMP JUMPDEST PUSH1 0x0 DUP3 PUSH1 0x1F DUP4 ADD SLT PUSH2 0x2E4B JUMPI PUSH2 0x2E4A PUSH2 0x2C16 JUMP JUMPDEST JUMPDEST DUP2 CALLDATALOAD PUSH2 0x2E5B DUP5 DUP3 PUSH1 0x20 DUP7 ADD PUSH2 0x2DF4 JUMP JUMPDEST SWAP2 POP POP SWAP3 SWAP2 POP POP JUMP JUMPDEST PUSH1 0x0 DUP1 PUSH1 0x0 DUP1 PUSH1 0x80 DUP6 DUP8 SUB SLT ISZERO PUSH2 0x2E7E JUMPI PUSH2 0x2E7D PUSH2 0x2838 JUMP JUMPDEST JUMPDEST PUSH1 0x0 PUSH2 0x2E8C DUP8 DUP3 DUP9 ADD PUSH2 0x2A85 JUMP JUMPDEST SWAP5 POP POP PUSH1 0x20 PUSH2 0x2E9D DUP8 DUP3 DUP9 ADD PUSH2 0x2A85 JUMP JUMPDEST SWAP4 POP POP PUSH1 0x40 PUSH2 0x2EAE DUP8 DUP3 DUP9 ADD PUSH2 0x29D0 JUMP JUMPDEST SWAP3 POP POP PUSH1 0x60 DUP6 ADD CALLDATALOAD PUSH8 0xFFFFFFFFFFFFFFFF DUP2 GT ISZERO PUSH2 0x2ECF JUMPI PUSH2 0x2ECE PUSH2 0x283D JUMP JUMPDEST JUMPDEST PUSH2 0x2EDB DUP8 DUP3 DUP9 ADD PUSH2 0x2E36 JUMP JUMPDEST SWAP2 POP POP SWAP3 SWAP6 SWAP2 SWAP5 POP SWAP3 POP JUMP JUMPDEST PUSH1 0x0 DUP1 PUSH1 0x40 DUP4 DUP6 SUB SLT ISZERO PUSH2 0x2EFE JUMPI PUSH2 0x2EFD PUSH2 0x2838 JUMP JUMPDEST JUMPDEST PUSH1 0x0 PUSH2 0x2F0C DUP6 DUP3 DUP7 ADD PUSH2 0x2A85 JUMP JUMPDEST SWAP3 POP POP PUSH1 0x20 PUSH2 0x2F1D DUP6 DUP3 DUP7 ADD PUSH2 0x2A85 JUMP JUMPDEST SWAP2 POP POP SWAP3 POP SWAP3 SWAP1 POP JUMP JUMPDEST PUSH32 0x4E487B7100000000000000000000000000000000000000000000000000000000 PUSH1 0x0 MSTORE PUSH1 0x22 PUSH1 0x4 MSTORE PUSH1 0x24 PUSH1 0x0 REVERT JUMPDEST PUSH1 0x0 PUSH1 0x2 DUP3 DIV SWAP1 POP PUSH1 0x1 DUP3 AND DUP1 PUSH2 0x2F6E JUMPI PUSH1 0x7F DUP3 AND SWAP2 POP JUMPDEST PUSH1 0x20 DUP3 LT DUP2 SUB PUSH2 0x2F81 JUMPI PUSH2 0x2F80 PUSH2 0x2F27 JUMP JUMPDEST JUMPDEST POP SWAP2 SWAP1 POP JUMP JUMPDEST PUSH32 0x4F6E652070657220616464726573730000000000000000000000000000000000 PUSH1 0x0 DUP3 ADD MSTORE POP JUMP JUMPDEST PUSH1 0x0 PUSH2 0x2FBD PUSH1 0xF DUP4 PUSH2 0x2908 JUMP JUMPDEST SWAP2 POP PUSH2 0x2FC8 DUP3 PUSH2 0x2F87 JUMP JUMPDEST PUSH1 0x20 DUP3 ADD SWAP1 POP SWAP2 SWAP1 POP JUMP JUMPDEST PUSH1 0x0 PUSH1 0x20 DUP3 ADD SWAP1 POP DUP2 DUP2 SUB PUSH1 0x0 DUP4 ADD MSTORE PUSH2 0x2FEC DUP2 PUSH2 0x2FB0 JUMP JUMPDEST SWAP1 POP SWAP2 SWAP1 POP JUMP JUMPDEST PUSH32 0x4E487B7100000000000000000000000000000000000000000000000000000000 PUSH1 0x0 MSTORE PUSH1 0x11 PUSH1 0x4 MSTORE PUSH1 0x24 PUSH1 0x0 REVERT JUMPDEST PUSH1 0x0 PUSH2 0x302D DUP3 PUSH2 0x29AF JUMP JUMPDEST SWAP2 POP PUSH32 0xFFFFFFFFFFFFFFFFFFFFFFFFFFFFFFFFFFFFFFFFFFFFFFFFFFFFFFFFFFFFFFFF DUP3 SUB PUSH2 0x305F JUMPI PUSH2 0x305E PUSH2 0x2FF3 JUMP JUMPDEST JUMPDEST PUSH1 0x1 DUP3 ADD SWAP1 POP SWAP2 SWAP1 POP JUMP JUMPDEST PUSH1 0x0 DUP2 SWAP1 POP SWAP2 SWAP1 POP JUMP JUMPDEST PUSH2 0x3085 PUSH2 0x3080 DUP3 PUSH2 0x29AF JUMP JUMPDEST PUSH2 0x306A JUMP JUMPDEST DUP3 MSTORE POP POP JUMP JUMPDEST PUSH1 0x0 DUP2 PUSH1 0x60 SHL SWAP1 POP SWAP2 SWAP1 POP JUMP JUMPDEST PUSH1 0x0 PUSH2 0x30A3 DUP3 PUSH2 0x308B JUMP JUMPDEST SWAP1 POP SWAP2 SWAP1 POP JUMP JUMPDEST PUSH1 0x0 PUSH2 0x30B5 DUP3 PUSH2 0x3098 JUMP JUMPDEST SWAP1 POP SWAP2 SWAP1 POP JUMP JUMPDEST PUSH2 0x30CD PUSH2 0x30C8 DUP3 PUSH2 0x2A32 JUMP JUMPDEST PUSH2 0x30AA JUMP JUMPDEST DUP3 MSTORE POP POP JUMP JUMPDEST PUSH1 0x0 PUSH2 0x30DF DUP3 DUP8 PUSH2 0x3074 JUMP JUMPDEST PUSH1 0x20 DUP3 ADD SWAP2 POP PUSH2 0x30EF DUP3 DUP7 PUSH2 0x30BC JUMP JUMPDEST PUSH1 0x14 DUP3 ADD SWAP2 POP PUSH2 0x30FF DUP3 DUP6 PUSH2 0x3074 JUMP JUMPDEST PUSH1 0x20 DUP3 ADD SWAP2 POP PUSH2 0x310F DUP3 DUP5 PUSH2 0x3074 JUMP JUMPDEST PUSH1 0x20 DUP3 ADD SWAP2 POP DUP2 SWAP1 POP SWAP6 SWAP5 POP POP POP POP POP JUMP JUMPDEST PUSH32 0x4E487B7100000000000000000000000000000000000000000000000000000000 PUSH1 0x0 MSTORE PUSH1 0x12 PUSH1 0x4 MSTORE PUSH1 0x24 PUSH1 0x0 REVERT JUMPDEST PUSH1 0x0 PUSH2 0x315B DUP3 PUSH2 0x29AF JUMP JUMPDEST SWAP2 POP PUSH2 0x3166 DUP4 PUSH2 0x29AF JUMP JUMPDEST SWAP3 POP DUP3 PUSH2 0x3176 JUMPI PUSH2 0x3175 PUSH2 0x3121 JUMP JUMPDEST JUMPDEST DUP3 DUP3 MOD SWAP1 POP SWAP3 SWAP2 POP POP JUMP JUMPDEST PUSH1 0x0 PUSH1 0x60 DUP3 ADD SWAP1 POP PUSH2 0x3196 PUSH1 0x0 DUP4 ADD DUP7 PUSH2 0x2A44 JUMP JUMPDEST PUSH2 0x31A3 PUSH1 0x20 DUP4 ADD DUP6 PUSH2 0x2ADA JUMP JUMPDEST PUSH2 0x31B0 PUSH1 0x40 DUP4 ADD DUP5 PUSH2 0x2A44 JUMP JUMPDEST SWAP5 SWAP4 POP POP POP POP JUMP JUMPDEST PUSH1 0x0 PUSH1 0x40 DUP3 ADD SWAP1 POP PUSH2 0x31CD PUSH1 0x0 DUP4 ADD DUP6 PUSH2 0x2A44 JUMP JUMPDEST PUSH2 0x31DA PUSH1 0x20 DUP4 ADD DUP5 PUSH2 0x2ADA JUMP JUMPDEST SWAP4 SWAP3 POP POP POP JUMP JUMPDEST PUSH32 0x4E487B7100000000000000000000000000000000000000000000000000000000 PUSH1 0x0 MSTORE PUSH1 0x32 PUSH1 0x4 MSTORE PUSH1 0x24 PUSH1 0x0 REVERT JUMPDEST PUSH1 0x0 DUP3 SWAP1 POP SWAP3 SWAP2 POP POP JUMP JUMPDEST PUSH1 0x0 DUP2 SWAP1 POP DUP2 PUSH1 0x0 MSTORE PUSH1 0x20 PUSH1 0x0 KECCAK256 SWAP1 POP SWAP2 SWAP1 POP JUMP JUMPDEST PUSH1 0x0 PUSH1 0x20 PUSH1 0x1F DUP4 ADD DIV SWAP1 POP SWAP2 SWAP1 POP JUMP JUMPDEST PUSH1 0x0 DUP3 DUP3 SHL SWAP1 POP SWAP3 SWAP2 POP POP JUMP JUMPDEST PUSH1 0x0 PUSH1 0x8 DUP4 MUL PUSH2 0x327D PUSH32 0xFFFFFFFFFFFFFFFFFFFFFFFFFFFFFFFFFFFFFFFFFFFFFFFFFFFFFFFFFFFFFFFF DUP3 PUSH2 0x3240 JUMP JUMPDEST PUSH2 0x3287 DUP7 DUP4 PUSH2 0x3240 JUMP JUMPDEST SWAP6 POP DUP1 NOT DUP5 AND SWAP4 POP DUP1 DUP7 AND DUP5 OR SWAP3 POP POP POP SWAP4 SWAP3 POP POP POP JUMP JUMPDEST PUSH1 0x0 DUP2 SWAP1 POP SWAP2 SWAP1 POP JUMP JUMPDEST PUSH1 0x0 PUSH2 0x32C4 PUSH2 0x32BF PUSH2 0x32BA DUP5 PUSH2 0x29AF JUMP JUMPDEST PUSH2 0x329F JUMP JUMPDEST PUSH2 0x29AF JUMP JUMPDEST SWAP1 POP SWAP2 SWAP1 POP JUMP JUMPDEST PUSH1 0x0 DUP2 SWAP1 POP SWAP2 SWAP1 POP JUMP JUMPDEST PUSH2 0x32DE DUP4 PUSH2 0x32A9 JUMP JUMPDEST PUSH2 0x32F2 PUSH2 0x32EA DUP3 PUSH2 0x32CB JUMP JUMPDEST DUP5 DUP5 SLOAD PUSH2 0x324D JUMP JUMPDEST DUP3 SSTORE POP POP POP POP JUMP JUMPDEST PUSH1 0x0 SWAP1 JUMP JUMPDEST PUSH2 0x3307 PUSH2 0x32FA JUMP JUMPDEST PUSH2 0x3312 DUP2 DUP5 DUP5 PUSH2 0x32D5 JUMP JUMPDEST POP POP POP JUMP JUMPDEST JUMPDEST DUP2 DUP2 LT ISZERO PUSH2 0x3336 JUMPI PUSH2 0x332B PUSH1 0x0 DUP3 PUSH2 0x32FF JUMP JUMPDEST PUSH1 0x1 DUP2 ADD SWAP1 POP PUSH2 0x3318 JUMP JUMPDEST POP POP JUMP JUMPDEST PUSH1 0x1F DUP3 GT ISZERO PUSH2 0x337B JUMPI PUSH2 0x334C DUP2 PUSH2 0x321B JUMP JUMPDEST PUSH2 0x3355 DUP5 PUSH2 0x3230 JUMP JUMPDEST DUP2 ADD PUSH1 0x20 DUP6 LT ISZERO PUSH2 0x3364 JUMPI DUP2 SWAP1 POP JUMPDEST PUSH2 0x3378 PUSH2 0x3370 DUP6 PUSH2 0x3230 JUMP JUMPDEST DUP4 ADD DUP3 PUSH2 0x3317 JUMP JUMPDEST POP POP JUMPDEST POP POP POP JUMP JUMPDEST PUSH1 0x0 DUP3 DUP3 SHR SWAP1 POP SWAP3 SWAP2 POP POP JUMP JUMPDEST PUSH1 0x0 PUSH2 0x339E PUSH1 0x0 NOT DUP5 PUSH1 0x8 MUL PUSH2 0x3380 JUMP JUMPDEST NOT DUP1 DUP4 AND SWAP2 POP POP SWAP3 SWAP2 POP POP JUMP JUMPDEST PUSH1 0x0 PUSH2 0x33B7 DUP4 DUP4 PUSH2 0x338D JUMP JUMPDEST SWAP2 POP DUP3 PUSH1 0x2 MUL DUP3 OR SWAP1 POP SWAP3 SWAP2 POP POP JUMP JUMPDEST PUSH2 0x33D1 DUP4 DUP4 PUSH2 0x3210 JUMP JUMPDEST PUSH8 0xFFFFFFFFFFFFFFFF DUP2 GT ISZERO PUSH2 0x33EA JUMPI PUSH2 0x33E9 PUSH2 0x2D39 JUMP JUMPDEST JUMPDEST PUSH2 0x33F4 DUP3 SLOAD PUSH2 0x2F56 JUMP JUMPDEST PUSH2 0x33FF DUP3 DUP3 DUP6 PUSH2 0x333A JUMP JUMPDEST PUSH1 0x0 PUSH1 0x1F DUP4 GT PUSH1 0x1 DUP2 EQ PUSH2 0x342E JUMPI PUSH1 0x0 DUP5 ISZERO PUSH2 0x341C JUMPI DUP3 DUP8 ADD CALLDATALOAD SWAP1 POP JUMPDEST PUSH2 0x3426 DUP6 DUP3 PUSH2 0x33AB JUMP JUMPDEST DUP7 SSTORE POP PUSH2 0x348E JUMP JUMPDEST PUSH1 0x1F NOT DUP5 AND PUSH2 0x343C DUP7 PUSH2 0x321B JUMP JUMPDEST PUSH1 0x0 JUMPDEST DUP3 DUP2 LT ISZERO PUSH2 0x3464 JUMPI DUP5 DUP10 ADD CALLDATALOAD DUP3 SSTORE PUSH1 0x1 DUP3 ADD SWAP2 POP PUSH1 0x20 DUP6 ADD SWAP5 POP PUSH1 0x20 DUP2 ADD SWAP1 POP PUSH2 0x343F JUMP JUMPDEST DUP7 DUP4 LT ISZERO PUSH2 0x3481 JUMPI DUP5 DUP10 ADD CALLDATALOAD PUSH2 0x347D PUSH1 0x1F DUP10 AND DUP3 PUSH2 0x338D JUMP JUMPDEST DUP4 SSTORE POP JUMPDEST PUSH1 0x1 PUSH1 0x2 DUP9 MUL ADD DUP9 SSTORE POP POP POP JUMPDEST POP POP POP POP POP POP POP JUMP JUMPDEST PUSH1 0x0 DUP2 SWAP1 POP SWAP3 SWAP2 POP POP JUMP JUMPDEST PUSH1 0x0 DUP2 SLOAD PUSH2 0x34AF DUP2 PUSH2 0x2F56 JUMP JUMPDEST PUSH2 0x34B9 DUP2 DUP7 PUSH2 0x3497 JUMP JUMPDEST SWAP5 POP PUSH1 0x1 DUP3 AND PUSH1 0x0 DUP2 EQ PUSH2 0x34D4 JUMPI PUSH1 0x1 DUP2 EQ PUSH2 0x34E9 JUMPI PUSH2 0x351C JUMP JUMPDEST PUSH1 0xFF NOT DUP4 AND DUP7 MSTORE DUP2 ISZERO ISZERO DUP3 MUL DUP7 ADD SWAP4 POP PUSH2 0x351C JUMP JUMPDEST PUSH2 0x34F2 DUP6 PUSH2 0x321B JUMP JUMPDEST PUSH1 0x0 JUMPDEST DUP4 DUP2 LT ISZERO PUSH2 0x3514 JUMPI DUP2 SLOAD DUP2 DUP10 ADD MSTORE PUSH1 0x1 DUP3 ADD SWAP2 POP PUSH1 0x20 DUP2 ADD SWAP1 POP PUSH2 0x34F5 JUMP JUMPDEST DUP4 DUP9 ADD SWAP6 POP POP POP JUMPDEST POP POP POP SWAP3 SWAP2 POP POP JUMP JUMPDEST PUSH1 0x0 PUSH2 0x3530 DUP3 PUSH2 0x28FD JUMP JUMPDEST PUSH2 0x353A DUP2 DUP6 PUSH2 0x3497 JUMP JUMPDEST SWAP4 POP PUSH2 0x354A DUP2 DUP6 PUSH1 0x20 DUP7 ADD PUSH2 0x2919 JUMP JUMPDEST DUP1 DUP5 ADD SWAP2 POP POP SWAP3 SWAP2 POP POP JUMP JUMPDEST PUSH32 0x2E706E6700000000000000000000000000000000000000000000000000000000 PUSH1 0x0 DUP3 ADD MSTORE POP JUMP JUMPDEST PUSH1 0x0 PUSH2 0x358C PUSH1 0x4 DUP4 PUSH2 0x3497 JUMP JUMPDEST SWAP2 POP PUSH2 0x3597 DUP3 PUSH2 0x3556 JUMP JUMPDEST PUSH1 0x4 DUP3 ADD SWAP1 POP SWAP2 SWAP1 POP JUMP JUMPDEST PUSH1 0x0 PUSH2 0x35AE DUP3 DUP6 PUSH2 0x34A2 JUMP JUMPDEST SWAP2 POP PUSH2 0x35BA DUP3 DUP5 PUSH2 0x3525 JUMP JUMPDEST SWAP2 POP PUSH2 0x35C5 DUP3 PUSH2 0x357F JUMP JUMPDEST SWAP2 POP DUP2 SWAP1 POP SWAP4 SWAP3 POP POP POP JUMP JUMPDEST PUSH32 0x7B2274726169745F74797065223A22726172697479222C2276616C7565223A22 PUSH1 0x0 DUP3 ADD MSTORE POP JUMP JUMPDEST PUSH1 0x0 PUSH2 0x3607 PUSH1 0x20 DUP4 PUSH2 0x3497 JUMP JUMPDEST SWAP2 POP PUSH2 0x3612 DUP3 PUSH2 0x35D1 JUMP JUMPDEST PUSH1 0x20 DUP3 ADD SWAP1 POP SWAP2 SWAP1 POP JUMP JUMPDEST PUSH32 0x227D000000000000000000000000000000000000000000000000000000000000 PUSH1 0x0 DUP3 ADD MSTORE POP JUMP JUMPDEST PUSH1 0x0 PUSH2 0x3653 PUSH1 0x2 DUP4 PUSH2 0x3497 JUMP JUMPDEST SWAP2 POP PUSH2 0x365E DUP3 PUSH2 0x361D JUMP JUMPDEST PUSH1 0x2 DUP3 ADD SWAP1 POP SWAP2 SWAP1 POP JUMP JUMPDEST PUSH1 0x0 PUSH2 0x3674 DUP3 PUSH2 0x35FA JUMP JUMPDEST SWAP2 POP PUSH2 0x3680 DUP3 DUP5 PUSH2 0x3525 JUMP JUMPDEST SWAP2 POP PUSH2 0x368B DUP3 PUSH2 0x3646 JUMP JUMPDEST SWAP2 POP DUP2 SWAP1 POP SWAP3 SWAP2 POP POP JUMP JUMPDEST PUSH1 0x0 DUP2 MLOAD SWAP1 POP PUSH2 0x36A5 DUP2 PUSH2 0x29B9 JUMP JUMPDEST SWAP3 SWAP2 POP POP JUMP JUMPDEST PUSH1 0x0 PUSH8 0xFFFFFFFFFFFFFFFF DUP3 GT ISZERO PUSH2 0x36C6 JUMPI PUSH2 0x36C5 PUSH2 0x2D39 JUMP JUMPDEST JUMPDEST PUSH1 0x20 DUP3 MUL SWAP1 POP SWAP2 SWAP1 POP JUMP JUMPDEST PUSH1 0x0 PUSH2 0x36E4 PUSH2 0x36DF DUP5 PUSH2 0x36AB JUMP JUMPDEST PUSH2 0x2D99 JUMP JUMPDEST SWAP1 POP DUP1 PUSH1 0x20 DUP5 MUL DUP4 ADD DUP6 DUP2 GT ISZERO PUSH2 0x36FE JUMPI PUSH2 0x36FD PUSH2 0x2C20 JUMP JUMPDEST JUMPDEST DUP4 JUMPDEST DUP2 DUP2 LT ISZERO PUSH2 0x3727 JUMPI DUP1 PUSH2 0x3713 DUP9 DUP3 PUSH2 0x3696 JUMP JUMPDEST DUP5 MSTORE PUSH1 0x20 DUP5 ADD SWAP4 POP POP PUSH1 0x20 DUP2 ADD SWAP1 POP PUSH2 0x3700 JUMP JUMPDEST POP POP POP SWAP4 SWAP3 POP POP POP JUMP JUMPDEST PUSH1 0x0 DUP3 PUSH1 0x1F DUP4 ADD SLT PUSH2 0x3746 JUMPI PUSH2 0x3745 PUSH2 0x2C16 JUMP JUMPDEST JUMPDEST PUSH1 0x3 PUSH2 0x3753 DUP5 DUP3 DUP6 PUSH2 0x36D1 JUMP JUMPDEST SWAP2 POP POP SWAP3 SWAP2 POP POP JUMP JUMPDEST PUSH1 0x0 DUP1 PUSH1 0x80 DUP4 DUP6 SUB SLT ISZERO PUSH2 0x3773 JUMPI PUSH2 0x3772 PUSH2 0x2838 JUMP JUMPDEST JUMPDEST PUSH1 0x0 PUSH2 0x3781 DUP6 DUP3 DUP7 ADD PUSH2 0x3696 JUMP JUMPDEST SWAP3 POP POP PUSH1 0x20 PUSH2 0x3792 DUP6 DUP3 DUP7 ADD PUSH2 0x3731 JUMP JUMPDEST SWAP2 POP POP SWAP3 POP SWAP3 SWAP1 POP JUMP JUMPDEST PUSH1 0x0 DUP2 SWAP1 POP SWAP2 SWAP1 POP JUMP JUMPDEST PUSH1 0x0 PUSH2 0x37B1 DUP3 PUSH2 0x379C JUMP JUMPDEST SWAP2 POP PUSH2 0x37BC DUP4 PUSH2 0x379C JUMP JUMPDEST SWAP3 POP DUP3 DUP3 SUB SWAP1 POP DUP2 DUP2 SLT PUSH1 0x0 DUP5 SLT AND DUP3 DUP3 SGT PUSH1 0x0 DUP6 SLT ISZERO AND OR ISZERO PUSH2 0x37E3 JUMPI PUSH2 0x37E2 PUSH2 0x2FF3 JUMP JUMPDEST JUMPDEST SWAP3 SWAP2 POP POP JUMP JUMPDEST PUSH32 0x2C7B2274726169745F74797065223A22776F726C64222C2276616C7565223A22 PUSH1 0x0 DUP3 ADD MSTORE POP JUMP JUMPDEST PUSH1 0x0 PUSH2 0x381F PUSH1 0x20 DUP4 PUSH2 0x3497 JUMP JUMPDEST SWAP2 POP PUSH2 0x382A DUP3 PUSH2 0x37E9 JUMP JUMPDEST PUSH1 0x20 DUP3 ADD SWAP1 POP SWAP2 SWAP1 POP JUMP JUMPDEST PUSH32 0x2C7B2274726169745F74797065223A22627566665F706F776572222C2276616C PUSH1 0x0 DUP3 ADD MSTORE PUSH32 0x7565223A22000000000000000000000000000000000000000000000000000000 PUSH1 0x20 DUP3 ADD MSTORE POP JUMP JUMPDEST PUSH1 0x0 PUSH2 0x3891 PUSH1 0x25 DUP4 PUSH2 0x3497 JUMP JUMPDEST SWAP2 POP PUSH2 0x389C DUP3 PUSH2 0x3835 JUMP JUMPDEST PUSH1 0x25 DUP3 ADD SWAP1 POP SWAP2 SWAP1 POP JUMP JUMPDEST PUSH32 0x2C7B2274726169745F74797065223A22627566665F646566656E7365222C2276 PUSH1 0x0 DUP3 ADD MSTORE PUSH32 0x616C7565223A2200000000000000000000000000000000000000000000000000 PUSH1 0x20 DUP3 ADD MSTORE POP JUMP JUMPDEST PUSH1 0x0 PUSH2 0x3903 PUSH1 0x27 DUP4 PUSH2 0x3497 JUMP JUMPDEST SWAP2 POP PUSH2 0x390E DUP3 PUSH2 0x38A7 JUMP JUMPDEST PUSH1 0x27 DUP3 ADD SWAP1 POP SWAP2 SWAP1 POP JUMP JUMPDEST PUSH32 0x2C7B2274726169745F74797065223A227870222C2276616C7565223A22000000 PUSH1 0x0 DUP3 ADD MSTORE POP JUMP JUMPDEST PUSH1 0x0 PUSH2 0x394F PUSH1 0x1D DUP4 PUSH2 0x3497 JUMP JUMPDEST SWAP2 POP PUSH2 0x395A DUP3 PUSH2 0x3919 JUMP JUMPDEST PUSH1 0x1D DUP3 ADD SWAP1 POP SWAP2 SWAP1 POP JUMP JUMPDEST PUSH1 0x0 PUSH2 0x3971 DUP3 DUP9 PUSH2 0x3525 JUMP JUMPDEST SWAP2 POP PUSH2 0x397C DUP3 PUSH2 0x3812 JUMP JUMPDEST SWAP2 POP PUSH2 0x3988 DUP3 DUP8 PUSH2 0x3525 JUMP JUMPDEST SWAP2 POP PUSH2 0x3993 DUP3 PUSH2 0x3646 JUMP JUMPDEST SWAP2 POP PUSH2 0x399E DUP3 PUSH2 0x3884 JUMP JUMPDEST SWAP2 POP PUSH2 0x39AA DUP3 DUP7 PUSH2 0x3525 JUMP JUMPDEST SWAP2 POP PUSH2 0x39B5 DUP3 PUSH2 0x3646 JUMP JUMPDEST SWAP2 POP PUSH2 0x39C0 DUP3 PUSH2 0x38F6 JUMP JUMPDEST SWAP2 POP PUSH2 0x39CC DUP3 DUP6 PUSH2 0x3525 JUMP JUMPDEST SWAP2 POP PUSH2 0x39D7 DUP3 PUSH2 0x3646 JUMP JUMPDEST SWAP2 POP PUSH2 0x39E2 DUP3 PUSH2 0x3942 JUMP JUMPDEST SWAP2 POP PUSH2 0x39EE DUP3 DUP5 PUSH2 0x3525 JUMP JUMPDEST SWAP2 POP PUSH2 0x39F9 DUP3 PUSH2 0x3646 JUMP JUMPDEST SWAP2 POP DUP2 SWAP1 POP SWAP7 SWAP6 POP POP POP POP POP POP JUMP JUMPDEST PUSH32 0x7B226E616D65223A225A65746151756573742054726176656C65722023000000 PUSH1 0x0 DUP3 ADD MSTORE POP JUMP JUMPDEST PUSH1 0x0 PUSH2 0x3A3E PUSH1 0x1D DUP4 PUSH2 0x3497 JUMP JUMPDEST SWAP2 POP PUSH2 0x3A49 DUP3 PUSH2 0x3A08 JUMP JUMPDEST PUSH1 0x1D DUP3 ADD SWAP1 POP SWAP2 SWAP1 POP JUMP JUMPDEST PUSH32 0x222C226465736372697074696F6E223A225250472D6C6974652063726F73732D PUSH1 0x0 DUP3 ADD MSTORE PUSH32 0x636861696E206F6E205A657461436861696E2E222C0000000000000000000000 PUSH1 0x20 DUP3 ADD MSTORE POP JUMP JUMPDEST PUSH1 0x0 PUSH2 0x3AB0 PUSH1 0x35 DUP4 PUSH2 0x3497 JUMP JUMPDEST SWAP2 POP PUSH2 0x3ABB DUP3 PUSH2 0x3A54 JUMP JUMPDEST PUSH1 0x35 DUP3 ADD SWAP1 POP SWAP2 SWAP1 POP JUMP JUMPDEST PUSH32 0x22696D616765223A220000000000000000000000000000000000000000000000 PUSH1 0x0 DUP3 ADD MSTORE POP JUMP JUMPDEST PUSH1 0x0 PUSH2 0x3AFC PUSH1 0x9 DUP4 PUSH2 0x3497 JUMP JUMPDEST SWAP2 POP PUSH2 0x3B07 DUP3 PUSH2 0x3AC6 JUMP JUMPDEST PUSH1 0x9 DUP3 ADD SWAP1 POP SWAP2 SWAP1 POP JUMP JUMPDEST PUSH32 0x222C000000000000000000000000000000000000000000000000000000000000 PUSH1 0x0 DUP3 ADD MSTORE POP JUMP JUMPDEST PUSH1 0x0 PUSH2 0x3B48 PUSH1 0x2 DUP4 PUSH2 0x3497 JUMP JUMPDEST SWAP2 POP PUSH2 0x3B53 DUP3 PUSH2 0x3B12 JUMP JUMPDEST PUSH1 0x2 DUP3 ADD SWAP1 POP SWAP2 SWAP1 POP JUMP JUMPDEST PUSH32 0x2261747472696275746573223A5B000000000000000000000000000000000000 PUSH1 0x0 DUP3 ADD MSTORE POP JUMP JUMPDEST PUSH1 0x0 PUSH2 0x3B94 PUSH1 0xE DUP4 PUSH2 0x3497 JUMP JUMPDEST SWAP2 POP PUSH2 0x3B9F DUP3 PUSH2 0x3B5E JUMP JUMPDEST PUSH1 0xE DUP3 ADD SWAP1 POP SWAP2 SWAP1 POP JUMP JUMPDEST PUSH32 0x5D00000000000000000000000000000000000000000000000000000000000000 PUSH1 0x0 DUP3 ADD MSTORE POP JUMP JUMPDEST PUSH1 0x0 PUSH2 0x3BE0 PUSH1 0x1 DUP4 PUSH2 0x3497 JUMP JUMPDEST SWAP2 POP PUSH2 0x3BEB DUP3 PUSH2 0x3BAA JUMP JUMPDEST PUSH1 0x1 DUP3 ADD SWAP1 POP SWAP2 SWAP1 POP JUMP JUMPDEST PUSH32 0x7D00000000000000000000000000000000000000000000000000000000000000 PUSH1 0x0 DUP3 ADD MSTORE POP JUMP JUMPDEST PUSH1 0x0 PUSH2 0x3C2C PUSH1 0x1 DUP4 PUSH2 0x3497 JUMP JUMPDEST SWAP2 POP PUSH2 0x3C37 DUP3 PUSH2 0x3BF6 JUMP JUMPDEST PUSH1 0x1 DUP3 ADD SWAP1 POP SWAP2 SWAP1 POP JUMP JUMPDEST PUSH1 0x0 PUSH2 0x3C4D DUP3 PUSH2 0x3A31 JUMP JUMPDEST SWAP2 POP PUSH2 0x3C59 DUP3 DUP7 PUSH2 0x3525 JUMP JUMPDEST SWAP2 POP PUSH2 0x3C64 DUP3 PUSH2 0x3AA3 JUMP JUMPDEST SWAP2 POP PUSH2 0x3C6F DUP3 PUSH2 0x3AEF JUMP JUMPDEST SWAP2 POP PUSH2 0x3C7B DUP3 DUP6 PUSH2 0x3525 JUMP JUMPDEST SWAP2 POP PUSH2 0x3C86 DUP3 PUSH2 0x3B3B JUMP JUMPDEST SWAP2 POP PUSH2 0x3C91 DUP3 PUSH2 0x3B87 JUMP JUMPDEST SWAP2 POP PUSH2 0x3C9D DUP3 DUP5 PUSH2 0x3525 JUMP JUMPDEST SWAP2 POP PUSH2 0x3CA8 DUP3 PUSH2 0x3BD3 JUMP JUMPDEST SWAP2 POP PUSH2 0x3CB3 DUP3 PUSH2 0x3C1F JUMP JUMPDEST SWAP2 POP DUP2 SWAP1 POP SWAP5 SWAP4 POP POP POP POP JUMP JUMPDEST PUSH32 0x646174613A6170706C69636174696F6E2F6A736F6E3B6261736536342C000000 PUSH1 0x0 DUP3 ADD MSTORE POP JUMP JUMPDEST PUSH1 0x0 PUSH2 0x3CF6 PUSH1 0x1D DUP4 PUSH2 0x3497 JUMP JUMPDEST SWAP2 POP PUSH2 0x3D01 DUP3 PUSH2 0x3CC0 JUMP JUMPDEST PUSH1 0x1D DUP3 ADD SWAP1 POP SWAP2 SWAP1 POP JUMP JUMPDEST PUSH1 0x0 PUSH2 0x3D17 DUP3 PUSH2 0x3CE9 JUMP JUMPDEST SWAP2 POP PUSH2 0x3D23 DUP3 DUP5 PUSH2 0x3525 JUMP JUMPDEST SWAP2 POP DUP2 SWAP1 POP SWAP3 SWAP2 POP POP JUMP JUMPDEST PUSH1 0x0 DUP2 MLOAD SWAP1 POP SWAP2 SWAP1 POP JUMP JUMPDEST PUSH1 0x0 DUP3 DUP3 MSTORE PUSH1 0x20 DUP3 ADD SWAP1 POP SWAP3 SWAP2 POP POP JUMP JUMPDEST PUSH1 0x0 PUSH2 0x3D55 DUP3 PUSH2 0x3D2E JUMP JUMPDEST PUSH2 0x3D5F DUP2 DUP6 PUSH2 0x3D39 JUMP JUMPDEST SWAP4 POP PUSH2 0x3D6F DUP2 DUP6 PUSH1 0x20 DUP7 ADD PUSH2 0x2919 JUMP JUMPDEST PUSH2 0x3D78 DUP2 PUSH2 0x2943 JUMP JUMPDEST DUP5 ADD SWAP2 POP POP SWAP3 SWAP2 POP POP JUMP JUMPDEST PUSH1 0x0 PUSH1 0x80 DUP3 ADD SWAP1 POP PUSH2 0x3D98 PUSH1 0x0 DUP4 ADD DUP8 PUSH2 0x2A44 JUMP JUMPDEST PUSH2 0x3DA5 PUSH1 0x20 DUP4 ADD DUP7 PUSH2 0x2A44 JUMP JUMPDEST PUSH2 0x3DB2 PUSH1 0x40 DUP4 ADD DUP6 PUSH2 0x2ADA JUMP JUMPDEST DUP2 DUP2 SUB PUSH1 0x60 DUP4 ADD MSTORE PUSH2 0x3DC4 DUP2 DUP5 PUSH2 0x3D4A JUMP JUMPDEST SWAP1 POP SWAP6 SWAP5 POP POP POP POP POP JUMP JUMPDEST PUSH1 0x0 DUP2 MLOAD SWAP1 POP PUSH2 0x3DDE DUP2 PUSH2 0x286E JUMP JUMPDEST SWAP3 SWAP2 POP POP JUMP JUMPDEST PUSH1 0x0 PUSH1 0x20 DUP3 DUP5 SUB SLT ISZERO PUSH2 0x3DFA JUMPI PUSH2 0x3DF9 PUSH2 0x2838 JUMP JUMPDEST JUMPDEST PUSH1 0x0 PUSH2 0x3E08 DUP5 DUP3 DUP6 ADD PUSH2 0x3DCF JUMP JUMPDEST SWAP2 POP POP SWAP3 SWAP2 POP POP JUMP JUMPDEST PUSH32 0x2B00000000000000000000000000000000000000000000000000000000000000 PUSH1 0x0 DUP3 ADD MSTORE POP JUMP JUMPDEST PUSH1 0x0 PUSH2 0x3E47 PUSH1 0x1 DUP4 PUSH2 0x3497 JUMP JUMPDEST SWAP2 POP PUSH2 0x3E52 DUP3 PUSH2 0x3E11 JUMP JUMPDEST PUSH1 0x1 DUP3 ADD SWAP1 POP SWAP2 SWAP1 POP JUMP JUMPDEST PUSH1 0x0 PUSH2 0x3E68 DUP3 PUSH2 0x3E3A JUMP JUMPDEST SWAP2 POP PUSH2 0x3E74 DUP3 DUP5 PUSH2 0x3525 JUMP JUMPDEST SWAP2 POP DUP2 SWAP1 POP SWAP3 SWAP2 POP POP JUMP JUMPDEST PUSH1 0x0 PUSH2 0x3E8A DUP3 PUSH2 0x379C JUMP JUMPDEST SWAP2 POP PUSH32 0x8000000000000000000000000000000000000000000000000000000000000000 DUP3 SUB PUSH2 0x3EBC JUMPI PUSH2 0x3EBB PUSH2 0x2FF3 JUMP JUMPDEST JUMPDEST DUP2 PUSH1 0x0 SUB SWAP1 POP SWAP2 SWAP1 POP JUMP JUMPDEST PUSH32 0x2D00000000000000000000000000000000000000000000000000000000000000 PUSH1 0x0 DUP3 ADD MSTORE POP JUMP JUMPDEST PUSH1 0x0 PUSH2 0x3EFD PUSH1 0x1 DUP4 PUSH2 0x3497 JUMP JUMPDEST SWAP2 POP PUSH2 0x3F08 DUP3 PUSH2 0x3EC7 JUMP JUMPDEST PUSH1 0x1 DUP3 ADD SWAP1 POP SWAP2 SWAP1 POP JUMP JUMPDEST PUSH1 0x0 PUSH2 0x3F1E DUP3 PUSH2 0x3EF0 JUMP JUMPDEST SWAP2 POP PUSH2 0x3F2A DUP3 DUP5 PUSH2 0x3525 JUMP JUMPDEST SWAP2 POP DUP2 SWAP1 POP SWAP3 SWAP2 POP POP JUMP JUMPDEST PUSH1 0x0 PUSH2 0x3F40 DUP3 PUSH2 0x29AF JUMP JUMPDEST SWAP2 POP PUSH2 0x3F4B DUP4 PUSH2 0x29AF JUMP JUMPDEST SWAP3 POP DUP3 DUP3 SUB SWAP1 POP DUP2 DUP2 GT ISZERO PUSH2 0x3F63 JUMPI PUSH2 0x3F62 PUSH2 0x2FF3 JUMP JUMPDEST JUMPDEST SWAP3 SWAP2 POP POP JUMP JUMPDEST PUSH32 0x4E487B7100000000000000000000000000000000000000000000000000000000 PUSH1 0x0 MSTORE PUSH1 0x31 PUSH1 0x4 MSTORE PUSH1 0x24 PUSH1 0x0 REVERT JUMPDEST PUSH1 0x0 PUSH2 0x3FA3 DUP3 PUSH2 0x29AF JUMP JUMPDEST SWAP2 POP PUSH2 0x3FAE DUP4 PUSH2 0x29AF JUMP JUMPDEST SWAP3 POP DUP3 DUP3 MUL PUSH2 0x3FBC DUP2 PUSH2 0x29AF JUMP JUMPDEST SWAP2 POP DUP3 DUP3 DIV DUP5 EQ DUP4 ISZERO OR PUSH2 0x3FD3 JUMPI PUSH2 0x3FD2 PUSH2 0x2FF3 JUMP JUMPDEST JUMPDEST POP SWAP3 SWAP2 POP POP JUMP JUMPDEST PUSH1 0x0 PUSH2 0x3FE5 DUP3 PUSH2 0x29AF JUMP JUMPDEST SWAP2 POP PUSH2 0x3FF0 DUP4 PUSH2 0x29AF JUMP JUMPDEST SWAP3 POP DUP3 DUP3 ADD SWAP1 POP DUP1 DUP3 GT ISZERO PUSH2 0x4008 JUMPI PUSH2 0x4007 PUSH2 0x2FF3 JUMP JUMPDEST JUMPDEST SWAP3 SWAP2 POP POP JUMP JUMPDEST PUSH1 0x0 PUSH2 0x4019 DUP3 PUSH2 0x29AF JUMP JUMPDEST SWAP2 POP PUSH2 0x4024 DUP4 PUSH2 0x29AF JUMP JUMPDEST SWAP3 POP DUP3 PUSH2 0x4034 JUMPI PUSH2 0x4033 PUSH2 0x3121 JUMP JUMPDEST JUMPDEST DUP3 DUP3 DIV SWAP1 POP SWAP3 SWAP2 POP POP JUMP INVALID COINBASE TIMESTAMP NUMBER PREVRANDAO GASLIMIT CHAINID SELFBALANCE BASEFEE BLOBHASH BLOBBASEFEE 0x4B 0x4C 0x4D 0x4E 0x4F POP MLOAD MSTORE MSTORE8 SLOAD SSTORE JUMP JUMPI PC MSIZE GAS PUSH2 0x6263 PUSH5 0x6566676869 PUSH11 0x6B6C6D6E6F707172737475 PUSH23 0x7778797A303132333435363738392B2FA2646970667358 0x22 SLT KECCAK256 PREVRANDAO 0xCC 0xD8 0xC1 0xC9 0xE9 SMOD 0xD9 DUP10 0xD9 LOG0 DUP8 DUP9 0x2D PUSH23 0x438C43557E3FD41B32E55D6A4756DB184E64736F6C6343 STOP ADDMOD XOR STOP CALLER "},"methodIdentifiers":{"approve(address,uint256)":"095ea7b3","balanceOf(address)":"70a08231","baseImageURI()":"74f82e30","core()":"f2f4eb26","getApproved(uint256)":"081812fc","getRarity(uint256)":"48758697","isApprovedForAll(address,address)":"e985e9c5","mint()":"1249c58b","name()":"06fdde03","owner()":"8da5cb5b","ownerOf(uint256)":"6352211e","renounceOwnership()":"715018a6","safeTransferFrom(address,address,uint256)":"42842e0e","safeTransferFrom(address,address,uint256,bytes)":"b88d4fde","setApprovalForAll(address,bool)":"a22cb465","setBaseImageURI(string)":"8647ca76","setCore(address)":"80009630","supportsInterface(bytes4)":"01ffc9a7","symbol()":"95d89b41","tokenByIndex(uint256)":"4f6ccce7","tokenOfOwnerByIndex(address,uint256)":"2f745c59","tokenURI(uint256)":"c87b56dd","totalSupply()":"18160ddd","transferFrom(address,address,uint256)":"23b872dd","transferOwnership(address)":"f2fde38b"}}}}}