{
  "_format": "hh-sol-artifact-1",
  "contractName": "ScoreV2",
  "sourceName": "contracts/contracts/ScoreV2.sol",
  "abi": [
    {
      "inputs": [
        {
          "internalType": "address",
          "name": "_owner",
          "type": "address"
        }
      ],
      "stateMutability": "nonpayable",
      "type": "constructor"
    },
    {
      "inputs": [
        {
          "internalType": "address",
          "name": "owner",
          "type": "address"
        }
      ],
      "name": "OwnableInvalidOwner",
      "type": "error"
    },
    {
      "inputs": [
        {
          "internalType": "address",
          "name": "account",
          "type": "address"
        }
      ],
      "name": "OwnableUnauthorizedAccount",
      "type": "error"
    },
    {
      "anonymous": false,
      "inputs": [
        {
          "indexed": true,
          "internalType": "address",
          "name": "previousOwner",
          "type": "address"
        },
        {
          "indexed": true,
          "internalType": "address",
          "name": "newOwner",
          "type": "address"
        }
      ],
      "name": "OwnershipTransferred",
      "type": "event"
    },
    {
      "anonymous": false,
      "inputs": [
        {
          "indexed": true,
          "internalType": "address",
          "name": "player",
          "type": "address"
        },
        {
          "indexed": false,
          "internalType": "string",
          "name": "title",
          "type": "string"
        },
        {
          "indexed": false,
          "internalType": "uint256",
          "name": "amount",
          "type": "uint256"
        }
      ],
      "name": "QuestCompleted",
      "type": "event"
    },
    {
      "anonymous": false,
      "inputs": [
        {
          "indexed": true,
          "internalType": "address",
          "name": "player",
          "type": "address"
        },
        {
          "indexed": false,
          "internalType": "uint256",
          "name": "amount",
          "type": "uint256"
        },
        {
          "indexed": false,
          "internalType": "uint256",
          "name": "newTotal",
          "type": "uint256"
        }
      ],
      "name": "XpAdded",
      "type": "event"
    },
    {
      "inputs": [
        {
          "internalType": "address",
          "name": "player",
          "type": "address"
        },
        {
          "internalType": "uint256",
          "name": "amount",
          "type": "uint256"
        },
        {
          "internalType": "string",
          "name": "title",
          "type": "string"
        }
      ],
      "name": "addXpAndLog",
      "outputs": [],
      "stateMutability": "nonpayable",
      "type": "function"
    },
    {
      "inputs": [
        {
          "internalType": "address",
          "name": "player",
          "type": "address"
        }
      ],
      "name": "getXp",
      "outputs": [
        {
          "internalType": "uint256",
          "name": "",
          "type": "uint256"
        }
      ],
      "stateMutability": "view",
      "type": "function"
    },
    {
      "inputs": [],
      "name": "owner",
      "outputs": [
        {
          "internalType": "address",
          "name": "",
          "type": "address"
        }
      ],
      "stateMutability": "view",
      "type": "function"
    },
    {
      "inputs": [],
      "name": "renounceOwnership",
      "outputs": [],
      "stateMutability": "nonpayable",
      "type": "function"
    },
    {
      "inputs": [
        {
          "internalType": "address",
          "name": "newOwner",
          "type": "address"
        }
      ],
      "name": "transferOwnership",
      "outputs": [],
      "stateMutability": "nonpayable",
      "type": "function"
    },
    {
      "inputs": [
        {
          "internalType": "address",
          "name": "",
          "type": "address"
        }
      ],
      "name": "xpOf",
      "outputs": [
        {
          "internalType": "uint256",
          "name": "",
          "type": "uint256"
        }
      ],
      "stateMutability": "view",
      "type": "function"
    }
  ],
  "bytecode": "0x608060405234801561001057600080fd5b50604051610a75380380610a75833981810160405281019061003291906101e2565b80600073ffffffffffffffffffffffffffffffffffffffff168173ffffffffffffffffffffffffffffffffffffffff16036100a55760006040517f1e4fbdf700000000000000000000000000000000000000000000000000000000815260040161009c919061021e565b60405180910390fd5b6100b4816100bb60201b60201c565b5050610239565b60008060009054906101000a900473ffffffffffffffffffffffffffffffffffffffff169050816000806101000a81548173ffffffffffffffffffffffffffffffffffffffff021916908373ffffffffffffffffffffffffffffffffffffffff1602179055508173ffffffffffffffffffffffffffffffffffffffff168173ffffffffffffffffffffffffffffffffffffffff167f8be0079c531659141344cd1fd0a4f28419497f9722a3daafe3b4186f6b6457e060405160405180910390a35050565b600080fd5b600073ffffffffffffffffffffffffffffffffffffffff82169050919050565b60006101af82610184565b9050919050565b6101bf816101a4565b81146101ca57600080fd5b50565b6000815190506101dc816101b6565b92915050565b6000602082840312156101f8576101f761017f565b5b6000610206848285016101cd565b91505092915050565b610218816101a4565b82525050565b6000602082019050610233600083018461020f565b92915050565b61082d806102486000396000f3fe608060405234801561001057600080fd5b50600436106100625760003560e01c80633bc3d5f614610067578063715018a614610097578063883c00d6146100a15780638da5cb5b146100d1578063f2fde38b146100ef578063ffa00c0a1461010b575b600080fd5b610081600480360381019061007c919061054b565b610127565b60405161008e9190610591565b60405180910390f35b61009f610170565b005b6100bb60048036038101906100b6919061054b565b610184565b6040516100c89190610591565b60405180910390f35b6100d961019c565b6040516100e691906105bb565b60405180910390f35b6101096004803603810190610104919061054b565b6101c5565b005b61012560048036038101906101209190610667565b61024b565b005b6000600160008373ffffffffffffffffffffffffffffffffffffffff1673ffffffffffffffffffffffffffffffffffffffff168152602001908152602001600020549050919050565b610178610390565b6101826000610417565b565b60016020528060005260406000206000915090505481565b60008060009054906101000a900473ffffffffffffffffffffffffffffffffffffffff16905090565b6101cd610390565b600073ffffffffffffffffffffffffffffffffffffffff168173ffffffffffffffffffffffffffffffffffffffff160361023f5760006040517f1e4fbdf700000000000000000000000000000000000000000000000000000000815260040161023691906105bb565b60405180910390fd5b61024881610417565b50565b610253610390565b82600160008673ffffffffffffffffffffffffffffffffffffffff1673ffffffffffffffffffffffffffffffffffffffff16815260200190815260200160002060008282546102a2919061070a565b925050819055508373ffffffffffffffffffffffffffffffffffffffff167fdbeef5969825573c3e26a407750774c63753f7159669da9dbcdb6e0a0724c77c84600160008873ffffffffffffffffffffffffffffffffffffffff1673ffffffffffffffffffffffffffffffffffffffff1681526020019081526020016000205460405161033092919061073e565b60405180910390a28373ffffffffffffffffffffffffffffffffffffffff167fe4f965e79dad5eeef8c5a7c5aa40bc11ea1b43ee7165756ee44928dea96b638a838386604051610382939291906107c5565b60405180910390a250505050565b6103986104db565b73ffffffffffffffffffffffffffffffffffffffff166103b661019c565b73ffffffffffffffffffffffffffffffffffffffff1614610415576103d96104db565b6040517f118cdaa700000000000000000000000000000000000000000000000000000000815260040161040c91906105bb565b60405180910390fd5b565b60008060009054906101000a900473ffffffffffffffffffffffffffffffffffffffff169050816000806101000a81548173ffffffffffffffffffffffffffffffffffffffff021916908373ffffffffffffffffffffffffffffffffffffffff1602179055508173ffffffffffffffffffffffffffffffffffffffff168173ffffffffffffffffffffffffffffffffffffffff167f8be0079c531659141344cd1fd0a4f28419497f9722a3daafe3b4186f6b6457e060405160405180910390a35050565b600033905090565b600080fd5b600080fd5b600073ffffffffffffffffffffffffffffffffffffffff82169050919050565b6000610518826104ed565b9050919050565b6105288161050d565b811461053357600080fd5b50565b6000813590506105458161051f565b92915050565b600060208284031215610561576105606104e3565b5b600061056f84828501610536565b91505092915050565b6000819050919050565b61058b81610578565b82525050565b60006020820190506105a66000830184610582565b92915050565b6105b58161050d565b82525050565b60006020820190506105d060008301846105ac565b92915050565b6105df81610578565b81146105ea57600080fd5b50565b6000813590506105fc816105d6565b92915050565b600080fd5b600080fd5b600080fd5b60008083601f84011261062757610626610602565b5b8235905067ffffffffffffffff81111561064457610643610607565b5b6020830191508360018202830111156106605761065f61060c565b5b9250929050565b60008060008060608587031215610681576106806104e3565b5b600061068f87828801610536565b94505060206106a0878288016105ed565b935050604085013567ffffffffffffffff8111156106c1576106c06104e8565b5b6106cd87828801610611565b925092505092959194509250565b7f4e487b7100000000000000000000000000000000000000000000000000000000600052601160045260246000fd5b600061071582610578565b915061072083610578565b9250828201905080821115610738576107376106db565b5b92915050565b60006040820190506107536000830185610582565b6107606020830184610582565b9392505050565b600082825260208201905092915050565b82818337600083830152505050565b6000601f19601f8301169050919050565b60006107a48385610767565b93506107b1838584610778565b6107ba83610787565b840190509392505050565b600060408201905081810360008301526107e0818587610798565b90506107ef6020830184610582565b94935050505056fea26469706673582212204d98ce69e4f41cef182bda42abc7ad9b73de3246f55b335d38e150ef61fbb05e64736f6c63430008180033",
  "linkReferences": {},
  "deployedLinkReferences": {}
}