{
  "_format": "hh-sol-artifact-1",
  "contractName": "ZetaQuestScore",
  "sourceName": "contracts/contracts/ZetaQuestScore.sol",
  "abi": [
    {
      "inputs": [
        {
          "internalType": "address",
          "name": "owner_",
          "type": "address"
        }
      ],
      "stateMutability": "nonpayable",
      "type": "constructor"
    },
    {
      "inputs": [
        {
          "internalType": "address",
          "name": "owner",
          "type": "address"
        }
      ],
      "name": "OwnableInvalidOwner",
      "type": "error"
    },
    {
      "inputs": [
        {
          "internalType": "address",
          "name": "account",
          "type": "address"
        }
      ],
      "name": "OwnableUnauthorizedAccount",
      "type": "error"
    },
    {
      "anonymous": false,
      "inputs": [
        {
          "indexed": true,
          "internalType": "address",
          "name": "previousOwner",
          "type": "address"
        },
        {
          "indexed": true,
          "internalType": "address",
          "name": "newOwner",
          "type": "address"
        }
      ],
      "name": "OwnershipTransferred",
      "type": "event"
    },
    {
      "anonymous": false,
      "inputs": [
        {
          "indexed": true,
          "internalType": "address",
          "name": "player",
          "type": "address"
        },
        {
          "indexed": false,
          "internalType": "uint256",
          "name": "amount",
          "type": "uint256"
        },
        {
          "indexed": false,
          "internalType": "uint256",
          "name": "newTotal",
          "type": "uint256"
        }
      ],
      "name": "XpAdded",
      "type": "event"
    },
    {
      "inputs": [
        {
          "internalType": "address",
          "name": "player",
          "type": "address"
        },
        {
          "internalType": "uint256",
          "name": "amount",
          "type": "uint256"
        }
      ],
      "name": "addXp",
      "outputs": [],
      "stateMutability": "nonpayable",
      "type": "function"
    },
    {
      "inputs": [],
      "name": "owner",
      "outputs": [
        {
          "internalType": "address",
          "name": "",
          "type": "address"
        }
      ],
      "stateMutability": "view",
      "type": "function"
    },
    {
      "inputs": [],
      "name": "renounceOwnership",
      "outputs": [],
      "stateMutability": "nonpayable",
      "type": "function"
    },
    {
      "inputs": [
        {
          "internalType": "address",
          "name": "newOwner",
          "type": "address"
        }
      ],
      "name": "transferOwnership",
      "outputs": [],
      "stateMutability": "nonpayable",
      "type": "function"
    },
    {
      "inputs": [
        {
          "internalType": "address",
          "name": "",
          "type": "address"
        }
      ],
      "name": "xpOf",
      "outputs": [
        {
          "internalType": "uint256",
          "name": "",
          "type": "uint256"
        }
      ],
      "stateMutability": "view",
      "type": "function"
    }
  ],
  "bytecode": "0x608060405234801561001057600080fd5b5060405161086f38038061086f833981810160405281019061003291906101e2565b80600073ffffffffffffffffffffffffffffffffffffffff168173ffffffffffffffffffffffffffffffffffffffff16036100a55760006040517f1e4fbdf700000000000000000000000000000000000000000000000000000000815260040161009c919061021e565b60405180910390fd5b6100b4816100bb60201b60201c565b5050610239565b60008060009054906101000a900473ffffffffffffffffffffffffffffffffffffffff169050816000806101000a81548173ffffffffffffffffffffffffffffffffffffffff021916908373ffffffffffffffffffffffffffffffffffffffff1602179055508173ffffffffffffffffffffffffffffffffffffffff168173ffffffffffffffffffffffffffffffffffffffff167f8be0079c531659141344cd1fd0a4f28419497f9722a3daafe3b4186f6b6457e060405160405180910390a35050565b600080fd5b600073ffffffffffffffffffffffffffffffffffffffff82169050919050565b60006101af82610184565b9050919050565b6101bf816101a4565b81146101ca57600080fd5b50565b6000815190506101dc816101b6565b92915050565b6000602082840312156101f8576101f761017f565b5b6000610206848285016101cd565b91505092915050565b610218816101a4565b82525050565b6000602082019050610233600083018461020f565b92915050565b610627806102486000396000f3fe608060405234801561001057600080fd5b50600436106100575760003560e01c8063715018a61461005c578063883c00d6146100665780638da5cb5b14610096578063c3a0ef89146100b4578063f2fde38b146100d0575b600080fd5b6100646100ec565b005b610080600480360381019061007b919061046e565b610100565b60405161008d91906104b4565b60405180910390f35b61009e610118565b6040516100ab91906104de565b60405180910390f35b6100ce60048036038101906100c99190610525565b610141565b005b6100ea60048036038101906100e5919061046e565b610232565b005b6100f46102b8565b6100fe600061033f565b565b60016020528060005260406000206000915090505481565b60008060009054906101000a900473ffffffffffffffffffffffffffffffffffffffff16905090565b6101496102b8565b80600160008473ffffffffffffffffffffffffffffffffffffffff1673ffffffffffffffffffffffffffffffffffffffff16815260200190815260200160002060008282546101989190610594565b925050819055508173ffffffffffffffffffffffffffffffffffffffff167fdbeef5969825573c3e26a407750774c63753f7159669da9dbcdb6e0a0724c77c82600160008673ffffffffffffffffffffffffffffffffffffffff1673ffffffffffffffffffffffffffffffffffffffff168152602001908152602001600020546040516102269291906105c8565b60405180910390a25050565b61023a6102b8565b600073ffffffffffffffffffffffffffffffffffffffff168173ffffffffffffffffffffffffffffffffffffffff16036102ac5760006040517f1e4fbdf70000000000000000000000000000000000000000000000000000000081526004016102a391906104de565b60405180910390fd5b6102b58161033f565b50565b6102c0610403565b73ffffffffffffffffffffffffffffffffffffffff166102de610118565b73ffffffffffffffffffffffffffffffffffffffff161461033d57610301610403565b6040517f118cdaa700000000000000000000000000000000000000000000000000000000815260040161033491906104de565b60405180910390fd5b565b60008060009054906101000a900473ffffffffffffffffffffffffffffffffffffffff169050816000806101000a81548173ffffffffffffffffffffffffffffffffffffffff021916908373ffffffffffffffffffffffffffffffffffffffff1602179055508173ffffffffffffffffffffffffffffffffffffffff168173ffffffffffffffffffffffffffffffffffffffff167f8be0079c531659141344cd1fd0a4f28419497f9722a3daafe3b4186f6b6457e060405160405180910390a35050565b600033905090565b600080fd5b600073ffffffffffffffffffffffffffffffffffffffff82169050919050565b600061043b82610410565b9050919050565b61044b81610430565b811461045657600080fd5b50565b60008135905061046881610442565b92915050565b6000602082840312156104845761048361040b565b5b600061049284828501610459565b91505092915050565b6000819050919050565b6104ae8161049b565b82525050565b60006020820190506104c960008301846104a5565b92915050565b6104d881610430565b82525050565b60006020820190506104f360008301846104cf565b92915050565b6105028161049b565b811461050d57600080fd5b50565b60008135905061051f816104f9565b92915050565b6000806040838503121561053c5761053b61040b565b5b600061054a85828601610459565b925050602061055b85828601610510565b9150509250929050565b7f4e487b7100000000000000000000000000000000000000000000000000000000600052601160045260246000fd5b600061059f8261049b565b91506105aa8361049b565b92508282019050808211156105c2576105c1610565565b5b92915050565b60006040820190506105dd60008301856104a5565b6105ea60208301846104a5565b939250505056fea26469706673582212206935aafbb5b6da4d7434efd4b2a377f04d7a58c8d17771fef3da09d2d51165cd64736f6c63430008180033",
  "linkReferences": {},
  "deployedLinkReferences": {}
}