{
  "_format": "hh-sol-artifact-1",
  "contractName": "ZetaQuestNFT",
  "sourceName": "contracts/contracts/ZetaQuestNFT.sol",
  "abi": [
    {
      "inputs": [
        {
          "internalType": "string",
          "name": "_baseImageURI",
          "type": "string"
        }
      ],
      "stateMutability": "nonpayable",
      "type": "constructor"
    },
    {
      "inputs": [],
      "name": "ERC721EnumerableForbiddenBatchMint",
      "type": "error"
    },
    {
      "inputs": [
        {
          "internalType": "address",
          "name": "sender",
          "type": "address"
        },
        {
          "internalType": "uint256",
          "name": "tokenId",
          "type": "uint256"
        },
        {
          "internalType": "address",
          "name": "owner",
          "type": "address"
        }
      ],
      "name": "ERC721IncorrectOwner",
      "type": "error"
    },
    {
      "inputs": [
        {
          "internalType": "address",
          "name": "operator",
          "type": "address"
        },
        {
          "internalType": "uint256",
          "name": "tokenId",
          "type": "uint256"
        }
      ],
      "name": "ERC721InsufficientApproval",
      "type": "error"
    },
    {
      "inputs": [
        {
          "internalType": "address",
          "name": "approver",
          "type": "address"
        }
      ],
      "name": "ERC721InvalidApprover",
      "type": "error"
    },
    {
      "inputs": [
        {
          "internalType": "address",
          "name": "operator",
          "type": "address"
        }
      ],
      "name": "ERC721InvalidOperator",
      "type": "error"
    },
    {
      "inputs": [
        {
          "internalType": "address",
          "name": "owner",
          "type": "address"
        }
      ],
      "name": "ERC721InvalidOwner",
      "type": "error"
    },
    {
      "inputs": [
        {
          "internalType": "address",
          "name": "receiver",
          "type": "address"
        }
      ],
      "name": "ERC721InvalidReceiver",
      "type": "error"
    },
    {
      "inputs": [
        {
          "internalType": "address",
          "name": "sender",
          "type": "address"
        }
      ],
      "name": "ERC721InvalidSender",
      "type": "error"
    },
    {
      "inputs": [
        {
          "internalType": "uint256",
          "name": "tokenId",
          "type": "uint256"
        }
      ],
      "name": "ERC721NonexistentToken",
      "type": "error"
    },
    {
      "inputs": [
        {
          "internalType": "address",
          "name": "owner",
          "type": "address"
        },
        {
          "internalType": "uint256",
          "name": "index",
          "type": "uint256"
        }
      ],
      "name": "ERC721OutOfBoundsIndex",
      "type": "error"
    },
    {
      "inputs": [
        {
          "internalType": "address",
          "name": "owner",
          "type": "address"
        }
      ],
      "name": "OwnableInvalidOwner",
      "type": "error"
    },
    {
      "inputs": [
        {
          "internalType": "address",
          "name": "account",
          "type": "address"
        }
      ],
      "name": "OwnableUnauthorizedAccount",
      "type": "error"
    },
    {
      "anonymous": false,
      "inputs": [
        {
          "indexed": true,
          "internalType": "address",
          "name": "owner",
          "type": "address"
        },
        {
          "indexed": true,
          "internalType": "address",
          "name": "approved",
          "type": "address"
        },
        {
          "indexed": true,
          "internalType": "uint256",
          "name": "tokenId",
          "type": "uint256"
        }
      ],
      "name": "Approval",
      "type": "event"
    },
    {
      "anonymous": false,
      "inputs": [
        {
          "indexed": true,
          "internalType": "address",
          "name": "owner",
          "type": "address"
        },
        {
          "indexed": true,
          "internalType": "address",
          "name": "operator",
          "type": "address"
        },
        {
          "indexed": false,
          "internalType": "bool",
          "name": "approved",
          "type": "bool"
        }
      ],
      "name": "ApprovalForAll",
      "type": "event"
    },
    {
      "anonymous": false,
      "inputs": [
        {
          "indexed": true,
          "internalType": "address",
          "name": "previousOwner",
          "type": "address"
        },
        {
          "indexed": true,
          "internalType": "address",
          "name": "newOwner",
          "type": "address"
        }
      ],
      "name": "OwnershipTransferred",
      "type": "event"
    },
    {
      "anonymous": false,
      "inputs": [
        {
          "indexed": true,
          "internalType": "address",
          "name": "from",
          "type": "address"
        },
        {
          "indexed": true,
          "internalType": "address",
          "name": "to",
          "type": "address"
        },
        {
          "indexed": true,
          "internalType": "uint256",
          "name": "tokenId",
          "type": "uint256"
        }
      ],
      "name": "Transfer",
      "type": "event"
    },
    {
      "inputs": [
        {
          "internalType": "address",
          "name": "to",
          "type": "address"
        },
        {
          "internalType": "uint256",
          "name": "tokenId",
          "type": "uint256"
        }
      ],
      "name": "approve",
      "outputs": [],
      "stateMutability": "nonpayable",
      "type": "function"
    },
    {
      "inputs": [
        {
          "internalType": "address",
          "name": "owner",
          "type": "address"
        }
      ],
      "name": "balanceOf",
      "outputs": [
        {
          "internalType": "uint256",
          "name": "",
          "type": "uint256"
        }
      ],
      "stateMutability": "view",
      "type": "function"
    },
    {
      "inputs": [],
      "name": "baseImageURI",
      "outputs": [
        {
          "internalType": "string",
          "name": "",
          "type": "string"
        }
      ],
      "stateMutability": "view",
      "type": "function"
    },
    {
      "inputs": [],
      "name": "core",
      "outputs": [
        {
          "internalType": "address",
          "name": "",
          "type": "address"
        }
      ],
      "stateMutability": "view",
      "type": "function"
    },
    {
      "inputs": [
        {
          "internalType": "uint256",
          "name": "tokenId",
          "type": "uint256"
        }
      ],
      "name": "getApproved",
      "outputs": [
        {
          "internalType": "address",
          "name": "",
          "type": "address"
        }
      ],
      "stateMutability": "view",
      "type": "function"
    },
    {
      "inputs": [
        {
          "internalType": "uint256",
          "name": "tokenId",
          "type": "uint256"
        }
      ],
      "name": "getRarity",
      "outputs": [
        {
          "internalType": "enum ZetaQuestNFT.Rarity",
          "name": "",
          "type": "uint8"
        }
      ],
      "stateMutability": "view",
      "type": "function"
    },
    {
      "inputs": [
        {
          "internalType": "address",
          "name": "owner",
          "type": "address"
        },
        {
          "internalType": "address",
          "name": "operator",
          "type": "address"
        }
      ],
      "name": "isApprovedForAll",
      "outputs": [
        {
          "internalType": "bool",
          "name": "",
          "type": "bool"
        }
      ],
      "stateMutability": "view",
      "type": "function"
    },
    {
      "inputs": [],
      "name": "mint",
      "outputs": [],
      "stateMutability": "nonpayable",
      "type": "function"
    },
    {
      "inputs": [],
      "name": "name",
      "outputs": [
        {
          "internalType": "string",
          "name": "",
          "type": "string"
        }
      ],
      "stateMutability": "view",
      "type": "function"
    },
    {
      "inputs": [],
      "name": "owner",
      "outputs": [
        {
          "internalType": "address",
          "name": "",
          "type": "address"
        }
      ],
      "stateMutability": "view",
      "type": "function"
    },
    {
      "inputs": [
        {
          "internalType": "uint256",
          "name": "tokenId",
          "type": "uint256"
        }
      ],
      "name": "ownerOf",
      "outputs": [
        {
          "internalType": "address",
          "name": "",
          "type": "address"
        }
      ],
      "stateMutability": "view",
      "type": "function"
    },
    {
      "inputs": [],
      "name": "renounceOwnership",
      "outputs": [],
      "stateMutability": "nonpayable",
      "type": "function"
    },
    {
      "inputs": [
        {
          "internalType": "address",
          "name": "from",
          "type": "address"
        },
        {
          "internalType": "address",
          "name": "to",
          "type": "address"
        },
        {
          "internalType": "uint256",
          "name": "tokenId",
          "type": "uint256"
        }
      ],
      "name": "safeTransferFrom",
      "outputs": [],
      "stateMutability": "nonpayable",
      "type": "function"
    },
    {
      "inputs": [
        {
          "internalType": "address",
          "name": "from",
          "type": "address"
        },
        {
          "internalType": "address",
          "name": "to",
          "type": "address"
        },
        {
          "internalType": "uint256",
          "name": "tokenId",
          "type": "uint256"
        },
        {
          "internalType": "bytes",
          "name": "data",
          "type": "bytes"
        }
      ],
      "name": "safeTransferFrom",
      "outputs": [],
      "stateMutability": "nonpayable",
      "type": "function"
    },
    {
      "inputs": [
        {
          "internalType": "address",
          "name": "operator",
          "type": "address"
        },
        {
          "internalType": "bool",
          "name": "approved",
          "type": "bool"
        }
      ],
      "name": "setApprovalForAll",
      "outputs": [],
      "stateMutability": "nonpayable",
      "type": "function"
    },
    {
      "inputs": [
        {
          "internalType": "string",
          "name": "uri",
          "type": "string"
        }
      ],
      "name": "setBaseImageURI",
      "outputs": [],
      "stateMutability": "nonpayable",
      "type": "function"
    },
    {
      "inputs": [
        {
          "internalType": "address",
          "name": "c",
          "type": "address"
        }
      ],
      "name": "setCore",
      "outputs": [],
      "stateMutability": "nonpayable",
      "type": "function"
    },
    {
      "inputs": [
        {
          "internalType": "bytes4",
          "name": "interfaceId",
          "type": "bytes4"
        }
      ],
      "name": "supportsInterface",
      "outputs": [
        {
          "internalType": "bool",
          "name": "",
          "type": "bool"
        }
      ],
      "stateMutability": "view",
      "type": "function"
    },
    {
      "inputs": [],
      "name": "symbol",
      "outputs": [
        {
          "internalType": "string",
          "name": "",
          "type": "string"
        }
      ],
      "stateMutability": "view",
      "type": "function"
    },
    {
      "inputs": [
        {
          "internalType": "uint256",
          "name": "index",
          "type": "uint256"
        }
      ],
      "name": "tokenByIndex",
      "outputs": [
        {
          "internalType": "uint256",
          "name": "",
          "type": "uint256"
        }
      ],
      "stateMutability": "view",
      "type": "function"
    },
    {
      "inputs": [
        {
          "internalType": "address",
          "name": "owner",
          "type": "address"
        },
        {
          "internalType": "uint256",
          "name": "index",
          "type": "uint256"
        }
      ],
      "name": "tokenOfOwnerByIndex",
      "outputs": [
        {
          "internalType": "uint256",
          "name": "",
          "type": "uint256"
        }
      ],
      "stateMutability": "view",
      "type": "function"
    },
    {
      "inputs": [
        {
          "internalType": "uint256",
          "name": "tokenId",
          "type": "uint256"
        }
      ],
      "name": "tokenURI",
      "outputs": [
        {
          "internalType": "string",
          "name": "",
          "type": "string"
        }
      ],
      "stateMutability": "view",
      "type": "function"
    },
    {
      "inputs": [],
      "name": "totalSupply",
      "outputs": [
        {
          "internalType": "uint256",
          "name": "",
          "type": "uint256"
        }
      ],
      "stateMutability": "view",
      "type": "function"
    },
    {
      "inputs": [
        {
          "internalType": "address",
          "name": "from",
          "type": "address"
        },
        {
          "internalType": "address",
          "name": "to",
          "type": "address"
        },
        {
          "internalType": "uint256",
          "name": "tokenId",
          "type": "uint256"
        }
      ],
      "name": "transferFrom",
      "outputs": [],
      "stateMutability": "nonpayable",
      "type": "function"
    },
    {
      "inputs": [
        {
          "internalType": "address",
          "name": "newOwner",
          "type": "address"
        }
      ],
      "name": "transferOwnership",
      "outputs": [],
      "stateMutability": "nonpayable",
      "type": "function"
    }
  ],
  "bytecode": "0x60806040526001600c553480156200001657600080fd5b50604051620046843803806200468483398181016040528101906200003c9190620003c8565b336040518060400160405280601281526020017f5a65746151756573742054726176656c657200000000000000000000000000008152506040518060400160405280600381526020017f5a515400000000000000000000000000000000000000000000000000000000008152508160009081620000ba919062000664565b508060019081620000cc919062000664565b505050600073ffffffffffffffffffffffffffffffffffffffff168173ffffffffffffffffffffffffffffffffffffffff1603620001445760006040517f1e4fbdf70000000000000000000000000000000000000000000000000000000081526004016200013b919062000790565b60405180910390fd5b62000155816200016f60201b60201c565b5080600d908162000167919062000664565b5050620007ad565b6000600a60009054906101000a900473ffffffffffffffffffffffffffffffffffffffff16905081600a60006101000a81548173ffffffffffffffffffffffffffffffffffffffff021916908373ffffffffffffffffffffffffffffffffffffffff1602179055508173ffffffffffffffffffffffffffffffffffffffff168173ffffffffffffffffffffffffffffffffffffffff167f8be0079c531659141344cd1fd0a4f28419497f9722a3daafe3b4186f6b6457e060405160405180910390a35050565b6000604051905090565b600080fd5b600080fd5b600080fd5b600080fd5b6000601f19601f8301169050919050565b7f4e487b7100000000000000000000000000000000000000000000000000000000600052604160045260246000fd5b6200029e8262000253565b810181811067ffffffffffffffff82111715620002c057620002bf62000264565b5b80604052505050565b6000620002d562000235565b9050620002e3828262000293565b919050565b600067ffffffffffffffff82111562000306576200030562000264565b5b620003118262000253565b9050602081019050919050565b60005b838110156200033e57808201518184015260208101905062000321565b60008484015250505050565b6000620003616200035b84620002e8565b620002c9565b90508281526020810184848401111562000380576200037f6200024e565b5b6200038d8482856200031e565b509392505050565b600082601f830112620003ad57620003ac62000249565b5b8151620003bf8482602086016200034a565b91505092915050565b600060208284031215620003e157620003e06200023f565b5b600082015167ffffffffffffffff81111562000402576200040162000244565b5b620004108482850162000395565b91505092915050565b600081519050919050565b7f4e487b7100000000000000000000000000000000000000000000000000000000600052602260045260246000fd5b600060028204905060018216806200046c57607f821691505b60208210810362000482576200048162000424565b5b50919050565b60008190508160005260206000209050919050565b60006020601f8301049050919050565b600082821b905092915050565b600060088302620004ec7fffffffffffffffffffffffffffffffffffffffffffffffffffffffffffffffff82620004ad565b620004f88683620004ad565b95508019841693508086168417925050509392505050565b6000819050919050565b6000819050919050565b6000620005456200053f620005398462000510565b6200051a565b62000510565b9050919050565b6000819050919050565b620005618362000524565b6200057962000570826200054c565b848454620004ba565b825550505050565b600090565b6200059062000581565b6200059d81848462000556565b505050565b5b81811015620005c557620005b960008262000586565b600181019050620005a3565b5050565b601f8211156200061457620005de8162000488565b620005e9846200049d565b81016020851015620005f9578190505b6200061162000608856200049d565b830182620005a2565b50505b505050565b600082821c905092915050565b6000620006396000198460080262000619565b1980831691505092915050565b600062000654838362000626565b9150826002028217905092915050565b6200066f8262000419565b67ffffffffffffffff8111156200068b576200068a62000264565b5b62000697825462000453565b620006a4828285620005c9565b600060209050601f831160018114620006dc5760008415620006c7578287015190505b620006d3858262000646565b86555062000743565b601f198416620006ec8662000488565b60005b828110156200071657848901518255600182019150602085019450602081019050620006ef565b8683101562000736578489015162000732601f89168262000626565b8355505b6001600288020188555050505b505050505050565b600073ffffffffffffffffffffffffffffffffffffffff82169050919050565b600062000778826200074b565b9050919050565b6200078a816200076b565b82525050565b6000602082019050620007a760008301846200077f565b92915050565b613ec780620007bd6000396000f3fe608060405234801561001057600080fd5b50600436106101735760003560e01c806370a08231116100de57806395d89b4111610097578063c87b56dd11610071578063c87b56dd14610436578063e985e9c514610466578063f2f4eb2614610496578063f2fde38b146104b457610173565b806395d89b41146103e0578063a22cb465146103fe578063b88d4fde1461041a57610173565b806370a0823114610332578063715018a61461036257806374f82e301461036c578063800096301461038a5780638647ca76146103a65780638da5cb5b146103c257610173565b806323b872dd1161013057806323b872dd1461023a5780632f745c591461025657806342842e0e1461028657806348758697146102a25780634f6ccce7146102d25780636352211e1461030257610173565b806301ffc9a71461017857806306fdde03146101a8578063081812fc146101c6578063095ea7b3146101f65780631249c58b1461021257806318160ddd1461021c575b600080fd5b610192600480360381019061018d91906127cc565b6104d0565b60405161019f9190612814565b60405180910390f35b6101b061054a565b6040516101bd91906128bf565b60405180910390f35b6101e060048036038101906101db9190612917565b6105dc565b6040516101ed9190612985565b60405180910390f35b610210600480360381019061020b91906129cc565b6105f8565b005b61021a61060e565b005b610224610727565b6040516102319190612a1b565b60405180910390f35b610254600480360381019061024f9190612a36565b610734565b005b610270600480360381019061026b91906129cc565b610836565b60405161027d9190612a1b565b60405180910390f35b6102a0600480360381019061029b9190612a36565b6108df565b005b6102bc60048036038101906102b79190612917565b6108ff565b6040516102c99190612b00565b60405180910390f35b6102ec60048036038101906102e79190612917565b610933565b6040516102f99190612a1b565b60405180910390f35b61031c60048036038101906103179190612917565b6109a9565b6040516103299190612985565b60405180910390f35b61034c60048036038101906103479190612b1b565b6109bb565b6040516103599190612a1b565b60405180910390f35b61036a610a75565b005b610374610a89565b60405161038191906128bf565b60405180910390f35b6103a4600480360381019061039f9190612b1b565b610b17565b005b6103c060048036038101906103bb9190612bad565b610b63565b005b6103ca610b81565b6040516103d79190612985565b60405180910390f35b6103e8610bab565b6040516103f591906128bf565b60405180910390f35b61041860048036038101906104139190612c26565b610c3d565b005b610434600480360381019061042f9190612d96565b610c53565b005b610450600480360381019061044b9190612917565b610c78565b60405161045d91906128bf565b60405180910390f35b610480600480360381019061047b9190612e19565b610efb565b60405161048d9190612814565b60405180910390f35b61049e610f8f565b6040516104ab9190612985565b60405180910390f35b6104ce60048036038101906104c99190612b1b565b610fb5565b005b60007f780e9d63000000000000000000000000000000000000000000000000000000007bffffffffffffffffffffffffffffffffffffffffffffffffffffffff1916827bffffffffffffffffffffffffffffffffffffffffffffffffffffffff1916148061054357506105428261103b565b5b9050919050565b60606000805461055990612e88565b80601f016020809104026020016040519081016040528092919081815260200182805461058590612e88565b80156105d25780601f106105a7576101008083540402835291602001916105d2565b820191906000526020600020905b8154815290600101906020018083116105b557829003601f168201915b5050505050905090565b60006105e78261111d565b506105f1826111a5565b9050919050565b61060a82826106056111e2565b6111ea565b5050565b6000610619336109bb565b14610659576040517f08c379a000000000000000000000000000000000000000000000000000000000815260040161065090612f05565b60405180910390fd5b6000600c600081548092919061066e90612f54565b91905055905060004433834260405160200161068d9493929190613005565b6040516020818303038152906040528051906020012060001c905060006064826106b79190613082565b9050600060028210156106cd57600290506106dc565b60148210156106db57600190505b5b80600b600086815260200190815260200160002060006101000a81548160ff0219169083600281111561071257610711612a89565b5b021790555061072133856111fc565b50505050565b6000600880549050905090565b600073ffffffffffffffffffffffffffffffffffffffff168273ffffffffffffffffffffffffffffffffffffffff16036107a65760006040517f64a0ae9200000000000000000000000000000000000000000000000000000000815260040161079d9190612985565b60405180910390fd5b60006107ba83836107b56111e2565b61121a565b90508373ffffffffffffffffffffffffffffffffffffffff168173ffffffffffffffffffffffffffffffffffffffff1614610830578382826040517f64283d7b000000000000000000000000000000000000000000000000000000008152600401610827939291906130b3565b60405180910390fd5b50505050565b6000610841836109bb565b82106108865782826040517fa57d13dc00000000000000000000000000000000000000000000000000000000815260040161087d9291906130ea565b60405180910390fd5b600660008473ffffffffffffffffffffffffffffffffffffffff1673ffffffffffffffffffffffffffffffffffffffff168152602001908152602001600020600083815260200190815260200160002054905092915050565b6108fa83838360405180602001604052806000815250610c53565b505050565b600061090a8261111d565b50600b600083815260200190815260200160002060009054906101000a900460ff169050919050565b600061093d610727565b8210610983576000826040517fa57d13dc00000000000000000000000000000000000000000000000000000000815260040161097a9291906130ea565b60405180910390fd5b6008828154811061099757610996613113565b5b90600052602060002001549050919050565b60006109b48261111d565b9050919050565b60008073ffffffffffffffffffffffffffffffffffffffff168273ffffffffffffffffffffffffffffffffffffffff1603610a2e5760006040517f89c62b64000000000000000000000000000000000000000000000000000000008152600401610a259190612985565b60405180910390fd5b600360008373ffffffffffffffffffffffffffffffffffffffff1673ffffffffffffffffffffffffffffffffffffffff168152602001908152602001600020549050919050565b610a7d611337565b610a8760006113be565b565b600d8054610a9690612e88565b80601f0160208091040260200160405190810160405280929190818152602001828054610ac290612e88565b8015610b0f5780601f10610ae457610100808354040283529160200191610b0f565b820191906000526020600020905b815481529060010190602001808311610af257829003601f168201915b505050505081565b610b1f611337565b80600e60006101000a81548173ffffffffffffffffffffffffffffffffffffffff021916908373ffffffffffffffffffffffffffffffffffffffff16021790555050565b610b6b611337565b8181600d9182610b7c9291906132f9565b505050565b6000600a60009054906101000a900473ffffffffffffffffffffffffffffffffffffffff16905090565b606060018054610bba90612e88565b80601f0160208091040260200160405190810160405280929190818152602001828054610be690612e88565b8015610c335780601f10610c0857610100808354040283529160200191610c33565b820191906000526020600020905b815481529060010190602001808311610c1657829003601f168201915b5050505050905090565b610c4f610c486111e2565b8383611484565b5050565b610c5e848484610734565b610c72610c696111e2565b858585856115f3565b50505050565b6060610c838261111d565b506000610caf600b600085815260200190815260200160002060009054906101000a900460ff166117a4565b90506000600d82604051602001610cc79291906134d4565b60405160208183030381529060405290506000610d03600b600087815260200190815260200160002060009054906101000a900460ff166118b5565b604051602001610d1391906135c1565b6040516020818303038152906040529050600073ffffffffffffffffffffffffffffffffffffffff16600e60009054906101000a900473ffffffffffffffffffffffffffffffffffffffff1673ffffffffffffffffffffffffffffffffffffffff1614610e7657600e60009054906101000a900473ffffffffffffffffffffffffffffffffffffffff1673ffffffffffffffffffffffffffffffffffffffff166375518b24866040518263ffffffff1660e01b8152600401610dd59190612a1b565b608060405180830381865afa925050508015610e0f57506040513d601f19601f82011682018060405250810190610e0c919061363f565b60015b15610e755784610e1e856119c6565b610e2d8563ffffffff166119c6565b610e3c8563ffffffff166119c6565b610e4b8563ffffffff166119c6565b604051602001610e5f95949392919061388f565b6040516020818303038152906040529450505050505b5b80604051602001610e87919061397e565b60405160208183030381529060405290506000610ea3866119c6565b8383604051602001610eb793929190613b8e565b6040516020818303038152906040529050610ed181611a94565b604051602001610ee19190613c4d565b604051602081830303815290604052945050505050919050565b6000600560008473ffffffffffffffffffffffffffffffffffffffff1673ffffffffffffffffffffffffffffffffffffffff16815260200190815260200160002060008373ffffffffffffffffffffffffffffffffffffffff1673ffffffffffffffffffffffffffffffffffffffff16815260200190815260200160002060009054906101000a900460ff16905092915050565b600e60009054906101000a900473ffffffffffffffffffffffffffffffffffffffff1681565b610fbd611337565b600073ffffffffffffffffffffffffffffffffffffffff168173ffffffffffffffffffffffffffffffffffffffff160361102f5760006040517f1e4fbdf70000000000000000000000000000000000000000000000000000000081526004016110269190612985565b60405180910390fd5b611038816113be565b50565b60007f80ac58cd000000000000000000000000000000000000000000000000000000007bffffffffffffffffffffffffffffffffffffffffffffffffffffffff1916827bffffffffffffffffffffffffffffffffffffffffffffffffffffffff1916148061110657507f5b5e139f000000000000000000000000000000000000000000000000000000007bffffffffffffffffffffffffffffffffffffffffffffffffffffffff1916827bffffffffffffffffffffffffffffffffffffffffffffffffffffffff1916145b80611116575061111582611ac1565b5b9050919050565b60008061112983611b2b565b9050600073ffffffffffffffffffffffffffffffffffffffff168173ffffffffffffffffffffffffffffffffffffffff160361119c57826040517f7e2732890000000000000000000000000000000000000000000000000000000081526004016111939190612a1b565b60405180910390fd5b80915050919050565b60006004600083815260200190815260200160002060009054906101000a900473ffffffffffffffffffffffffffffffffffffffff169050919050565b600033905090565b6111f78383836001611b68565b505050565b611216828260405180602001604052806000815250611d2d565b5050565b600080611228858585611d51565b9050600073ffffffffffffffffffffffffffffffffffffffff168173ffffffffffffffffffffffffffffffffffffffff160361126c5761126784611f6b565b6112ab565b8473ffffffffffffffffffffffffffffffffffffffff168173ffffffffffffffffffffffffffffffffffffffff16146112aa576112a98185611fb4565b5b5b600073ffffffffffffffffffffffffffffffffffffffff168573ffffffffffffffffffffffffffffffffffffffff16036112ed576112e88461209f565b61132c565b8473ffffffffffffffffffffffffffffffffffffffff168173ffffffffffffffffffffffffffffffffffffffff161461132b5761132a8585612170565b5b5b809150509392505050565b61133f6111e2565b73ffffffffffffffffffffffffffffffffffffffff1661135d610b81565b73ffffffffffffffffffffffffffffffffffffffff16146113bc576113806111e2565b6040517f118cdaa70000000000000000000000000000000000000000000000000000000081526004016113b39190612985565b60405180910390fd5b565b6000600a60009054906101000a900473ffffffffffffffffffffffffffffffffffffffff16905081600a60006101000a81548173ffffffffffffffffffffffffffffffffffffffff021916908373ffffffffffffffffffffffffffffffffffffffff1602179055508173ffffffffffffffffffffffffffffffffffffffff168173ffffffffffffffffffffffffffffffffffffffff167f8be0079c531659141344cd1fd0a4f28419497f9722a3daafe3b4186f6b6457e060405160405180910390a35050565b600073ffffffffffffffffffffffffffffffffffffffff168273ffffffffffffffffffffffffffffffffffffffff16036114f557816040517f5b08ba180000000000000000000000000000000000000000000000000000000081526004016114ec9190612985565b60405180910390fd5b80600560008573ffffffffffffffffffffffffffffffffffffffff1673ffffffffffffffffffffffffffffffffffffffff16815260200190815260200160002060008473ffffffffffffffffffffffffffffffffffffffff1673ffffffffffffffffffffffffffffffffffffffff16815260200190815260200160002060006101000a81548160ff0219169083151502179055508173ffffffffffffffffffffffffffffffffffffffff168373ffffffffffffffffffffffffffffffffffffffff167f17307eab39ab6107e8899845ad3d59bd9653f200f220920489ca2b5937696c31836040516115e69190612814565b60405180910390a3505050565b60008373ffffffffffffffffffffffffffffffffffffffff163b111561179d578273ffffffffffffffffffffffffffffffffffffffff1663150b7a02868685856040518563ffffffff1660e01b81526004016116529493929190613cb9565b6020604051808303816000875af192505050801561168e57506040513d601f19601f8201168201806040525081019061168b9190613d1a565b60015b611712573d80600081146116be576040519150601f19603f3d011682016040523d82523d6000602084013e6116c3565b606091505b50600081510361170a57836040517f64a0ae920000000000000000000000000000000000000000000000000000000081526004016117019190612985565b60405180910390fd5b805160208201fd5b63150b7a0260e01b7bffffffffffffffffffffffffffffffffffffffffffffffffffffffff1916817bffffffffffffffffffffffffffffffffffffffffffffffffffffffff19161461179b57836040517f64a0ae920000000000000000000000000000000000000000000000000000000081526004016117929190612985565b60405180910390fd5b505b5050505050565b6060600160028111156117ba576117b9612a89565b5b8260028111156117cd576117cc612a89565b5b0361180f576040518060400160405280600481526020017f726172650000000000000000000000000000000000000000000000000000000081525090506118b0565b60028081111561182257611821612a89565b5b82600281111561183557611834612a89565b5b03611877576040518060400160405280600481526020017f657069630000000000000000000000000000000000000000000000000000000081525090506118b0565b6040518060400160405280600681526020017f6e6f726d616c000000000000000000000000000000000000000000000000000081525090505b919050565b6060600160028111156118cb576118ca612a89565b5b8260028111156118de576118dd612a89565b5b03611920576040518060400160405280600481526020017f526172650000000000000000000000000000000000000000000000000000000081525090506119c1565b60028081111561193357611932612a89565b5b82600281111561194657611945612a89565b5b03611988576040518060400160405280600481526020017f457069630000000000000000000000000000000000000000000000000000000081525090506119c1565b6040518060400160405280600681526020017f4e6f726d616c000000000000000000000000000000000000000000000000000081525090505b919050565b6060600060016119d5846121fb565b01905060008167ffffffffffffffff8111156119f4576119f3612c6b565b5b6040519080825280601f01601f191660200182016040528015611a265781602001600182028036833780820191505090505b509050600082602083010190505b600115611a89578080600190039150507f3031323334353637383961626364656600000000000000000000000000000000600a86061a8153600a8581611a7d57611a7c613053565b5b04945060008503611a34575b819350505050919050565b6060611aba82604051806060016040528060408152602001613e5260409139600161234e565b9050919050565b60007f01ffc9a7000000000000000000000000000000000000000000000000000000007bffffffffffffffffffffffffffffffffffffffffffffffffffffffff1916827bffffffffffffffffffffffffffffffffffffffffffffffffffffffff1916149050919050565b60006002600083815260200190815260200160002060009054906101000a900473ffffffffffffffffffffffffffffffffffffffff169050919050565b8080611ba15750600073ffffffffffffffffffffffffffffffffffffffff168273ffffffffffffffffffffffffffffffffffffffff1614155b15611cd5576000611bb18461111d565b9050600073ffffffffffffffffffffffffffffffffffffffff168373ffffffffffffffffffffffffffffffffffffffff1614158015611c1c57508273ffffffffffffffffffffffffffffffffffffffff168173ffffffffffffffffffffffffffffffffffffffff1614155b8015611c2f5750611c2d8184610efb565b155b15611c7157826040517fa9fbf51f000000000000000000000000000000000000000000000000000000008152600401611c689190612985565b60405180910390fd5b8115611cd357838573ffffffffffffffffffffffffffffffffffffffff168273ffffffffffffffffffffffffffffffffffffffff167f8c5be1e5ebec7d5bd14f71427d1e84f3dd0314c0f7b2291e5b200ac8c7c3b92560405160405180910390a45b505b836004600085815260200190815260200160002060006101000a81548173ffffffffffffffffffffffffffffffffffffffff021916908373ffffffffffffffffffffffffffffffffffffffff16021790555050505050565b611d3783836124e2565b611d4c611d426111e2565b60008585856115f3565b505050565b600080611d5d84611b2b565b9050600073ffffffffffffffffffffffffffffffffffffffff168373ffffffffffffffffffffffffffffffffffffffff1614611d9f57611d9e8184866125db565b5b600073ffffffffffffffffffffffffffffffffffffffff168173ffffffffffffffffffffffffffffffffffffffff1614611e3057611de1600085600080611b68565b6001600360008373ffffffffffffffffffffffffffffffffffffffff1673ffffffffffffffffffffffffffffffffffffffff168152602001908152602001600020600082825403925050819055505b600073ffffffffffffffffffffffffffffffffffffffff168573ffffffffffffffffffffffffffffffffffffffff1614611eb3576001600360008773ffffffffffffffffffffffffffffffffffffffff1673ffffffffffffffffffffffffffffffffffffffff168152602001908152602001600020600082825401925050819055505b846002600086815260200190815260200160002060006101000a81548173ffffffffffffffffffffffffffffffffffffffff021916908373ffffffffffffffffffffffffffffffffffffffff160217905550838573ffffffffffffffffffffffffffffffffffffffff168273ffffffffffffffffffffffffffffffffffffffff167fddf252ad1be2c89b69c2b068fc378daa952ba7f163c4a11628f55a4df523b3ef60405160405180910390a4809150509392505050565b6008805490506009600083815260200190815260200160002081905550600881908060018154018082558091505060019003906000526020600020016000909190919091505550565b6000611fbf836109bb565b90506000600760008481526020019081526020016000205490506000600660008673ffffffffffffffffffffffffffffffffffffffff1673ffffffffffffffffffffffffffffffffffffffff168152602001908152602001600020905082821461206b5760008160008581526020019081526020016000205490508082600085815260200190815260200160002081905550826007600083815260200190815260200160002081905550505b6007600085815260200190815260200160002060009055806000848152602001908152602001600020600090555050505050565b600060016008805490506120b39190613d47565b90506000600960008481526020019081526020016000205490506000600883815481106120e3576120e2613113565b5b90600052602060002001549050806008838154811061210557612104613113565b5b90600052602060002001819055508160096000838152602001908152602001600020819055506009600085815260200190815260200160002060009055600880548061215457612153613d7b565b5b6001900381819060005260206000200160009055905550505050565b6000600161217d846109bb565b6121879190613d47565b905081600660008573ffffffffffffffffffffffffffffffffffffffff1673ffffffffffffffffffffffffffffffffffffffff168152602001908152602001600020600083815260200190815260200160002081905550806007600084815260200190815260200160002081905550505050565b600080600090507a184f03e93ff9f4daa797ed6e38ed64bf6a1f0100000000000000008310612259577a184f03e93ff9f4daa797ed6e38ed64bf6a1f010000000000000000838161224f5761224e613053565b5b0492506040810190505b6d04ee2d6d415b85acef81000000008310612296576d04ee2d6d415b85acef8100000000838161228c5761228b613053565b5b0492506020810190505b662386f26fc1000083106122c557662386f26fc1000083816122bb576122ba613053565b5b0492506010810190505b6305f5e10083106122ee576305f5e10083816122e4576122e3613053565b5b0492506008810190505b612710831061231357612710838161230957612308613053565b5b0492506004810190505b60648310612336576064838161232c5761232b613053565b5b0492506002810190505b600a8310612345576001810190505b80915050919050565b60606000845103612370576040518060200160405280600081525090506124db565b6000826123a25760036002865160046123899190613daa565b6123939190613dec565b61239d9190613e20565b6123c9565b6003600286516123b29190613dec565b6123bc9190613e20565b60046123c89190613daa565b5b905060008167ffffffffffffffff8111156123e7576123e6612c6b565b5b6040519080825280601f01601f1916602001820160405280156124195781602001600182028036833780820191505090505b50905060018501602082018788518901602081018051600082525b8284101561248f576003840193508351603f8160121c168701518653600186019550603f81600c1c168701518653600186019550603f8160061c168701518653600186019550603f8116870151865360018601955050612434565b80825289156124cf5760038c5106600181146124b257600281146124c5576124cd565b603d6001870353603d60028703536124cd565b603d60018703535b505b50505050505080925050505b9392505050565b600073ffffffffffffffffffffffffffffffffffffffff168273ffffffffffffffffffffffffffffffffffffffff16036125545760006040517f64a0ae9200000000000000000000000000000000000000000000000000000000815260040161254b9190612985565b60405180910390fd5b60006125628383600061121a565b9050600073ffffffffffffffffffffffffffffffffffffffff168173ffffffffffffffffffffffffffffffffffffffff16146125d65760006040517f73c6ac6e0000000000000000000000000000000000000000000000000000000081526004016125cd9190612985565b60405180910390fd5b505050565b6125e683838361269f565b61269a57600073ffffffffffffffffffffffffffffffffffffffff168373ffffffffffffffffffffffffffffffffffffffff160361265b57806040517f7e2732890000000000000000000000000000000000000000000000000000000081526004016126529190612a1b565b60405180910390fd5b81816040517f177e802f0000000000000000000000000000000000000000000000000000000081526004016126919291906130ea565b60405180910390fd5b505050565b60008073ffffffffffffffffffffffffffffffffffffffff168373ffffffffffffffffffffffffffffffffffffffff161415801561275757508273ffffffffffffffffffffffffffffffffffffffff168473ffffffffffffffffffffffffffffffffffffffff16148061271857506127178484610efb565b5b8061275657508273ffffffffffffffffffffffffffffffffffffffff1661273e836111a5565b73ffffffffffffffffffffffffffffffffffffffff16145b5b90509392505050565b6000604051905090565b600080fd5b600080fd5b60007fffffffff0000000000000000000000000000000000000000000000000000000082169050919050565b6127a981612774565b81146127b457600080fd5b50565b6000813590506127c6816127a0565b92915050565b6000602082840312156127e2576127e161276a565b5b60006127f0848285016127b7565b91505092915050565b60008115159050919050565b61280e816127f9565b82525050565b60006020820190506128296000830184612805565b92915050565b600081519050919050565b600082825260208201905092915050565b60005b8381101561286957808201518184015260208101905061284e565b60008484015250505050565b6000601f19601f8301169050919050565b60006128918261282f565b61289b818561283a565b93506128ab81856020860161284b565b6128b481612875565b840191505092915050565b600060208201905081810360008301526128d98184612886565b905092915050565b6000819050919050565b6128f4816128e1565b81146128ff57600080fd5b50565b600081359050612911816128eb565b92915050565b60006020828403121561292d5761292c61276a565b5b600061293b84828501612902565b91505092915050565b600073ffffffffffffffffffffffffffffffffffffffff82169050919050565b600061296f82612944565b9050919050565b61297f81612964565b82525050565b600060208201905061299a6000830184612976565b92915050565b6129a981612964565b81146129b457600080fd5b50565b6000813590506129c6816129a0565b92915050565b600080604083850312156129e3576129e261276a565b5b60006129f1858286016129b7565b9250506020612a0285828601612902565b9150509250929050565b612a15816128e1565b82525050565b6000602082019050612a306000830184612a0c565b92915050565b600080600060608486031215612a4f57612a4e61276a565b5b6000612a5d868287016129b7565b9350506020612a6e868287016129b7565b9250506040612a7f86828701612902565b9150509250925092565b7f4e487b7100000000000000000000000000000000000000000000000000000000600052602160045260246000fd5b60038110612ac957612ac8612a89565b5b50565b6000819050612ada82612ab8565b919050565b6000612aea82612acc565b9050919050565b612afa81612adf565b82525050565b6000602082019050612b156000830184612af1565b92915050565b600060208284031215612b3157612b3061276a565b5b6000612b3f848285016129b7565b91505092915050565b600080fd5b600080fd5b600080fd5b60008083601f840112612b6d57612b6c612b48565b5b8235905067ffffffffffffffff811115612b8a57612b89612b4d565b5b602083019150836001820283011115612ba657612ba5612b52565b5b9250929050565b60008060208385031215612bc457612bc361276a565b5b600083013567ffffffffffffffff811115612be257612be161276f565b5b612bee85828601612b57565b92509250509250929050565b612c03816127f9565b8114612c0e57600080fd5b50565b600081359050612c2081612bfa565b92915050565b60008060408385031215612c3d57612c3c61276a565b5b6000612c4b858286016129b7565b9250506020612c5c85828601612c11565b9150509250929050565b600080fd5b7f4e487b7100000000000000000000000000000000000000000000000000000000600052604160045260246000fd5b612ca382612875565b810181811067ffffffffffffffff82111715612cc257612cc1612c6b565b5b80604052505050565b6000612cd5612760565b9050612ce18282612c9a565b919050565b600067ffffffffffffffff821115612d0157612d00612c6b565b5b612d0a82612875565b9050602081019050919050565b82818337600083830152505050565b6000612d39612d3484612ce6565b612ccb565b905082815260208101848484011115612d5557612d54612c66565b5b612d60848285612d17565b509392505050565b600082601f830112612d7d57612d7c612b48565b5b8135612d8d848260208601612d26565b91505092915050565b60008060008060808587031215612db057612daf61276a565b5b6000612dbe878288016129b7565b9450506020612dcf878288016129b7565b9350506040612de087828801612902565b925050606085013567ffffffffffffffff811115612e0157612e0061276f565b5b612e0d87828801612d68565b91505092959194509250565b60008060408385031215612e3057612e2f61276a565b5b6000612e3e858286016129b7565b9250506020612e4f858286016129b7565b9150509250929050565b7f4e487b7100000000000000000000000000000000000000000000000000000000600052602260045260246000fd5b60006002820490506001821680612ea057607f821691505b602082108103612eb357612eb2612e59565b5b50919050565b7f4f6e652070657220616464726573730000000000000000000000000000000000600082015250565b6000612eef600f8361283a565b9150612efa82612eb9565b602082019050919050565b60006020820190508181036000830152612f1e81612ee2565b9050919050565b7f4e487b7100000000000000000000000000000000000000000000000000000000600052601160045260246000fd5b6000612f5f826128e1565b91507fffffffffffffffffffffffffffffffffffffffffffffffffffffffffffffffff8203612f9157612f90612f25565b5b600182019050919050565b6000819050919050565b612fb7612fb2826128e1565b612f9c565b82525050565b60008160601b9050919050565b6000612fd582612fbd565b9050919050565b6000612fe782612fca565b9050919050565b612fff612ffa82612964565b612fdc565b82525050565b60006130118287612fa6565b6020820191506130218286612fee565b6014820191506130318285612fa6565b6020820191506130418284612fa6565b60208201915081905095945050505050565b7f4e487b7100000000000000000000000000000000000000000000000000000000600052601260045260246000fd5b600061308d826128e1565b9150613098836128e1565b9250826130a8576130a7613053565b5b828206905092915050565b60006060820190506130c86000830186612976565b6130d56020830185612a0c565b6130e26040830184612976565b949350505050565b60006040820190506130ff6000830185612976565b61310c6020830184612a0c565b9392505050565b7f4e487b7100000000000000000000000000000000000000000000000000000000600052603260045260246000fd5b600082905092915050565b60008190508160005260206000209050919050565b60006020601f8301049050919050565b600082821b905092915050565b6000600883026131af7fffffffffffffffffffffffffffffffffffffffffffffffffffffffffffffffff82613172565b6131b98683613172565b95508019841693508086168417925050509392505050565b6000819050919050565b60006131f66131f16131ec846128e1565b6131d1565b6128e1565b9050919050565b6000819050919050565b613210836131db565b61322461321c826131fd565b84845461317f565b825550505050565b600090565b61323961322c565b613244818484613207565b505050565b5b818110156132685761325d600082613231565b60018101905061324a565b5050565b601f8211156132ad5761327e8161314d565b61328784613162565b81016020851015613296578190505b6132aa6132a285613162565b830182613249565b50505b505050565b600082821c905092915050565b60006132d0600019846008026132b2565b1980831691505092915050565b60006132e983836132bf565b9150826002028217905092915050565b6133038383613142565b67ffffffffffffffff81111561331c5761331b612c6b565b5b6133268254612e88565b61333182828561326c565b6000601f831160018114613360576000841561334e578287013590505b61335885826132dd565b8655506133c0565b601f19841661336e8661314d565b60005b8281101561339657848901358255600182019150602085019450602081019050613371565b868310156133b357848901356133af601f8916826132bf565b8355505b6001600288020188555050505b50505050505050565b600081905092915050565b600081546133e181612e88565b6133eb81866133c9565b94506001821660008114613406576001811461341b5761344e565b60ff198316865281151582028601935061344e565b6134248561314d565b60005b8381101561344657815481890152600182019150602081019050613427565b838801955050505b50505092915050565b60006134628261282f565b61346c81856133c9565b935061347c81856020860161284b565b80840191505092915050565b7f2e706e6700000000000000000000000000000000000000000000000000000000600082015250565b60006134be6004836133c9565b91506134c982613488565b600482019050919050565b60006134e082856133d4565b91506134ec8284613457565b91506134f7826134b1565b91508190509392505050565b7f5b7b2274726169745f74797065223a22726172697479222c2276616c7565223a60008201527f2200000000000000000000000000000000000000000000000000000000000000602082015250565b600061355f6021836133c9565b915061356a82613503565b602182019050919050565b7f227d000000000000000000000000000000000000000000000000000000000000600082015250565b60006135ab6002836133c9565b91506135b682613575565b600282019050919050565b60006135cc82613552565b91506135d88284613457565b91506135e38261359e565b915081905092915050565b6000815190506135fd816128eb565b92915050565b600063ffffffff82169050919050565b61361c81613603565b811461362757600080fd5b50565b60008151905061363981613613565b92915050565b600080600080608085870312156136595761365861276a565b5b6000613667878288016135ee565b94505060206136788782880161362a565b93505060406136898782880161362a565b925050606061369a8782880161362a565b91505092959194509250565b600081519050919050565b600081905092915050565b60006136c7826136a6565b6136d181856136b1565b93506136e181856020860161284b565b80840191505092915050565b7f2c7b2274726169745f74797065223a22776f726c64222c2276616c7565223a22600082015250565b60006137236020836133c9565b915061372e826136ed565b602082019050919050565b7f2c7b2274726169745f74797065223a22627566665f61746b222c2276616c756560008201527f223a220000000000000000000000000000000000000000000000000000000000602082015250565b60006137956023836133c9565b91506137a082613739565b602382019050919050565b7f2c7b2274726169745f74797065223a22627566665f646566222c2276616c756560008201527f223a220000000000000000000000000000000000000000000000000000000000602082015250565b60006138076023836133c9565b9150613812826137ab565b602382019050919050565b7f2c7b2274726169745f74797065223a22627566665f737064222c2276616c756560008201527f223a220000000000000000000000000000000000000000000000000000000000602082015250565b60006138796023836133c9565b91506138848261381d565b602382019050919050565b600061389b82886136bc565b91506138a682613716565b91506138b28287613457565b91506138bd8261359e565b91506138c882613788565b91506138d48286613457565b91506138df8261359e565b91506138ea826137fa565b91506138f68285613457565b91506139018261359e565b915061390c8261386c565b91506139188284613457565b91506139238261359e565b91508190509695505050505050565b7f5d00000000000000000000000000000000000000000000000000000000000000600082015250565b60006139686001836133c9565b915061397382613932565b600182019050919050565b600061398a82846136bc565b91506139958261395b565b915081905092915050565b7f7b226e616d65223a225a65746151756573742054726176656c65722023000000600082015250565b60006139d6601d836133c9565b91506139e1826139a0565b601d82019050919050565b7f222c226465736372697074696f6e223a225250472d6c6974652063726f73732d60008201527f636861696e206f6e205a657461436861696e2e222c0000000000000000000000602082015250565b6000613a486035836133c9565b9150613a53826139ec565b603582019050919050565b7f22696d616765223a220000000000000000000000000000000000000000000000600082015250565b6000613a946009836133c9565b9150613a9f82613a5e565b600982019050919050565b7f222c000000000000000000000000000000000000000000000000000000000000600082015250565b6000613ae06002836133c9565b9150613aeb82613aaa565b600282019050919050565b7f2261747472696275746573223a00000000000000000000000000000000000000600082015250565b6000613b2c600d836133c9565b9150613b3782613af6565b600d82019050919050565b7f7d00000000000000000000000000000000000000000000000000000000000000600082015250565b6000613b786001836133c9565b9150613b8382613b42565b600182019050919050565b6000613b99826139c9565b9150613ba58286613457565b9150613bb082613a3b565b9150613bbb82613a87565b9150613bc78285613457565b9150613bd282613ad3565b9150613bdd82613b1f565b9150613be982846136bc565b9150613bf482613b6b565b9150819050949350505050565b7f646174613a6170706c69636174696f6e2f6a736f6e3b6261736536342c000000600082015250565b6000613c37601d836133c9565b9150613c4282613c01565b601d82019050919050565b6000613c5882613c2a565b9150613c648284613457565b915081905092915050565b600082825260208201905092915050565b6000613c8b826136a6565b613c958185613c6f565b9350613ca581856020860161284b565b613cae81612875565b840191505092915050565b6000608082019050613cce6000830187612976565b613cdb6020830186612976565b613ce86040830185612a0c565b8181036060830152613cfa8184613c80565b905095945050505050565b600081519050613d14816127a0565b92915050565b600060208284031215613d3057613d2f61276a565b5b6000613d3e84828501613d05565b91505092915050565b6000613d52826128e1565b9150613d5d836128e1565b9250828203905081811115613d7557613d74612f25565b5b92915050565b7f4e487b7100000000000000000000000000000000000000000000000000000000600052603160045260246000fd5b6000613db5826128e1565b9150613dc0836128e1565b9250828202613dce816128e1565b91508282048414831517613de557613de4612f25565b5b5092915050565b6000613df7826128e1565b9150613e02836128e1565b9250828201905080821115613e1a57613e19612f25565b5b92915050565b6000613e2b826128e1565b9150613e36836128e1565b925082613e4657613e45613053565b5b82820490509291505056fe4142434445464748494a4b4c4d4e4f505152535455565758595a6162636465666768696a6b6c6d6e6f707172737475767778797a303132333435363738392b2fa2646970667358221220c50e945c625c3f719a2bb692abf84b87bae22d2ae058405a4f0e189ad01d115e64736f6c63430008180033",
  "linkReferences": {},
  "deployedLinkReferences": {}
}