{
  "_format": "hh-sol-artifact-1",
  "contractName": "ZetaQuestNFTv2",
  "sourceName": "contracts/contracts/ZetaQuestNFTv2.sol",
  "abi": [
    {
      "inputs": [
        {
          "internalType": "string",
          "name": "_baseImageURI",
          "type": "string"
        }
      ],
      "stateMutability": "nonpayable",
      "type": "constructor"
    },
    {
      "inputs": [],
      "name": "ERC721EnumerableForbiddenBatchMint",
      "type": "error"
    },
    {
      "inputs": [
        {
          "internalType": "address",
          "name": "sender",
          "type": "address"
        },
        {
          "internalType": "uint256",
          "name": "tokenId",
          "type": "uint256"
        },
        {
          "internalType": "address",
          "name": "owner",
          "type": "address"
        }
      ],
      "name": "ERC721IncorrectOwner",
      "type": "error"
    },
    {
      "inputs": [
        {
          "internalType": "address",
          "name": "operator",
          "type": "address"
        },
        {
          "internalType": "uint256",
          "name": "tokenId",
          "type": "uint256"
        }
      ],
      "name": "ERC721InsufficientApproval",
      "type": "error"
    },
    {
      "inputs": [
        {
          "internalType": "address",
          "name": "approver",
          "type": "address"
        }
      ],
      "name": "ERC721InvalidApprover",
      "type": "error"
    },
    {
      "inputs": [
        {
          "internalType": "address",
          "name": "operator",
          "type": "address"
        }
      ],
      "name": "ERC721InvalidOperator",
      "type": "error"
    },
    {
      "inputs": [
        {
          "internalType": "address",
          "name": "owner",
          "type": "address"
        }
      ],
      "name": "ERC721InvalidOwner",
      "type": "error"
    },
    {
      "inputs": [
        {
          "internalType": "address",
          "name": "receiver",
          "type": "address"
        }
      ],
      "name": "ERC721InvalidReceiver",
      "type": "error"
    },
    {
      "inputs": [
        {
          "internalType": "address",
          "name": "sender",
          "type": "address"
        }
      ],
      "name": "ERC721InvalidSender",
      "type": "error"
    },
    {
      "inputs": [
        {
          "internalType": "uint256",
          "name": "tokenId",
          "type": "uint256"
        }
      ],
      "name": "ERC721NonexistentToken",
      "type": "error"
    },
    {
      "inputs": [
        {
          "internalType": "address",
          "name": "owner",
          "type": "address"
        },
        {
          "internalType": "uint256",
          "name": "index",
          "type": "uint256"
        }
      ],
      "name": "ERC721OutOfBoundsIndex",
      "type": "error"
    },
    {
      "inputs": [
        {
          "internalType": "address",
          "name": "owner",
          "type": "address"
        }
      ],
      "name": "OwnableInvalidOwner",
      "type": "error"
    },
    {
      "inputs": [
        {
          "internalType": "address",
          "name": "account",
          "type": "address"
        }
      ],
      "name": "OwnableUnauthorizedAccount",
      "type": "error"
    },
    {
      "anonymous": false,
      "inputs": [
        {
          "indexed": true,
          "internalType": "address",
          "name": "owner",
          "type": "address"
        },
        {
          "indexed": true,
          "internalType": "address",
          "name": "approved",
          "type": "address"
        },
        {
          "indexed": true,
          "internalType": "uint256",
          "name": "tokenId",
          "type": "uint256"
        }
      ],
      "name": "Approval",
      "type": "event"
    },
    {
      "anonymous": false,
      "inputs": [
        {
          "indexed": true,
          "internalType": "address",
          "name": "owner",
          "type": "address"
        },
        {
          "indexed": true,
          "internalType": "address",
          "name": "operator",
          "type": "address"
        },
        {
          "indexed": false,
          "internalType": "bool",
          "name": "approved",
          "type": "bool"
        }
      ],
      "name": "ApprovalForAll",
      "type": "event"
    },
    {
      "anonymous": false,
      "inputs": [
        {
          "indexed": true,
          "internalType": "address",
          "name": "previousOwner",
          "type": "address"
        },
        {
          "indexed": true,
          "internalType": "address",
          "name": "newOwner",
          "type": "address"
        }
      ],
      "name": "OwnershipTransferred",
      "type": "event"
    },
    {
      "anonymous": false,
      "inputs": [
        {
          "indexed": true,
          "internalType": "address",
          "name": "from",
          "type": "address"
        },
        {
          "indexed": true,
          "internalType": "address",
          "name": "to",
          "type": "address"
        },
        {
          "indexed": true,
          "internalType": "uint256",
          "name": "tokenId",
          "type": "uint256"
        }
      ],
      "name": "Transfer",
      "type": "event"
    },
    {
      "inputs": [
        {
          "internalType": "address",
          "name": "to",
          "type": "address"
        },
        {
          "internalType": "uint256",
          "name": "tokenId",
          "type": "uint256"
        }
      ],
      "name": "approve",
      "outputs": [],
      "stateMutability": "nonpayable",
      "type": "function"
    },
    {
      "inputs": [
        {
          "internalType": "address",
          "name": "owner",
          "type": "address"
        }
      ],
      "name": "balanceOf",
      "outputs": [
        {
          "internalType": "uint256",
          "name": "",
          "type": "uint256"
        }
      ],
      "stateMutability": "view",
      "type": "function"
    },
    {
      "inputs": [],
      "name": "baseImageURI",
      "outputs": [
        {
          "internalType": "string",
          "name": "",
          "type": "string"
        }
      ],
      "stateMutability": "view",
      "type": "function"
    },
    {
      "inputs": [],
      "name": "core",
      "outputs": [
        {
          "internalType": "address",
          "name": "",
          "type": "address"
        }
      ],
      "stateMutability": "view",
      "type": "function"
    },
    {
      "inputs": [
        {
          "internalType": "uint256",
          "name": "tokenId",
          "type": "uint256"
        }
      ],
      "name": "getApproved",
      "outputs": [
        {
          "internalType": "address",
          "name": "",
          "type": "address"
        }
      ],
      "stateMutability": "view",
      "type": "function"
    },
    {
      "inputs": [
        {
          "internalType": "uint256",
          "name": "tokenId",
          "type": "uint256"
        }
      ],
      "name": "getRarity",
      "outputs": [
        {
          "internalType": "enum ZetaQuestNFTv2.Rarity",
          "name": "",
          "type": "uint8"
        }
      ],
      "stateMutability": "view",
      "type": "function"
    },
    {
      "inputs": [
        {
          "internalType": "address",
          "name": "owner",
          "type": "address"
        },
        {
          "internalType": "address",
          "name": "operator",
          "type": "address"
        }
      ],
      "name": "isApprovedForAll",
      "outputs": [
        {
          "internalType": "bool",
          "name": "",
          "type": "bool"
        }
      ],
      "stateMutability": "view",
      "type": "function"
    },
    {
      "inputs": [],
      "name": "mint",
      "outputs": [],
      "stateMutability": "nonpayable",
      "type": "function"
    },
    {
      "inputs": [],
      "name": "name",
      "outputs": [
        {
          "internalType": "string",
          "name": "",
          "type": "string"
        }
      ],
      "stateMutability": "view",
      "type": "function"
    },
    {
      "inputs": [],
      "name": "owner",
      "outputs": [
        {
          "internalType": "address",
          "name": "",
          "type": "address"
        }
      ],
      "stateMutability": "view",
      "type": "function"
    },
    {
      "inputs": [
        {
          "internalType": "uint256",
          "name": "tokenId",
          "type": "uint256"
        }
      ],
      "name": "ownerOf",
      "outputs": [
        {
          "internalType": "address",
          "name": "",
          "type": "address"
        }
      ],
      "stateMutability": "view",
      "type": "function"
    },
    {
      "inputs": [],
      "name": "renounceOwnership",
      "outputs": [],
      "stateMutability": "nonpayable",
      "type": "function"
    },
    {
      "inputs": [
        {
          "internalType": "address",
          "name": "from",
          "type": "address"
        },
        {
          "internalType": "address",
          "name": "to",
          "type": "address"
        },
        {
          "internalType": "uint256",
          "name": "tokenId",
          "type": "uint256"
        }
      ],
      "name": "safeTransferFrom",
      "outputs": [],
      "stateMutability": "nonpayable",
      "type": "function"
    },
    {
      "inputs": [
        {
          "internalType": "address",
          "name": "from",
          "type": "address"
        },
        {
          "internalType": "address",
          "name": "to",
          "type": "address"
        },
        {
          "internalType": "uint256",
          "name": "tokenId",
          "type": "uint256"
        },
        {
          "internalType": "bytes",
          "name": "data",
          "type": "bytes"
        }
      ],
      "name": "safeTransferFrom",
      "outputs": [],
      "stateMutability": "nonpayable",
      "type": "function"
    },
    {
      "inputs": [
        {
          "internalType": "address",
          "name": "operator",
          "type": "address"
        },
        {
          "internalType": "bool",
          "name": "approved",
          "type": "bool"
        }
      ],
      "name": "setApprovalForAll",
      "outputs": [],
      "stateMutability": "nonpayable",
      "type": "function"
    },
    {
      "inputs": [
        {
          "internalType": "string",
          "name": "uri",
          "type": "string"
        }
      ],
      "name": "setBaseImageURI",
      "outputs": [],
      "stateMutability": "nonpayable",
      "type": "function"
    },
    {
      "inputs": [
        {
          "internalType": "address",
          "name": "_core",
          "type": "address"
        }
      ],
      "name": "setCore",
      "outputs": [],
      "stateMutability": "nonpayable",
      "type": "function"
    },
    {
      "inputs": [
        {
          "internalType": "bytes4",
          "name": "interfaceId",
          "type": "bytes4"
        }
      ],
      "name": "supportsInterface",
      "outputs": [
        {
          "internalType": "bool",
          "name": "",
          "type": "bool"
        }
      ],
      "stateMutability": "view",
      "type": "function"
    },
    {
      "inputs": [],
      "name": "symbol",
      "outputs": [
        {
          "internalType": "string",
          "name": "",
          "type": "string"
        }
      ],
      "stateMutability": "view",
      "type": "function"
    },
    {
      "inputs": [
        {
          "internalType": "uint256",
          "name": "index",
          "type": "uint256"
        }
      ],
      "name": "tokenByIndex",
      "outputs": [
        {
          "internalType": "uint256",
          "name": "",
          "type": "uint256"
        }
      ],
      "stateMutability": "view",
      "type": "function"
    },
    {
      "inputs": [
        {
          "internalType": "address",
          "name": "owner",
          "type": "address"
        },
        {
          "internalType": "uint256",
          "name": "index",
          "type": "uint256"
        }
      ],
      "name": "tokenOfOwnerByIndex",
      "outputs": [
        {
          "internalType": "uint256",
          "name": "",
          "type": "uint256"
        }
      ],
      "stateMutability": "view",
      "type": "function"
    },
    {
      "inputs": [
        {
          "internalType": "uint256",
          "name": "tokenId",
          "type": "uint256"
        }
      ],
      "name": "tokenURI",
      "outputs": [
        {
          "internalType": "string",
          "name": "",
          "type": "string"
        }
      ],
      "stateMutability": "view",
      "type": "function"
    },
    {
      "inputs": [],
      "name": "totalSupply",
      "outputs": [
        {
          "internalType": "uint256",
          "name": "",
          "type": "uint256"
        }
      ],
      "stateMutability": "view",
      "type": "function"
    },
    {
      "inputs": [
        {
          "internalType": "address",
          "name": "from",
          "type": "address"
        },
        {
          "internalType": "address",
          "name": "to",
          "type": "address"
        },
        {
          "internalType": "uint256",
          "name": "tokenId",
          "type": "uint256"
        }
      ],
      "name": "transferFrom",
      "outputs": [],
      "stateMutability": "nonpayable",
      "type": "function"
    },
    {
      "inputs": [
        {
          "internalType": "address",
          "name": "newOwner",
          "type": "address"
        }
      ],
      "name": "transferOwnership",
      "outputs": [],
      "stateMutability": "nonpayable",
      "type": "function"
    }
  ],
  "bytecode": "0x60806040526001600c553480156200001657600080fd5b50604051620048723803806200487283398181016040528101906200003c9190620003c8565b336040518060400160405280601281526020017f5a65746151756573742054726176656c657200000000000000000000000000008152506040518060400160405280600381526020017f5a515400000000000000000000000000000000000000000000000000000000008152508160009081620000ba919062000664565b508060019081620000cc919062000664565b505050600073ffffffffffffffffffffffffffffffffffffffff168173ffffffffffffffffffffffffffffffffffffffff1603620001445760006040517f1e4fbdf70000000000000000000000000000000000000000000000000000000081526004016200013b919062000790565b60405180910390fd5b62000155816200016f60201b60201c565b5080600d908162000167919062000664565b5050620007ad565b6000600a60009054906101000a900473ffffffffffffffffffffffffffffffffffffffff16905081600a60006101000a81548173ffffffffffffffffffffffffffffffffffffffff021916908373ffffffffffffffffffffffffffffffffffffffff1602179055508173ffffffffffffffffffffffffffffffffffffffff168173ffffffffffffffffffffffffffffffffffffffff167f8be0079c531659141344cd1fd0a4f28419497f9722a3daafe3b4186f6b6457e060405160405180910390a35050565b6000604051905090565b600080fd5b600080fd5b600080fd5b600080fd5b6000601f19601f8301169050919050565b7f4e487b7100000000000000000000000000000000000000000000000000000000600052604160045260246000fd5b6200029e8262000253565b810181811067ffffffffffffffff82111715620002c057620002bf62000264565b5b80604052505050565b6000620002d562000235565b9050620002e3828262000293565b919050565b600067ffffffffffffffff82111562000306576200030562000264565b5b620003118262000253565b9050602081019050919050565b60005b838110156200033e57808201518184015260208101905062000321565b60008484015250505050565b6000620003616200035b84620002e8565b620002c9565b90508281526020810184848401111562000380576200037f6200024e565b5b6200038d8482856200031e565b509392505050565b600082601f830112620003ad57620003ac62000249565b5b8151620003bf8482602086016200034a565b91505092915050565b600060208284031215620003e157620003e06200023f565b5b600082015167ffffffffffffffff81111562000402576200040162000244565b5b620004108482850162000395565b91505092915050565b600081519050919050565b7f4e487b7100000000000000000000000000000000000000000000000000000000600052602260045260246000fd5b600060028204905060018216806200046c57607f821691505b60208210810362000482576200048162000424565b5b50919050565b60008190508160005260206000209050919050565b60006020601f8301049050919050565b600082821b905092915050565b600060088302620004ec7fffffffffffffffffffffffffffffffffffffffffffffffffffffffffffffffff82620004ad565b620004f88683620004ad565b95508019841693508086168417925050509392505050565b6000819050919050565b6000819050919050565b6000620005456200053f620005398462000510565b6200051a565b62000510565b9050919050565b6000819050919050565b620005618362000524565b6200057962000570826200054c565b848454620004ba565b825550505050565b600090565b6200059062000581565b6200059d81848462000556565b505050565b5b81811015620005c557620005b960008262000586565b600181019050620005a3565b5050565b601f8211156200061457620005de8162000488565b620005e9846200049d565b81016020851015620005f9578190505b6200061162000608856200049d565b830182620005a2565b50505b505050565b600082821c905092915050565b6000620006396000198460080262000619565b1980831691505092915050565b600062000654838362000626565b9150826002028217905092915050565b6200066f8262000419565b67ffffffffffffffff8111156200068b576200068a62000264565b5b62000697825462000453565b620006a4828285620005c9565b600060209050601f831160018114620006dc5760008415620006c7578287015190505b620006d3858262000646565b86555062000743565b601f198416620006ec8662000488565b60005b828110156200071657848901518255600182019150602085019450602081019050620006ef565b8683101562000736578489015162000732601f89168262000626565b8355505b6001600288020188555050505b505050505050565b600073ffffffffffffffffffffffffffffffffffffffff82169050919050565b600062000778826200074b565b9050919050565b6200078a816200076b565b82525050565b6000602082019050620007a760008301846200077f565b92915050565b6140b580620007bd6000396000f3fe608060405234801561001057600080fd5b50600436106101735760003560e01c806370a08231116100de57806395d89b4111610097578063c87b56dd11610071578063c87b56dd14610436578063e985e9c514610466578063f2f4eb2614610496578063f2fde38b146104b457610173565b806395d89b41146103e0578063a22cb465146103fe578063b88d4fde1461041a57610173565b806370a0823114610332578063715018a61461036257806374f82e301461036c578063800096301461038a5780638647ca76146103a65780638da5cb5b146103c257610173565b806323b872dd1161013057806323b872dd1461023a5780632f745c591461025657806342842e0e1461028657806348758697146102a25780634f6ccce7146102d25780636352211e1461030257610173565b806301ffc9a71461017857806306fdde03146101a8578063081812fc146101c6578063095ea7b3146101f65780631249c58b1461021257806318160ddd1461021c575b600080fd5b610192600480360381019061018d919061289a565b6104d0565b60405161019f91906128e2565b60405180910390f35b6101b061054a565b6040516101bd919061298d565b60405180910390f35b6101e060048036038101906101db91906129e5565b6105dc565b6040516101ed9190612a53565b60405180910390f35b610210600480360381019061020b9190612a9a565b6105f8565b005b61021a61060e565b005b610224610727565b6040516102319190612ae9565b60405180910390f35b610254600480360381019061024f9190612b04565b610734565b005b610270600480360381019061026b9190612a9a565b610836565b60405161027d9190612ae9565b60405180910390f35b6102a0600480360381019061029b9190612b04565b6108df565b005b6102bc60048036038101906102b791906129e5565b6108ff565b6040516102c99190612bce565b60405180910390f35b6102ec60048036038101906102e791906129e5565b610933565b6040516102f99190612ae9565b60405180910390f35b61031c600480360381019061031791906129e5565b6109a9565b6040516103299190612a53565b60405180910390f35b61034c60048036038101906103479190612be9565b6109bb565b6040516103599190612ae9565b60405180910390f35b61036a610a75565b005b610374610a89565b604051610381919061298d565b60405180910390f35b6103a4600480360381019061039f9190612be9565b610b17565b005b6103c060048036038101906103bb9190612c7b565b610b63565b005b6103ca610b81565b6040516103d79190612a53565b60405180910390f35b6103e8610bab565b6040516103f5919061298d565b60405180910390f35b61041860048036038101906104139190612cf4565b610c3d565b005b610434600480360381019061042f9190612e64565b610c53565b005b610450600480360381019061044b91906129e5565b610c78565b60405161045d919061298d565b60405180910390f35b610480600480360381019061047b9190612ee7565b610f51565b60405161048d91906128e2565b60405180910390f35b61049e610fe5565b6040516104ab9190612a53565b60405180910390f35b6104ce60048036038101906104c99190612be9565b61100b565b005b60007f780e9d63000000000000000000000000000000000000000000000000000000007bffffffffffffffffffffffffffffffffffffffffffffffffffffffff1916827bffffffffffffffffffffffffffffffffffffffffffffffffffffffff19161480610543575061054282611091565b5b9050919050565b60606000805461055990612f56565b80601f016020809104026020016040519081016040528092919081815260200182805461058590612f56565b80156105d25780601f106105a7576101008083540402835291602001916105d2565b820191906000526020600020905b8154815290600101906020018083116105b557829003601f168201915b5050505050905090565b60006105e782611173565b506105f1826111fb565b9050919050565b61060a8282610605611238565b611240565b5050565b6000610619336109bb565b14610659576040517f08c379a000000000000000000000000000000000000000000000000000000000815260040161065090612fd3565b60405180910390fd5b6000600c600081548092919061066e90613022565b91905055905060004433834260405160200161068d94939291906130d3565b6040516020818303038152906040528051906020012060001c905060006064826106b79190613150565b9050600060028210156106cd57600290506106dc565b60148210156106db57600190505b5b80600b600086815260200190815260200160002060006101000a81548160ff0219169083600281111561071257610711612b57565b5b02179055506107213385611252565b50505050565b6000600880549050905090565b600073ffffffffffffffffffffffffffffffffffffffff168273ffffffffffffffffffffffffffffffffffffffff16036107a65760006040517f64a0ae9200000000000000000000000000000000000000000000000000000000815260040161079d9190612a53565b60405180910390fd5b60006107ba83836107b5611238565b611270565b90508373ffffffffffffffffffffffffffffffffffffffff168173ffffffffffffffffffffffffffffffffffffffff1614610830578382826040517f64283d7b00000000000000000000000000000000000000000000000000000000815260040161082793929190613181565b60405180910390fd5b50505050565b6000610841836109bb565b82106108865782826040517fa57d13dc00000000000000000000000000000000000000000000000000000000815260040161087d9291906131b8565b60405180910390fd5b600660008473ffffffffffffffffffffffffffffffffffffffff1673ffffffffffffffffffffffffffffffffffffffff168152602001908152602001600020600083815260200190815260200160002054905092915050565b6108fa83838360405180602001604052806000815250610c53565b505050565b600061090a82611173565b50600b600083815260200190815260200160002060009054906101000a900460ff169050919050565b600061093d610727565b8210610983576000826040517fa57d13dc00000000000000000000000000000000000000000000000000000000815260040161097a9291906131b8565b60405180910390fd5b60088281548110610997576109966131e1565b5b90600052602060002001549050919050565b60006109b482611173565b9050919050565b60008073ffffffffffffffffffffffffffffffffffffffff168273ffffffffffffffffffffffffffffffffffffffff1603610a2e5760006040517f89c62b64000000000000000000000000000000000000000000000000000000008152600401610a259190612a53565b60405180910390fd5b600360008373ffffffffffffffffffffffffffffffffffffffff1673ffffffffffffffffffffffffffffffffffffffff168152602001908152602001600020549050919050565b610a7d61138d565b610a876000611414565b565b600d8054610a9690612f56565b80601f0160208091040260200160405190810160405280929190818152602001828054610ac290612f56565b8015610b0f5780601f10610ae457610100808354040283529160200191610b0f565b820191906000526020600020905b815481529060010190602001808311610af257829003601f168201915b505050505081565b610b1f61138d565b80600e60006101000a81548173ffffffffffffffffffffffffffffffffffffffff021916908373ffffffffffffffffffffffffffffffffffffffff16021790555050565b610b6b61138d565b8181600d9182610b7c9291906133c7565b505050565b6000600a60009054906101000a900473ffffffffffffffffffffffffffffffffffffffff16905090565b606060018054610bba90612f56565b80601f0160208091040260200160405190810160405280929190818152602001828054610be690612f56565b8015610c335780601f10610c0857610100808354040283529160200191610c33565b820191906000526020600020905b815481529060010190602001808311610c1657829003601f168201915b5050505050905090565b610c4f610c48611238565b83836114da565b5050565b610c5e848484610734565b610c72610c69611238565b85858585611649565b50505050565b6060610c8382611173565b506000610caf600b600085815260200190815260200160002060009054906101000a900460ff166117fa565b90506000600d82604051602001610cc79291906135a2565b60405160208183030381529060405290506000610d03600b600087815260200190815260200160002060009054906101000a900460ff1661190b565b604051602001610d139190613669565b6040516020818303038152906040529050600073ffffffffffffffffffffffffffffffffffffffff16600e60009054906101000a900473ffffffffffffffffffffffffffffffffffffffff1673ffffffffffffffffffffffffffffffffffffffff1614610eee576000610d85866109a9565b9050600e60009054906101000a900473ffffffffffffffffffffffffffffffffffffffff1673ffffffffffffffffffffffffffffffffffffffff1663c01ca43f826040518263ffffffff1660e01b8152600401610de29190612a53565b608060405180830381865afa925050508015610e1c57506040513d601f19601f82011682018060405250810190610e19919061375c565b60015b15610eec57600081600060038110610e3757610e366131e1565b5b60200201519050600082600160038110610e5457610e536131e1565b5b60200201519050600083600260038110610e7157610e706131e1565b5b602002015190506000600a84610e8791906137a6565b90506000600a84610e9891906137a6565b905088610ea488611a1c565b610ead84611aea565b610eb684611aea565b610ebf87611a1c565b604051602001610ed3959493929190613965565b6040516020818303038152906040529850505050505050505b505b6000610ef986611a1c565b8383604051602001610f0d93929190613c42565b6040516020818303038152906040529050610f2781611b62565b604051602001610f379190613d0c565b604051602081830303815290604052945050505050919050565b6000600560008473ffffffffffffffffffffffffffffffffffffffff1673ffffffffffffffffffffffffffffffffffffffff16815260200190815260200160002060008373ffffffffffffffffffffffffffffffffffffffff1673ffffffffffffffffffffffffffffffffffffffff16815260200190815260200160002060009054906101000a900460ff16905092915050565b600e60009054906101000a900473ffffffffffffffffffffffffffffffffffffffff1681565b61101361138d565b600073ffffffffffffffffffffffffffffffffffffffff168173ffffffffffffffffffffffffffffffffffffffff16036110855760006040517f1e4fbdf700000000000000000000000000000000000000000000000000000000815260040161107c9190612a53565b60405180910390fd5b61108e81611414565b50565b60007f80ac58cd000000000000000000000000000000000000000000000000000000007bffffffffffffffffffffffffffffffffffffffffffffffffffffffff1916827bffffffffffffffffffffffffffffffffffffffffffffffffffffffff1916148061115c57507f5b5e139f000000000000000000000000000000000000000000000000000000007bffffffffffffffffffffffffffffffffffffffffffffffffffffffff1916827bffffffffffffffffffffffffffffffffffffffffffffffffffffffff1916145b8061116c575061116b82611b8f565b5b9050919050565b60008061117f83611bf9565b9050600073ffffffffffffffffffffffffffffffffffffffff168173ffffffffffffffffffffffffffffffffffffffff16036111f257826040517f7e2732890000000000000000000000000000000000000000000000000000000081526004016111e99190612ae9565b60405180910390fd5b80915050919050565b60006004600083815260200190815260200160002060009054906101000a900473ffffffffffffffffffffffffffffffffffffffff169050919050565b600033905090565b61124d8383836001611c36565b505050565b61126c828260405180602001604052806000815250611dfb565b5050565b60008061127e858585611e1f565b9050600073ffffffffffffffffffffffffffffffffffffffff168173ffffffffffffffffffffffffffffffffffffffff16036112c2576112bd84612039565b611301565b8473ffffffffffffffffffffffffffffffffffffffff168173ffffffffffffffffffffffffffffffffffffffff1614611300576112ff8185612082565b5b5b600073ffffffffffffffffffffffffffffffffffffffff168573ffffffffffffffffffffffffffffffffffffffff16036113435761133e8461216d565b611382565b8473ffffffffffffffffffffffffffffffffffffffff168173ffffffffffffffffffffffffffffffffffffffff161461138157611380858561223e565b5b5b809150509392505050565b611395611238565b73ffffffffffffffffffffffffffffffffffffffff166113b3610b81565b73ffffffffffffffffffffffffffffffffffffffff1614611412576113d6611238565b6040517f118cdaa70000000000000000000000000000000000000000000000000000000081526004016114099190612a53565b60405180910390fd5b565b6000600a60009054906101000a900473ffffffffffffffffffffffffffffffffffffffff16905081600a60006101000a81548173ffffffffffffffffffffffffffffffffffffffff021916908373ffffffffffffffffffffffffffffffffffffffff1602179055508173ffffffffffffffffffffffffffffffffffffffff168173ffffffffffffffffffffffffffffffffffffffff167f8be0079c531659141344cd1fd0a4f28419497f9722a3daafe3b4186f6b6457e060405160405180910390a35050565b600073ffffffffffffffffffffffffffffffffffffffff168273ffffffffffffffffffffffffffffffffffffffff160361154b57816040517f5b08ba180000000000000000000000000000000000000000000000000000000081526004016115429190612a53565b60405180910390fd5b80600560008573ffffffffffffffffffffffffffffffffffffffff1673ffffffffffffffffffffffffffffffffffffffff16815260200190815260200160002060008473ffffffffffffffffffffffffffffffffffffffff1673ffffffffffffffffffffffffffffffffffffffff16815260200190815260200160002060006101000a81548160ff0219169083151502179055508173ffffffffffffffffffffffffffffffffffffffff168373ffffffffffffffffffffffffffffffffffffffff167f17307eab39ab6107e8899845ad3d59bd9653f200f220920489ca2b5937696c318360405161163c91906128e2565b60405180910390a3505050565b60008373ffffffffffffffffffffffffffffffffffffffff163b11156117f3578273ffffffffffffffffffffffffffffffffffffffff1663150b7a02868685856040518563ffffffff1660e01b81526004016116a89493929190613d83565b6020604051808303816000875af19250505080156116e457506040513d601f19601f820116820180604052508101906116e19190613de4565b60015b611768573d8060008114611714576040519150601f19603f3d011682016040523d82523d6000602084013e611719565b606091505b50600081510361176057836040517f64a0ae920000000000000000000000000000000000000000000000000000000081526004016117579190612a53565b60405180910390fd5b805160208201fd5b63150b7a0260e01b7bffffffffffffffffffffffffffffffffffffffffffffffffffffffff1916817bffffffffffffffffffffffffffffffffffffffffffffffffffffffff1916146117f157836040517f64a0ae920000000000000000000000000000000000000000000000000000000081526004016117e89190612a53565b60405180910390fd5b505b5050505050565b6060600160028111156118105761180f612b57565b5b82600281111561182357611822612b57565b5b03611865576040518060400160405280600481526020017f72617265000000000000000000000000000000000000000000000000000000008152509050611906565b60028081111561187857611877612b57565b5b82600281111561188b5761188a612b57565b5b036118cd576040518060400160405280600481526020017f65706963000000000000000000000000000000000000000000000000000000008152509050611906565b6040518060400160405280600681526020017f6e6f726d616c000000000000000000000000000000000000000000000000000081525090505b919050565b60606001600281111561192157611920612b57565b5b82600281111561193457611933612b57565b5b03611976576040518060400160405280600481526020017f52617265000000000000000000000000000000000000000000000000000000008152509050611a17565b60028081111561198957611988612b57565b5b82600281111561199c5761199b612b57565b5b036119de576040518060400160405280600481526020017f45706963000000000000000000000000000000000000000000000000000000008152509050611a17565b6040518060400160405280600681526020017f4e6f726d616c000000000000000000000000000000000000000000000000000081525090505b919050565b606060006001611a2b846122c9565b01905060008167ffffffffffffffff811115611a4a57611a49612d39565b5b6040519080825280601f01601f191660200182016040528015611a7c5781602001600182028036833780820191505090505b509050600082602083010190505b600115611adf578080600190039150507f3031323334353637383961626364656600000000000000000000000000000000600a86061a8153600a8581611ad357611ad2613121565b5b04945060008503611a8a575b819350505050919050565b606060008212611b2357611afd82611a1c565b604051602001611b0d9190613e5d565b6040516020818303038152906040529050611b5d565b600082611b2f90613e7f565b9050611b3a81611a1c565b604051602001611b4a9190613f13565b6040516020818303038152906040529150505b919050565b6060611b888260405180606001604052806040815260200161404060409139600161241c565b9050919050565b60007f01ffc9a7000000000000000000000000000000000000000000000000000000007bffffffffffffffffffffffffffffffffffffffffffffffffffffffff1916827bffffffffffffffffffffffffffffffffffffffffffffffffffffffff1916149050919050565b60006002600083815260200190815260200160002060009054906101000a900473ffffffffffffffffffffffffffffffffffffffff169050919050565b8080611c6f5750600073ffffffffffffffffffffffffffffffffffffffff168273ffffffffffffffffffffffffffffffffffffffff1614155b15611da3576000611c7f84611173565b9050600073ffffffffffffffffffffffffffffffffffffffff168373ffffffffffffffffffffffffffffffffffffffff1614158015611cea57508273ffffffffffffffffffffffffffffffffffffffff168173ffffffffffffffffffffffffffffffffffffffff1614155b8015611cfd5750611cfb8184610f51565b155b15611d3f57826040517fa9fbf51f000000000000000000000000000000000000000000000000000000008152600401611d369190612a53565b60405180910390fd5b8115611da157838573ffffffffffffffffffffffffffffffffffffffff168273ffffffffffffffffffffffffffffffffffffffff167f8c5be1e5ebec7d5bd14f71427d1e84f3dd0314c0f7b2291e5b200ac8c7c3b92560405160405180910390a45b505b836004600085815260200190815260200160002060006101000a81548173ffffffffffffffffffffffffffffffffffffffff021916908373ffffffffffffffffffffffffffffffffffffffff16021790555050505050565b611e0583836125b0565b611e1a611e10611238565b6000858585611649565b505050565b600080611e2b84611bf9565b9050600073ffffffffffffffffffffffffffffffffffffffff168373ffffffffffffffffffffffffffffffffffffffff1614611e6d57611e6c8184866126a9565b5b600073ffffffffffffffffffffffffffffffffffffffff168173ffffffffffffffffffffffffffffffffffffffff1614611efe57611eaf600085600080611c36565b6001600360008373ffffffffffffffffffffffffffffffffffffffff1673ffffffffffffffffffffffffffffffffffffffff168152602001908152602001600020600082825403925050819055505b600073ffffffffffffffffffffffffffffffffffffffff168573ffffffffffffffffffffffffffffffffffffffff1614611f81576001600360008773ffffffffffffffffffffffffffffffffffffffff1673ffffffffffffffffffffffffffffffffffffffff168152602001908152602001600020600082825401925050819055505b846002600086815260200190815260200160002060006101000a81548173ffffffffffffffffffffffffffffffffffffffff021916908373ffffffffffffffffffffffffffffffffffffffff160217905550838573ffffffffffffffffffffffffffffffffffffffff168273ffffffffffffffffffffffffffffffffffffffff167fddf252ad1be2c89b69c2b068fc378daa952ba7f163c4a11628f55a4df523b3ef60405160405180910390a4809150509392505050565b6008805490506009600083815260200190815260200160002081905550600881908060018154018082558091505060019003906000526020600020016000909190919091505550565b600061208d836109bb565b90506000600760008481526020019081526020016000205490506000600660008673ffffffffffffffffffffffffffffffffffffffff1673ffffffffffffffffffffffffffffffffffffffff16815260200190815260200160002090508282146121395760008160008581526020019081526020016000205490508082600085815260200190815260200160002081905550826007600083815260200190815260200160002081905550505b6007600085815260200190815260200160002060009055806000848152602001908152602001600020600090555050505050565b600060016008805490506121819190613f35565b90506000600960008481526020019081526020016000205490506000600883815481106121b1576121b06131e1565b5b9060005260206000200154905080600883815481106121d3576121d26131e1565b5b90600052602060002001819055508160096000838152602001908152602001600020819055506009600085815260200190815260200160002060009055600880548061222257612221613f69565b5b6001900381819060005260206000200160009055905550505050565b6000600161224b846109bb565b6122559190613f35565b905081600660008573ffffffffffffffffffffffffffffffffffffffff1673ffffffffffffffffffffffffffffffffffffffff168152602001908152602001600020600083815260200190815260200160002081905550806007600084815260200190815260200160002081905550505050565b600080600090507a184f03e93ff9f4daa797ed6e38ed64bf6a1f0100000000000000008310612327577a184f03e93ff9f4daa797ed6e38ed64bf6a1f010000000000000000838161231d5761231c613121565b5b0492506040810190505b6d04ee2d6d415b85acef81000000008310612364576d04ee2d6d415b85acef8100000000838161235a57612359613121565b5b0492506020810190505b662386f26fc10000831061239357662386f26fc10000838161238957612388613121565b5b0492506010810190505b6305f5e10083106123bc576305f5e10083816123b2576123b1613121565b5b0492506008810190505b61271083106123e15761271083816123d7576123d6613121565b5b0492506004810190505b6064831061240457606483816123fa576123f9613121565b5b0492506002810190505b600a8310612413576001810190505b80915050919050565b6060600084510361243e576040518060200160405280600081525090506125a9565b6000826124705760036002865160046124579190613f98565b6124619190613fda565b61246b919061400e565b612497565b6003600286516124809190613fda565b61248a919061400e565b60046124969190613f98565b5b905060008167ffffffffffffffff8111156124b5576124b4612d39565b5b6040519080825280601f01601f1916602001820160405280156124e75781602001600182028036833780820191505090505b50905060018501602082018788518901602081018051600082525b8284101561255d576003840193508351603f8160121c168701518653600186019550603f81600c1c168701518653600186019550603f8160061c168701518653600186019550603f8116870151865360018601955050612502565b808252891561259d5760038c51066001811461258057600281146125935761259b565b603d6001870353603d600287035361259b565b603d60018703535b505b50505050505080925050505b9392505050565b600073ffffffffffffffffffffffffffffffffffffffff168273ffffffffffffffffffffffffffffffffffffffff16036126225760006040517f64a0ae920000000000000000000000000000000000000000000000000000000081526004016126199190612a53565b60405180910390fd5b600061263083836000611270565b9050600073ffffffffffffffffffffffffffffffffffffffff168173ffffffffffffffffffffffffffffffffffffffff16146126a45760006040517f73c6ac6e00000000000000000000000000000000000000000000000000000000815260040161269b9190612a53565b60405180910390fd5b505050565b6126b483838361276d565b61276857600073ffffffffffffffffffffffffffffffffffffffff168373ffffffffffffffffffffffffffffffffffffffff160361272957806040517f7e2732890000000000000000000000000000000000000000000000000000000081526004016127209190612ae9565b60405180910390fd5b81816040517f177e802f00000000000000000000000000000000000000000000000000000000815260040161275f9291906131b8565b60405180910390fd5b505050565b60008073ffffffffffffffffffffffffffffffffffffffff168373ffffffffffffffffffffffffffffffffffffffff161415801561282557508273ffffffffffffffffffffffffffffffffffffffff168473ffffffffffffffffffffffffffffffffffffffff1614806127e657506127e58484610f51565b5b8061282457508273ffffffffffffffffffffffffffffffffffffffff1661280c836111fb565b73ffffffffffffffffffffffffffffffffffffffff16145b5b90509392505050565b6000604051905090565b600080fd5b600080fd5b60007fffffffff0000000000000000000000000000000000000000000000000000000082169050919050565b61287781612842565b811461288257600080fd5b50565b6000813590506128948161286e565b92915050565b6000602082840312156128b0576128af612838565b5b60006128be84828501612885565b91505092915050565b60008115159050919050565b6128dc816128c7565b82525050565b60006020820190506128f760008301846128d3565b92915050565b600081519050919050565b600082825260208201905092915050565b60005b8381101561293757808201518184015260208101905061291c565b60008484015250505050565b6000601f19601f8301169050919050565b600061295f826128fd565b6129698185612908565b9350612979818560208601612919565b61298281612943565b840191505092915050565b600060208201905081810360008301526129a78184612954565b905092915050565b6000819050919050565b6129c2816129af565b81146129cd57600080fd5b50565b6000813590506129df816129b9565b92915050565b6000602082840312156129fb576129fa612838565b5b6000612a09848285016129d0565b91505092915050565b600073ffffffffffffffffffffffffffffffffffffffff82169050919050565b6000612a3d82612a12565b9050919050565b612a4d81612a32565b82525050565b6000602082019050612a686000830184612a44565b92915050565b612a7781612a32565b8114612a8257600080fd5b50565b600081359050612a9481612a6e565b92915050565b60008060408385031215612ab157612ab0612838565b5b6000612abf85828601612a85565b9250506020612ad0858286016129d0565b9150509250929050565b612ae3816129af565b82525050565b6000602082019050612afe6000830184612ada565b92915050565b600080600060608486031215612b1d57612b1c612838565b5b6000612b2b86828701612a85565b9350506020612b3c86828701612a85565b9250506040612b4d868287016129d0565b9150509250925092565b7f4e487b7100000000000000000000000000000000000000000000000000000000600052602160045260246000fd5b60038110612b9757612b96612b57565b5b50565b6000819050612ba882612b86565b919050565b6000612bb882612b9a565b9050919050565b612bc881612bad565b82525050565b6000602082019050612be36000830184612bbf565b92915050565b600060208284031215612bff57612bfe612838565b5b6000612c0d84828501612a85565b91505092915050565b600080fd5b600080fd5b600080fd5b60008083601f840112612c3b57612c3a612c16565b5b8235905067ffffffffffffffff811115612c5857612c57612c1b565b5b602083019150836001820283011115612c7457612c73612c20565b5b9250929050565b60008060208385031215612c9257612c91612838565b5b600083013567ffffffffffffffff811115612cb057612caf61283d565b5b612cbc85828601612c25565b92509250509250929050565b612cd1816128c7565b8114612cdc57600080fd5b50565b600081359050612cee81612cc8565b92915050565b60008060408385031215612d0b57612d0a612838565b5b6000612d1985828601612a85565b9250506020612d2a85828601612cdf565b9150509250929050565b600080fd5b7f4e487b7100000000000000000000000000000000000000000000000000000000600052604160045260246000fd5b612d7182612943565b810181811067ffffffffffffffff82111715612d9057612d8f612d39565b5b80604052505050565b6000612da361282e565b9050612daf8282612d68565b919050565b600067ffffffffffffffff821115612dcf57612dce612d39565b5b612dd882612943565b9050602081019050919050565b82818337600083830152505050565b6000612e07612e0284612db4565b612d99565b905082815260208101848484011115612e2357612e22612d34565b5b612e2e848285612de5565b509392505050565b600082601f830112612e4b57612e4a612c16565b5b8135612e5b848260208601612df4565b91505092915050565b60008060008060808587031215612e7e57612e7d612838565b5b6000612e8c87828801612a85565b9450506020612e9d87828801612a85565b9350506040612eae878288016129d0565b925050606085013567ffffffffffffffff811115612ecf57612ece61283d565b5b612edb87828801612e36565b91505092959194509250565b60008060408385031215612efe57612efd612838565b5b6000612f0c85828601612a85565b9250506020612f1d85828601612a85565b9150509250929050565b7f4e487b7100000000000000000000000000000000000000000000000000000000600052602260045260246000fd5b60006002820490506001821680612f6e57607f821691505b602082108103612f8157612f80612f27565b5b50919050565b7f4f6e652070657220616464726573730000000000000000000000000000000000600082015250565b6000612fbd600f83612908565b9150612fc882612f87565b602082019050919050565b60006020820190508181036000830152612fec81612fb0565b9050919050565b7f4e487b7100000000000000000000000000000000000000000000000000000000600052601160045260246000fd5b600061302d826129af565b91507fffffffffffffffffffffffffffffffffffffffffffffffffffffffffffffffff820361305f5761305e612ff3565b5b600182019050919050565b6000819050919050565b613085613080826129af565b61306a565b82525050565b60008160601b9050919050565b60006130a38261308b565b9050919050565b60006130b582613098565b9050919050565b6130cd6130c882612a32565b6130aa565b82525050565b60006130df8287613074565b6020820191506130ef82866130bc565b6014820191506130ff8285613074565b60208201915061310f8284613074565b60208201915081905095945050505050565b7f4e487b7100000000000000000000000000000000000000000000000000000000600052601260045260246000fd5b600061315b826129af565b9150613166836129af565b92508261317657613175613121565b5b828206905092915050565b60006060820190506131966000830186612a44565b6131a36020830185612ada565b6131b06040830184612a44565b949350505050565b60006040820190506131cd6000830185612a44565b6131da6020830184612ada565b9392505050565b7f4e487b7100000000000000000000000000000000000000000000000000000000600052603260045260246000fd5b600082905092915050565b60008190508160005260206000209050919050565b60006020601f8301049050919050565b600082821b905092915050565b60006008830261327d7fffffffffffffffffffffffffffffffffffffffffffffffffffffffffffffffff82613240565b6132878683613240565b95508019841693508086168417925050509392505050565b6000819050919050565b60006132c46132bf6132ba846129af565b61329f565b6129af565b9050919050565b6000819050919050565b6132de836132a9565b6132f26132ea826132cb565b84845461324d565b825550505050565b600090565b6133076132fa565b6133128184846132d5565b505050565b5b818110156133365761332b6000826132ff565b600181019050613318565b5050565b601f82111561337b5761334c8161321b565b61335584613230565b81016020851015613364578190505b61337861337085613230565b830182613317565b50505b505050565b600082821c905092915050565b600061339e60001984600802613380565b1980831691505092915050565b60006133b7838361338d565b9150826002028217905092915050565b6133d18383613210565b67ffffffffffffffff8111156133ea576133e9612d39565b5b6133f48254612f56565b6133ff82828561333a565b6000601f83116001811461342e576000841561341c578287013590505b61342685826133ab565b86555061348e565b601f19841661343c8661321b565b60005b828110156134645784890135825560018201915060208501945060208101905061343f565b86831015613481578489013561347d601f89168261338d565b8355505b6001600288020188555050505b50505050505050565b600081905092915050565b600081546134af81612f56565b6134b98186613497565b945060018216600081146134d457600181146134e95761351c565b60ff198316865281151582028601935061351c565b6134f28561321b565b60005b83811015613514578154818901526001820191506020810190506134f5565b838801955050505b50505092915050565b6000613530826128fd565b61353a8185613497565b935061354a818560208601612919565b80840191505092915050565b7f2e706e6700000000000000000000000000000000000000000000000000000000600082015250565b600061358c600483613497565b915061359782613556565b600482019050919050565b60006135ae82856134a2565b91506135ba8284613525565b91506135c58261357f565b91508190509392505050565b7f7b2274726169745f74797065223a22726172697479222c2276616c7565223a22600082015250565b6000613607602083613497565b9150613612826135d1565b602082019050919050565b7f227d000000000000000000000000000000000000000000000000000000000000600082015250565b6000613653600283613497565b915061365e8261361d565b600282019050919050565b6000613674826135fa565b91506136808284613525565b915061368b82613646565b915081905092915050565b6000815190506136a5816129b9565b92915050565b600067ffffffffffffffff8211156136c6576136c5612d39565b5b602082029050919050565b60006136e46136df846136ab565b612d99565b905080602084028301858111156136fe576136fd612c20565b5b835b8181101561372757806137138882613696565b845260208401935050602081019050613700565b5050509392505050565b600082601f83011261374657613745612c16565b5b60036137538482856136d1565b91505092915050565b6000806080838503121561377357613772612838565b5b600061378185828601613696565b925050602061379285828601613731565b9150509250929050565b6000819050919050565b60006137b18261379c565b91506137bc8361379c565b92508282039050818112600084121682821360008512151617156137e3576137e2612ff3565b5b92915050565b7f2c7b2274726169745f74797065223a22776f726c64222c2276616c7565223a22600082015250565b600061381f602083613497565b915061382a826137e9565b602082019050919050565b7f2c7b2274726169745f74797065223a22627566665f706f776572222c2276616c60008201527f7565223a22000000000000000000000000000000000000000000000000000000602082015250565b6000613891602583613497565b915061389c82613835565b602582019050919050565b7f2c7b2274726169745f74797065223a22627566665f646566656e7365222c227660008201527f616c7565223a2200000000000000000000000000000000000000000000000000602082015250565b6000613903602783613497565b915061390e826138a7565b602782019050919050565b7f2c7b2274726169745f74797065223a227870222c2276616c7565223a22000000600082015250565b600061394f601d83613497565b915061395a82613919565b601d82019050919050565b60006139718288613525565b915061397c82613812565b91506139888287613525565b915061399382613646565b915061399e82613884565b91506139aa8286613525565b91506139b582613646565b91506139c0826138f6565b91506139cc8285613525565b91506139d782613646565b91506139e282613942565b91506139ee8284613525565b91506139f982613646565b91508190509695505050505050565b7f7b226e616d65223a225a65746151756573742054726176656c65722023000000600082015250565b6000613a3e601d83613497565b9150613a4982613a08565b601d82019050919050565b7f222c226465736372697074696f6e223a225250472d6c6974652063726f73732d60008201527f636861696e206f6e205a657461436861696e2e222c0000000000000000000000602082015250565b6000613ab0603583613497565b9150613abb82613a54565b603582019050919050565b7f22696d616765223a220000000000000000000000000000000000000000000000600082015250565b6000613afc600983613497565b9150613b0782613ac6565b600982019050919050565b7f222c000000000000000000000000000000000000000000000000000000000000600082015250565b6000613b48600283613497565b9150613b5382613b12565b600282019050919050565b7f2261747472696275746573223a5b000000000000000000000000000000000000600082015250565b6000613b94600e83613497565b9150613b9f82613b5e565b600e82019050919050565b7f5d00000000000000000000000000000000000000000000000000000000000000600082015250565b6000613be0600183613497565b9150613beb82613baa565b600182019050919050565b7f7d00000000000000000000000000000000000000000000000000000000000000600082015250565b6000613c2c600183613497565b9150613c3782613bf6565b600182019050919050565b6000613c4d82613a31565b9150613c598286613525565b9150613c6482613aa3565b9150613c6f82613aef565b9150613c7b8285613525565b9150613c8682613b3b565b9150613c9182613b87565b9150613c9d8284613525565b9150613ca882613bd3565b9150613cb382613c1f565b9150819050949350505050565b7f646174613a6170706c69636174696f6e2f6a736f6e3b6261736536342c000000600082015250565b6000613cf6601d83613497565b9150613d0182613cc0565b601d82019050919050565b6000613d1782613ce9565b9150613d238284613525565b915081905092915050565b600081519050919050565b600082825260208201905092915050565b6000613d5582613d2e565b613d5f8185613d39565b9350613d6f818560208601612919565b613d7881612943565b840191505092915050565b6000608082019050613d986000830187612a44565b613da56020830186612a44565b613db26040830185612ada565b8181036060830152613dc48184613d4a565b905095945050505050565b600081519050613dde8161286e565b92915050565b600060208284031215613dfa57613df9612838565b5b6000613e0884828501613dcf565b91505092915050565b7f2b00000000000000000000000000000000000000000000000000000000000000600082015250565b6000613e47600183613497565b9150613e5282613e11565b600182019050919050565b6000613e6882613e3a565b9150613e748284613525565b915081905092915050565b6000613e8a8261379c565b91507f80000000000000000000000000000000000000000000000000000000000000008203613ebc57613ebb612ff3565b5b816000039050919050565b7f2d00000000000000000000000000000000000000000000000000000000000000600082015250565b6000613efd600183613497565b9150613f0882613ec7565b600182019050919050565b6000613f1e82613ef0565b9150613f2a8284613525565b915081905092915050565b6000613f40826129af565b9150613f4b836129af565b9250828203905081811115613f6357613f62612ff3565b5b92915050565b7f4e487b7100000000000000000000000000000000000000000000000000000000600052603160045260246000fd5b6000613fa3826129af565b9150613fae836129af565b9250828202613fbc816129af565b91508282048414831517613fd357613fd2612ff3565b5b5092915050565b6000613fe5826129af565b9150613ff0836129af565b925082820190508082111561400857614007612ff3565b5b92915050565b6000614019826129af565b9150614024836129af565b92508261403457614033613121565b5b82820490509291505056fe4142434445464748494a4b4c4d4e4f505152535455565758595a6162636465666768696a6b6c6d6e6f707172737475767778797a303132333435363738392b2fa264697066735822122044ccd8c1c9e907d989d9a087882d76438c43557e3fd41b32e55d6a4756db184e64736f6c63430008180033",
  "linkReferences": {},
  "deployedLinkReferences": {}
}