{
  "_format": "hh-sol-artifact-1",
  "contractName": "ZetaQuestLight",
  "sourceName": "contracts/contracts/ZetaQuestLight.sol",
  "abi": [
    {
      "inputs": [],
      "stateMutability": "nonpayable",
      "type": "constructor"
    },
    {
      "anonymous": false,
      "inputs": [
        {
          "indexed": true,
          "internalType": "address",
          "name": "player",
          "type": "address"
        },
        {
          "indexed": false,
          "internalType": "uint256",
          "name": "srcChainId",
          "type": "uint256"
        },
        {
          "indexed": false,
          "internalType": "string",
          "name": "note",
          "type": "string"
        }
      ],
      "name": "Visited",
      "type": "event"
    },
    {
      "inputs": [
        {
          "internalType": "bytes",
          "name": "payload",
          "type": "bytes"
        }
      ],
      "name": "onReceive",
      "outputs": [],
      "stateMutability": "nonpayable",
      "type": "function"
    },
    {
      "inputs": [],
      "name": "owner",
      "outputs": [
        {
          "internalType": "address",
          "name": "",
          "type": "address"
        }
      ],
      "stateMutability": "view",
      "type": "function"
    }
  ],
  "bytecode": "0x608060405234801561001057600080fd5b50336000806101000a81548173ffffffffffffffffffffffffffffffffffffffff021916908373ffffffffffffffffffffffffffffffffffffffff16021790555061039f806100606000396000f3fe608060405234801561001057600080fd5b50600436106100365760003560e01c806317610fcf1461003b5780638da5cb5b14610057575b600080fd5b61005560048036038101906100509190610172565b610075565b005b61005f6100df565b60405161006c9190610200565b60405180910390f35b6000808383810190610087919061028f565b915091508173ffffffffffffffffffffffffffffffffffffffff167fd2ec7af9f119c385f634e1dd0048dc15011b39ddd0b702456caf7ff185b4fcd6826040516100d1919061033b565b60405180910390a250505050565b60008054906101000a900473ffffffffffffffffffffffffffffffffffffffff1681565b600080fd5b600080fd5b600080fd5b600080fd5b600080fd5b60008083601f8401126101325761013161010d565b5b8235905067ffffffffffffffff81111561014f5761014e610112565b5b60208301915083600182028301111561016b5761016a610117565b5b9250929050565b6000806020838503121561018957610188610103565b5b600083013567ffffffffffffffff8111156101a7576101a6610108565b5b6101b38582860161011c565b92509250509250929050565b600073ffffffffffffffffffffffffffffffffffffffff82169050919050565b60006101ea826101bf565b9050919050565b6101fa816101df565b82525050565b600060208201905061021560008301846101f1565b92915050565b6000610226826101bf565b9050919050565b6102368161021b565b811461024157600080fd5b50565b6000813590506102538161022d565b92915050565b6000819050919050565b61026c81610259565b811461027757600080fd5b50565b60008135905061028981610263565b92915050565b600080604083850312156102a6576102a5610103565b5b60006102b485828601610244565b92505060206102c58582860161027a565b9150509250929050565b6102d881610259565b82525050565b600082825260208201905092915050565b7f70696e672d66726f6d2d617468656e7300000000000000000000000000000000600082015250565b60006103256010836102de565b9150610330826102ef565b602082019050919050565b600060408201905061035060008301846102cf565b818103602083015261036181610318565b90509291505056fea2646970667358221220fb59c9a828ce18c6d967a25943c0281f5ac19992ae8ecf1889df2ed9a21bf34164736f6c63430008180033",
  "linkReferences": {},
  "deployedLinkReferences": {}
}