{
  "_format": "hh-sol-artifact-1",
  "contractName": "ZetaQuestCore",
  "sourceName": "contracts/contracts/ZetaQuestCore.sol",
  "abi": [
    {
      "inputs": [
        {
          "internalType": "address",
          "name": "_questNFT",
          "type": "address"
        }
      ],
      "stateMutability": "nonpayable",
      "type": "constructor"
    },
    {
      "anonymous": false,
      "inputs": [
        {
          "indexed": true,
          "internalType": "address",
          "name": "player",
          "type": "address"
        },
        {
          "indexed": false,
          "internalType": "uint256",
          "name": "tokenId",
          "type": "uint256"
        }
      ],
      "name": "Registered",
      "type": "event"
    },
    {
      "anonymous": false,
      "inputs": [
        {
          "indexed": true,
          "internalType": "address",
          "name": "player",
          "type": "address"
        },
        {
          "indexed": false,
          "internalType": "uint256",
          "name": "tokenId",
          "type": "uint256"
        },
        {
          "indexed": false,
          "internalType": "uint256",
          "name": "dstChainId",
          "type": "uint256"
        },
        {
          "components": [
            {
              "internalType": "uint32",
              "name": "atk",
              "type": "uint32"
            },
            {
              "internalType": "uint32",
              "name": "def",
              "type": "uint32"
            },
            {
              "internalType": "uint32",
              "name": "spd",
              "type": "uint32"
            }
          ],
          "indexed": false,
          "internalType": "struct ZetaQuestCore.Stats",
          "name": "buffApplied",
          "type": "tuple"
        }
      ],
      "name": "Traveled",
      "type": "event"
    },
    {
      "anonymous": false,
      "inputs": [
        {
          "indexed": true,
          "internalType": "address",
          "name": "player",
          "type": "address"
        },
        {
          "indexed": false,
          "internalType": "uint256",
          "name": "tokenId",
          "type": "uint256"
        },
        {
          "indexed": false,
          "internalType": "uint256",
          "name": "fromChainId",
          "type": "uint256"
        },
        {
          "indexed": false,
          "internalType": "bytes",
          "name": "note",
          "type": "bytes"
        }
      ],
      "name": "ZetaMessageHandled",
      "type": "event"
    },
    {
      "inputs": [
        {
          "internalType": "uint256",
          "name": "chainId",
          "type": "uint256"
        },
        {
          "internalType": "bool",
          "name": "allowed",
          "type": "bool"
        }
      ],
      "name": "allowDstChain",
      "outputs": [],
      "stateMutability": "nonpayable",
      "type": "function"
    },
    {
      "inputs": [
        {
          "internalType": "uint256",
          "name": "",
          "type": "uint256"
        }
      ],
      "name": "allowedDstChains",
      "outputs": [
        {
          "internalType": "bool",
          "name": "",
          "type": "bool"
        }
      ],
      "stateMutability": "view",
      "type": "function"
    },
    {
      "inputs": [
        {
          "internalType": "address",
          "name": "addr",
          "type": "address"
        }
      ],
      "name": "getPlayerState",
      "outputs": [
        {
          "internalType": "uint256",
          "name": "world",
          "type": "uint256"
        },
        {
          "components": [
            {
              "internalType": "uint32",
              "name": "atk",
              "type": "uint32"
            },
            {
              "internalType": "uint32",
              "name": "def",
              "type": "uint32"
            },
            {
              "internalType": "uint32",
              "name": "spd",
              "type": "uint32"
            }
          ],
          "internalType": "struct ZetaQuestCore.Stats",
          "name": "effective",
          "type": "tuple"
        }
      ],
      "stateMutability": "view",
      "type": "function"
    },
    {
      "inputs": [
        {
          "internalType": "address",
          "name": "player",
          "type": "address"
        },
        {
          "internalType": "uint256",
          "name": "tokenId",
          "type": "uint256"
        },
        {
          "internalType": "uint256",
          "name": "fromChainId",
          "type": "uint256"
        },
        {
          "internalType": "bytes",
          "name": "note",
          "type": "bytes"
        }
      ],
      "name": "onZetaMessage",
      "outputs": [],
      "stateMutability": "nonpayable",
      "type": "function"
    },
    {
      "inputs": [],
      "name": "owner",
      "outputs": [
        {
          "internalType": "address",
          "name": "",
          "type": "address"
        }
      ],
      "stateMutability": "view",
      "type": "function"
    },
    {
      "inputs": [
        {
          "internalType": "address",
          "name": "",
          "type": "address"
        }
      ],
      "name": "players",
      "outputs": [
        {
          "internalType": "uint256",
          "name": "tokenId",
          "type": "uint256"
        },
        {
          "internalType": "uint256",
          "name": "currentWorld",
          "type": "uint256"
        },
        {
          "components": [
            {
              "internalType": "uint32",
              "name": "atk",
              "type": "uint32"
            },
            {
              "internalType": "uint32",
              "name": "def",
              "type": "uint32"
            },
            {
              "internalType": "uint32",
              "name": "spd",
              "type": "uint32"
            }
          ],
          "internalType": "struct ZetaQuestCore.Stats",
          "name": "baseStats",
          "type": "tuple"
        },
        {
          "components": [
            {
              "internalType": "uint32",
              "name": "atk",
              "type": "uint32"
            },
            {
              "internalType": "uint32",
              "name": "def",
              "type": "uint32"
            },
            {
              "internalType": "uint32",
              "name": "spd",
              "type": "uint32"
            }
          ],
          "internalType": "struct ZetaQuestCore.Stats",
          "name": "buff",
          "type": "tuple"
        },
        {
          "internalType": "bool",
          "name": "registered",
          "type": "bool"
        }
      ],
      "stateMutability": "view",
      "type": "function"
    },
    {
      "inputs": [],
      "name": "questNFT",
      "outputs": [
        {
          "internalType": "contract IERC721EnumerableLite",
          "name": "",
          "type": "address"
        }
      ],
      "stateMutability": "view",
      "type": "function"
    },
    {
      "inputs": [],
      "name": "register",
      "outputs": [
        {
          "internalType": "uint256",
          "name": "tokenId",
          "type": "uint256"
        }
      ],
      "stateMutability": "nonpayable",
      "type": "function"
    },
    {
      "inputs": [
        {
          "internalType": "uint256",
          "name": "",
          "type": "uint256"
        }
      ],
      "name": "tokenOwner",
      "outputs": [
        {
          "internalType": "address",
          "name": "",
          "type": "address"
        }
      ],
      "stateMutability": "view",
      "type": "function"
    },
    {
      "inputs": [
        {
          "internalType": "uint256",
          "name": "tokenId",
          "type": "uint256"
        }
      ],
      "name": "tokenWorldAndBuff",
      "outputs": [
        {
          "internalType": "uint256",
          "name": "world",
          "type": "uint256"
        },
        {
          "internalType": "uint32",
          "name": "atk",
          "type": "uint32"
        },
        {
          "internalType": "uint32",
          "name": "def",
          "type": "uint32"
        },
        {
          "internalType": "uint32",
          "name": "spd",
          "type": "uint32"
        }
      ],
      "stateMutability": "view",
      "type": "function"
    },
    {
      "inputs": [
        {
          "internalType": "uint256",
          "name": "dstChainId",
          "type": "uint256"
        },
        {
          "internalType": "address",
          "name": "",
          "type": "address"
        },
        {
          "internalType": "uint256",
          "name": "",
          "type": "uint256"
        }
      ],
      "name": "travelTo",
      "outputs": [],
      "stateMutability": "payable",
      "type": "function"
    }
  ],
  "bytecode": "0x60806040523480156200001157600080fd5b506040516200200d3803806200200d833981810160405281019062000037919062000129565b336000806101000a81548173ffffffffffffffffffffffffffffffffffffffff021916908373ffffffffffffffffffffffffffffffffffffffff16021790555080600160006101000a81548173ffffffffffffffffffffffffffffffffffffffff021916908373ffffffffffffffffffffffffffffffffffffffff160217905550506200015b565b600080fd5b600073ffffffffffffffffffffffffffffffffffffffff82169050919050565b6000620000f182620000c4565b9050919050565b6200010381620000e4565b81146200010f57600080fd5b50565b6000815190506200012381620000f8565b92915050565b600060208284031215620001425762000141620000bf565b5b6000620001528482850162000112565b91505092915050565b611ea2806200016b6000396000f3fe60806040526004361061009c5760003560e01c806375518b241161006457806375518b24146101865780638da5cb5b146101c6578063a9dc18b2146101f1578063c01ca43f1461020d578063cd73b1101461024b578063e2eb41ff146102885761009c565b806313b5bb1c146100a15780631aa3a008146100cc5780631caaa487146100f757806331ac506b1461013457806346207e891461015d575b600080fd5b3480156100ad57600080fd5b506100b66102c9565b6040516100c39190611553565b60405180910390f35b3480156100d857600080fd5b506100e16102ef565b6040516100ee9190611587565b60405180910390f35b34801561010357600080fd5b5061011e600480360381019061011991906115d8565b610730565b60405161012b9190611626565b60405180910390f35b34801561014057600080fd5b5061015b60048036038101906101569190611679565b610763565b005b34801561016957600080fd5b50610184600480360381019061017f919061174a565b610820565b005b34801561019257600080fd5b506101ad60048036038101906101a891906115d8565b61091f565b6040516101bd94939291906117f1565b60405180910390f35b3480156101d257600080fd5b506101db610b0e565b6040516101e89190611626565b60405180910390f35b61020b60048036038101906102069190611836565b610b32565b005b34801561021957600080fd5b50610234600480360381019061022f9190611889565b610d1f565b604051610242929190611907565b60405180910390f35b34801561025757600080fd5b50610272600480360381019061026d91906115d8565b610eac565b60405161027f919061193f565b60405180910390f35b34801561029457600080fd5b506102af60048036038101906102aa9190611889565b610ecc565b6040516102c095949392919061195a565b60405180910390f35b600160009054906101000a900473ffffffffffffffffffffffffffffffffffffffff1681565b600080600360003373ffffffffffffffffffffffffffffffffffffffff1673ffffffffffffffffffffffffffffffffffffffff16815260200190815260200160002090508060040160009054906101000a900460ff1615610385576040517f08c379a000000000000000000000000000000000000000000000000000000000815260040161037c90611a0c565b60405180910390fd5b6000600160009054906101000a900473ffffffffffffffffffffffffffffffffffffffff1673ffffffffffffffffffffffffffffffffffffffff166370a08231336040518263ffffffff1660e01b81526004016103e29190611626565b602060405180830381865afa1580156103ff573d6000803e3d6000fd5b505050506040513d601f19601f820116820180604052508101906104239190611a41565b11610463576040517f08c379a000000000000000000000000000000000000000000000000000000000815260040161045a90611aba565b60405180910390fd5b600160009054906101000a900473ffffffffffffffffffffffffffffffffffffffff1673ffffffffffffffffffffffffffffffffffffffff16632f745c593360006040518363ffffffff1660e01b81526004016104c1929190611b15565b602060405180830381865afa1580156104de573d6000803e3d6000fd5b505050506040513d601f19601f820116820180604052508101906105029190611a41565b915060018160040160006101000a81548160ff021916908315150217905550818160000181905550600081600101819055506040518060600160405280600a63ffffffff168152602001600863ffffffff168152602001600763ffffffff168152508160020160008201518160000160006101000a81548163ffffffff021916908363ffffffff16021790555060208201518160000160046101000a81548163ffffffff021916908363ffffffff16021790555060408201518160000160086101000a81548163ffffffff021916908363ffffffff1602179055509050506040518060600160405280600063ffffffff168152602001600063ffffffff168152602001600063ffffffff168152508160030160008201518160000160006101000a81548163ffffffff021916908363ffffffff16021790555060208201518160000160046101000a81548163ffffffff021916908363ffffffff16021790555060408201518160000160086101000a81548163ffffffff021916908363ffffffff160217905550905050336004600084815260200190815260200160002060006101000a81548173ffffffffffffffffffffffffffffffffffffffff021916908373ffffffffffffffffffffffffffffffffffffffff1602179055503373ffffffffffffffffffffffffffffffffffffffff167f6f3bf3fa84e4763a43b3d23f9d79be242d6d5c834941ff4c1111b67469e1150c836040516107249190611587565b60405180910390a25090565b60046020528060005260406000206000915054906101000a900473ffffffffffffffffffffffffffffffffffffffff1681565b60008054906101000a900473ffffffffffffffffffffffffffffffffffffffff1673ffffffffffffffffffffffffffffffffffffffff163373ffffffffffffffffffffffffffffffffffffffff16146107f1576040517f08c379a00000000000000000000000000000000000000000000000000000000081526004016107e890611b8a565b60405180910390fd5b806002600084815260200190815260200160002060006101000a81548160ff0219169083151502179055505050565b6000600360008773ffffffffffffffffffffffffffffffffffffffff1673ffffffffffffffffffffffffffffffffffffffff16815260200190815260200160002090508060040160009054906101000a900460ff1680156108845750848160000154145b6108c3576040517f08c379a00000000000000000000000000000000000000000000000000000000081526004016108ba90611bf6565b60405180910390fd5b8573ffffffffffffffffffffffffffffffffffffffff167f366167f228179bc9e5d419a6838493404c3cbf522bb87416ea35e56a56fb334d8686868660405161090f9493929190611c74565b60405180910390a2505050505050565b60008060008060006004600087815260200190815260200160002060009054906101000a900473ffffffffffffffffffffffffffffffffffffffff169050600073ffffffffffffffffffffffffffffffffffffffff168173ffffffffffffffffffffffffffffffffffffffff1603610a3057600160009054906101000a900473ffffffffffffffffffffffffffffffffffffffff1673ffffffffffffffffffffffffffffffffffffffff16636352211e876040518263ffffffff1660e01b81526004016109ec9190611587565b602060405180830381865afa158015610a09573d6000803e3d6000fd5b505050506040513d601f19601f82011682018060405250810190610a2d9190611cc9565b90505b6000600360008373ffffffffffffffffffffffffffffffffffffffff1673ffffffffffffffffffffffffffffffffffffffff16815260200190815260200160002090508060040160009054906101000a900460ff161580610a95575086816000015414155b15610aaf5760008060008095509550955095505050610b07565b806001015495508060030160000160009054906101000a900463ffffffff1694508060030160000160049054906101000a900463ffffffff1693508060030160000160089054906101000a900463ffffffff16925050505b9193509193565b60008054906101000a900473ffffffffffffffffffffffffffffffffffffffff1681565b610b3b33611007565b6000600360003373ffffffffffffffffffffffffffffffffffffffff1673ffffffffffffffffffffffffffffffffffffffff16815260200190815260200160002090508060040160009054906101000a900460ff16610bcf576040517f08c379a0000000000000000000000000000000000000000000000000000000008152600401610bc690611d42565b60405180910390fd5b6002600085815260200190815260200160002060009054906101000a900460ff16610c2f576040517f08c379a0000000000000000000000000000000000000000000000000000000008152600401610c2690611dae565b60405180910390fd5b6000610c3a856113e1565b9050808260030160008201518160000160006101000a81548163ffffffff021916908363ffffffff16021790555060208201518160000160046101000a81548163ffffffff021916908363ffffffff16021790555060408201518160000160086101000a81548163ffffffff021916908363ffffffff1602179055509050508482600101819055503373ffffffffffffffffffffffffffffffffffffffff167f2fd44f88ccfd1c89cf0d168d8deb84d379faedb33479354f513b025c659b404c83600001548784604051610d1093929190611dce565b60405180910390a25050505050565b6000610d296114a1565b6000600360008573ffffffffffffffffffffffffffffffffffffffff1673ffffffffffffffffffffffffffffffffffffffff16815260200190815260200160002090508060040160009054906101000a900460ff16610dc45760006040518060600160405280600a63ffffffff168152602001600863ffffffff168152602001600763ffffffff168152509050600081935093505050610ea7565b8060010154925060405180606001604052808260030160000160009054906101000a900463ffffffff168360020160000160009054906101000a900463ffffffff16610e109190611e34565b63ffffffff1681526020018260030160000160049054906101000a900463ffffffff168360020160000160049054906101000a900463ffffffff16610e559190611e34565b63ffffffff1681526020018260030160000160089054906101000a900463ffffffff168360020160000160089054906101000a900463ffffffff16610e9a9190611e34565b63ffffffff168152509150505b915091565b60026020528060005260406000206000915054906101000a900460ff1681565b6003602052806000526040600020600091509050806000015490806001015490806002016040518060600160405290816000820160009054906101000a900463ffffffff1663ffffffff1663ffffffff1681526020016000820160049054906101000a900463ffffffff1663ffffffff1663ffffffff1681526020016000820160089054906101000a900463ffffffff1663ffffffff1663ffffffff168152505090806003016040518060600160405290816000820160009054906101000a900463ffffffff1663ffffffff1663ffffffff1681526020016000820160049054906101000a900463ffffffff1663ffffffff1663ffffffff1681526020016000820160089054906101000a900463ffffffff1663ffffffff1663ffffffff1681525050908060040160009054906101000a900460ff16905085565b6000600360008373ffffffffffffffffffffffffffffffffffffffff1673ffffffffffffffffffffffffffffffffffffffff16815260200190815260200160002090508060040160009054906101000a900460ff161561106757506113de565b6000600160009054906101000a900473ffffffffffffffffffffffffffffffffffffffff1673ffffffffffffffffffffffffffffffffffffffff166370a08231846040518263ffffffff1660e01b81526004016110c49190611626565b602060405180830381865afa1580156110e1573d6000803e3d6000fd5b505050506040513d601f19601f820116820180604052508101906111059190611a41565b0361111057506113de565b6000600160009054906101000a900473ffffffffffffffffffffffffffffffffffffffff1673ffffffffffffffffffffffffffffffffffffffff16632f745c598460006040518363ffffffff1660e01b8152600401611170929190611b15565b602060405180830381865afa15801561118d573d6000803e3d6000fd5b505050506040513d601f19601f820116820180604052508101906111b19190611a41565b905060018260040160006101000a81548160ff021916908315150217905550808260000181905550600082600101819055506040518060600160405280600a63ffffffff168152602001600863ffffffff168152602001600763ffffffff168152508260020160008201518160000160006101000a81548163ffffffff021916908363ffffffff16021790555060208201518160000160046101000a81548163ffffffff021916908363ffffffff16021790555060408201518160000160086101000a81548163ffffffff021916908363ffffffff1602179055509050506040518060600160405280600063ffffffff168152602001600063ffffffff168152602001600063ffffffff168152508260030160008201518160000160006101000a81548163ffffffff021916908363ffffffff16021790555060208201518160000160046101000a81548163ffffffff021916908363ffffffff16021790555060408201518160000160086101000a81548163ffffffff021916908363ffffffff160217905550905050826004600083815260200190815260200160002060006101000a81548173ffffffffffffffffffffffffffffffffffffffff021916908373ffffffffffffffffffffffffffffffffffffffff1602179055508273ffffffffffffffffffffffffffffffffffffffff167f6f3bf3fa84e4763a43b3d23f9d79be242d6d5c834941ff4c1111b67469e1150c826040516113d39190611587565b60405180910390a250505b50565b6113e96114a1565b62013882820361142a576040518060600160405280600363ffffffff168152602001600063ffffffff168152602001600263ffffffff16815250905061149c565b60618203611469576040518060600160405280600163ffffffff168152602001600363ffffffff168152602001600163ffffffff16815250905061149c565b6040518060600160405280600163ffffffff168152602001600163ffffffff168152602001600163ffffffff1681525090505b919050565b6040518060600160405280600063ffffffff168152602001600063ffffffff168152602001600063ffffffff1681525090565b600073ffffffffffffffffffffffffffffffffffffffff82169050919050565b6000819050919050565b600061151961151461150f846114d4565b6114f4565b6114d4565b9050919050565b600061152b826114fe565b9050919050565b600061153d82611520565b9050919050565b61154d81611532565b82525050565b60006020820190506115686000830184611544565b92915050565b6000819050919050565b6115818161156e565b82525050565b600060208201905061159c6000830184611578565b92915050565b600080fd5b600080fd5b6115b58161156e565b81146115c057600080fd5b50565b6000813590506115d2816115ac565b92915050565b6000602082840312156115ee576115ed6115a2565b5b60006115fc848285016115c3565b91505092915050565b6000611610826114d4565b9050919050565b61162081611605565b82525050565b600060208201905061163b6000830184611617565b92915050565b60008115159050919050565b61165681611641565b811461166157600080fd5b50565b6000813590506116738161164d565b92915050565b600080604083850312156116905761168f6115a2565b5b600061169e858286016115c3565b92505060206116af85828601611664565b9150509250929050565b6116c281611605565b81146116cd57600080fd5b50565b6000813590506116df816116b9565b92915050565b600080fd5b600080fd5b600080fd5b60008083601f84011261170a576117096116e5565b5b8235905067ffffffffffffffff811115611727576117266116ea565b5b602083019150836001820283011115611743576117426116ef565b5b9250929050565b600080600080600060808688031215611766576117656115a2565b5b6000611774888289016116d0565b9550506020611785888289016115c3565b9450506040611796888289016115c3565b935050606086013567ffffffffffffffff8111156117b7576117b66115a7565b5b6117c3888289016116f4565b92509250509295509295909350565b600063ffffffff82169050919050565b6117eb816117d2565b82525050565b60006080820190506118066000830187611578565b61181360208301866117e2565b61182060408301856117e2565b61182d60608301846117e2565b95945050505050565b60008060006060848603121561184f5761184e6115a2565b5b600061185d868287016115c3565b935050602061186e868287016116d0565b925050604061187f868287016115c3565b9150509250925092565b60006020828403121561189f5761189e6115a2565b5b60006118ad848285016116d0565b91505092915050565b6118bf816117d2565b82525050565b6060820160008201516118db60008501826118b6565b5060208201516118ee60208501826118b6565b50604082015161190160408501826118b6565b50505050565b600060808201905061191c6000830185611578565b61192960208301846118c5565b9392505050565b61193981611641565b82525050565b60006020820190506119546000830184611930565b92915050565b6000610120820190506119706000830188611578565b61197d6020830187611578565b61198a60408301866118c5565b61199760a08301856118c5565b6119a5610100830184611930565b9695505050505050565b600082825260208201905092915050565b7f616c726561647920726567697374657265640000000000000000000000000000600082015250565b60006119f66012836119af565b9150611a01826119c0565b602082019050919050565b60006020820190508181036000830152611a25816119e9565b9050919050565b600081519050611a3b816115ac565b92915050565b600060208284031215611a5757611a566115a2565b5b6000611a6584828501611a2c565b91505092915050565b7f6d696e74204e4654206669727374000000000000000000000000000000000000600082015250565b6000611aa4600e836119af565b9150611aaf82611a6e565b602082019050919050565b60006020820190508181036000830152611ad381611a97565b9050919050565b6000819050919050565b6000611aff611afa611af584611ada565b6114f4565b61156e565b9050919050565b611b0f81611ae4565b82525050565b6000604082019050611b2a6000830185611617565b611b376020830184611b06565b9392505050565b7f6e6f74206f776e65720000000000000000000000000000000000000000000000600082015250565b6000611b746009836119af565b9150611b7f82611b3e565b602082019050919050565b60006020820190508181036000830152611ba381611b67565b9050919050565b7f696e76616c696420706c617965722f746f6b656e000000000000000000000000600082015250565b6000611be06014836119af565b9150611beb82611baa565b602082019050919050565b60006020820190508181036000830152611c0f81611bd3565b9050919050565b600082825260208201905092915050565b82818337600083830152505050565b6000601f19601f8301169050919050565b6000611c538385611c16565b9350611c60838584611c27565b611c6983611c36565b840190509392505050565b6000606082019050611c896000830187611578565b611c966020830186611578565b8181036040830152611ca9818486611c47565b905095945050505050565b600081519050611cc3816116b9565b92915050565b600060208284031215611cdf57611cde6115a2565b5b6000611ced84828501611cb4565b91505092915050565b7f726567697374657220666972737420286d696e74204e46542900000000000000600082015250565b6000611d2c6019836119af565b9150611d3782611cf6565b602082019050919050565b60006020820190508181036000830152611d5b81611d1f565b9050919050565b7f647374206e6f7420616c6c6f7765640000000000000000000000000000000000600082015250565b6000611d98600f836119af565b9150611da382611d62565b602082019050919050565b60006020820190508181036000830152611dc781611d8b565b9050919050565b600060a082019050611de36000830186611578565b611df06020830185611578565b611dfd60408301846118c5565b949350505050565b7f4e487b7100000000000000000000000000000000000000000000000000000000600052601160045260246000fd5b6000611e3f826117d2565b9150611e4a836117d2565b9250828201905063ffffffff811115611e6657611e65611e05565b5b9291505056fea26469706673582212201fae05a6b5720453ec4b95abf4168fd92538bd92b38c690e33e287ad2cf4f00f64736f6c63430008180033",
  "linkReferences": {},
  "deployedLinkReferences": {}
}