{
  "_format": "hh-sol-artifact-1",
  "contractName": "ZetaQuestMainnetBadge",
  "sourceName": "contracts/contracts/ZetaQuestMainnetBadge.sol",
  "abi": [
    {
      "inputs": [],
      "stateMutability": "nonpayable",
      "type": "constructor"
    },
    {
      "inputs": [
        {
          "internalType": "address",
          "name": "sender",
          "type": "address"
        },
        {
          "internalType": "uint256",
          "name": "tokenId",
          "type": "uint256"
        },
        {
          "internalType": "address",
          "name": "owner",
          "type": "address"
        }
      ],
      "name": "ERC721IncorrectOwner",
      "type": "error"
    },
    {
      "inputs": [
        {
          "internalType": "address",
          "name": "operator",
          "type": "address"
        },
        {
          "internalType": "uint256",
          "name": "tokenId",
          "type": "uint256"
        }
      ],
      "name": "ERC721InsufficientApproval",
      "type": "error"
    },
    {
      "inputs": [
        {
          "internalType": "address",
          "name": "approver",
          "type": "address"
        }
      ],
      "name": "ERC721InvalidApprover",
      "type": "error"
    },
    {
      "inputs": [
        {
          "internalType": "address",
          "name": "operator",
          "type": "address"
        }
      ],
      "name": "ERC721InvalidOperator",
      "type": "error"
    },
    {
      "inputs": [
        {
          "internalType": "address",
          "name": "owner",
          "type": "address"
        }
      ],
      "name": "ERC721InvalidOwner",
      "type": "error"
    },
    {
      "inputs": [
        {
          "internalType": "address",
          "name": "receiver",
          "type": "address"
        }
      ],
      "name": "ERC721InvalidReceiver",
      "type": "error"
    },
    {
      "inputs": [
        {
          "internalType": "address",
          "name": "sender",
          "type": "address"
        }
      ],
      "name": "ERC721InvalidSender",
      "type": "error"
    },
    {
      "inputs": [
        {
          "internalType": "uint256",
          "name": "tokenId",
          "type": "uint256"
        }
      ],
      "name": "ERC721NonexistentToken",
      "type": "error"
    },
    {
      "inputs": [
        {
          "internalType": "address",
          "name": "owner",
          "type": "address"
        }
      ],
      "name": "OwnableInvalidOwner",
      "type": "error"
    },
    {
      "inputs": [
        {
          "internalType": "address",
          "name": "account",
          "type": "address"
        }
      ],
      "name": "OwnableUnauthorizedAccount",
      "type": "error"
    },
    {
      "anonymous": false,
      "inputs": [
        {
          "indexed": true,
          "internalType": "address",
          "name": "owner",
          "type": "address"
        },
        {
          "indexed": true,
          "internalType": "address",
          "name": "approved",
          "type": "address"
        },
        {
          "indexed": true,
          "internalType": "uint256",
          "name": "tokenId",
          "type": "uint256"
        }
      ],
      "name": "Approval",
      "type": "event"
    },
    {
      "anonymous": false,
      "inputs": [
        {
          "indexed": true,
          "internalType": "address",
          "name": "owner",
          "type": "address"
        },
        {
          "indexed": true,
          "internalType": "address",
          "name": "operator",
          "type": "address"
        },
        {
          "indexed": false,
          "internalType": "bool",
          "name": "approved",
          "type": "bool"
        }
      ],
      "name": "ApprovalForAll",
      "type": "event"
    },
    {
      "anonymous": false,
      "inputs": [
        {
          "indexed": true,
          "internalType": "address",
          "name": "player",
          "type": "address"
        },
        {
          "indexed": true,
          "internalType": "uint256",
          "name": "tokenId",
          "type": "uint256"
        },
        {
          "indexed": false,
          "internalType": "uint32",
          "name": "world",
          "type": "uint32"
        },
        {
          "indexed": false,
          "internalType": "uint256",
          "name": "xpSnapshot",
          "type": "uint256"
        },
        {
          "indexed": false,
          "internalType": "uint64",
          "name": "ts",
          "type": "uint64"
        }
      ],
      "name": "MainnetBadgeMinted",
      "type": "event"
    },
    {
      "anonymous": false,
      "inputs": [
        {
          "indexed": true,
          "internalType": "address",
          "name": "previousOwner",
          "type": "address"
        },
        {
          "indexed": true,
          "internalType": "address",
          "name": "newOwner",
          "type": "address"
        }
      ],
      "name": "OwnershipTransferred",
      "type": "event"
    },
    {
      "anonymous": false,
      "inputs": [
        {
          "indexed": true,
          "internalType": "address",
          "name": "from",
          "type": "address"
        },
        {
          "indexed": true,
          "internalType": "address",
          "name": "to",
          "type": "address"
        },
        {
          "indexed": true,
          "internalType": "uint256",
          "name": "tokenId",
          "type": "uint256"
        }
      ],
      "name": "Transfer",
      "type": "event"
    },
    {
      "inputs": [],
      "name": "IMAGE_CID",
      "outputs": [
        {
          "internalType": "string",
          "name": "",
          "type": "string"
        }
      ],
      "stateMutability": "view",
      "type": "function"
    },
    {
      "inputs": [
        {
          "internalType": "address",
          "name": "to",
          "type": "address"
        },
        {
          "internalType": "uint256",
          "name": "tokenId",
          "type": "uint256"
        }
      ],
      "name": "approve",
      "outputs": [],
      "stateMutability": "nonpayable",
      "type": "function"
    },
    {
      "inputs": [
        {
          "internalType": "address",
          "name": "owner",
          "type": "address"
        }
      ],
      "name": "balanceOf",
      "outputs": [
        {
          "internalType": "uint256",
          "name": "",
          "type": "uint256"
        }
      ],
      "stateMutability": "view",
      "type": "function"
    },
    {
      "inputs": [
        {
          "internalType": "uint32",
          "name": "world",
          "type": "uint32"
        },
        {
          "internalType": "uint256",
          "name": "xpSnapshot",
          "type": "uint256"
        }
      ],
      "name": "claimBadge",
      "outputs": [
        {
          "internalType": "uint256",
          "name": "tokenId",
          "type": "uint256"
        }
      ],
      "stateMutability": "nonpayable",
      "type": "function"
    },
    {
      "inputs": [
        {
          "internalType": "address",
          "name": "",
          "type": "address"
        }
      ],
      "name": "claimedTokenId",
      "outputs": [
        {
          "internalType": "uint256",
          "name": "",
          "type": "uint256"
        }
      ],
      "stateMutability": "view",
      "type": "function"
    },
    {
      "inputs": [
        {
          "internalType": "uint256",
          "name": "tokenId",
          "type": "uint256"
        }
      ],
      "name": "getApproved",
      "outputs": [
        {
          "internalType": "address",
          "name": "",
          "type": "address"
        }
      ],
      "stateMutability": "view",
      "type": "function"
    },
    {
      "inputs": [
        {
          "internalType": "address",
          "name": "owner",
          "type": "address"
        },
        {
          "internalType": "address",
          "name": "operator",
          "type": "address"
        }
      ],
      "name": "isApprovedForAll",
      "outputs": [
        {
          "internalType": "bool",
          "name": "",
          "type": "bool"
        }
      ],
      "stateMutability": "view",
      "type": "function"
    },
    {
      "inputs": [],
      "name": "name",
      "outputs": [
        {
          "internalType": "string",
          "name": "",
          "type": "string"
        }
      ],
      "stateMutability": "view",
      "type": "function"
    },
    {
      "inputs": [],
      "name": "nextId",
      "outputs": [
        {
          "internalType": "uint256",
          "name": "",
          "type": "uint256"
        }
      ],
      "stateMutability": "view",
      "type": "function"
    },
    {
      "inputs": [],
      "name": "owner",
      "outputs": [
        {
          "internalType": "address",
          "name": "",
          "type": "address"
        }
      ],
      "stateMutability": "view",
      "type": "function"
    },
    {
      "inputs": [
        {
          "internalType": "uint256",
          "name": "tokenId",
          "type": "uint256"
        }
      ],
      "name": "ownerOf",
      "outputs": [
        {
          "internalType": "address",
          "name": "",
          "type": "address"
        }
      ],
      "stateMutability": "view",
      "type": "function"
    },
    {
      "inputs": [
        {
          "internalType": "uint256",
          "name": "",
          "type": "uint256"
        }
      ],
      "name": "proofs",
      "outputs": [
        {
          "internalType": "uint32",
          "name": "world",
          "type": "uint32"
        },
        {
          "internalType": "uint256",
          "name": "xpSnapshot",
          "type": "uint256"
        },
        {
          "internalType": "uint64",
          "name": "ts",
          "type": "uint64"
        },
        {
          "internalType": "address",
          "name": "player",
          "type": "address"
        }
      ],
      "stateMutability": "view",
      "type": "function"
    },
    {
      "inputs": [],
      "name": "renounceOwnership",
      "outputs": [],
      "stateMutability": "nonpayable",
      "type": "function"
    },
    {
      "inputs": [
        {
          "internalType": "address",
          "name": "from",
          "type": "address"
        },
        {
          "internalType": "address",
          "name": "to",
          "type": "address"
        },
        {
          "internalType": "uint256",
          "name": "tokenId",
          "type": "uint256"
        }
      ],
      "name": "safeTransferFrom",
      "outputs": [],
      "stateMutability": "nonpayable",
      "type": "function"
    },
    {
      "inputs": [
        {
          "internalType": "address",
          "name": "from",
          "type": "address"
        },
        {
          "internalType": "address",
          "name": "to",
          "type": "address"
        },
        {
          "internalType": "uint256",
          "name": "tokenId",
          "type": "uint256"
        },
        {
          "internalType": "bytes",
          "name": "data",
          "type": "bytes"
        }
      ],
      "name": "safeTransferFrom",
      "outputs": [],
      "stateMutability": "nonpayable",
      "type": "function"
    },
    {
      "inputs": [
        {
          "internalType": "address",
          "name": "operator",
          "type": "address"
        },
        {
          "internalType": "bool",
          "name": "approved",
          "type": "bool"
        }
      ],
      "name": "setApprovalForAll",
      "outputs": [],
      "stateMutability": "nonpayable",
      "type": "function"
    },
    {
      "inputs": [
        {
          "internalType": "bytes4",
          "name": "interfaceId",
          "type": "bytes4"
        }
      ],
      "name": "supportsInterface",
      "outputs": [
        {
          "internalType": "bool",
          "name": "",
          "type": "bool"
        }
      ],
      "stateMutability": "view",
      "type": "function"
    },
    {
      "inputs": [],
      "name": "symbol",
      "outputs": [
        {
          "internalType": "string",
          "name": "",
          "type": "string"
        }
      ],
      "stateMutability": "view",
      "type": "function"
    },
    {
      "inputs": [
        {
          "internalType": "uint256",
          "name": "tokenId",
          "type": "uint256"
        }
      ],
      "name": "tokenURI",
      "outputs": [
        {
          "internalType": "string",
          "name": "",
          "type": "string"
        }
      ],
      "stateMutability": "view",
      "type": "function"
    },
    {
      "inputs": [
        {
          "internalType": "address",
          "name": "from",
          "type": "address"
        },
        {
          "internalType": "address",
          "name": "to",
          "type": "address"
        },
        {
          "internalType": "uint256",
          "name": "tokenId",
          "type": "uint256"
        }
      ],
      "name": "transferFrom",
      "outputs": [],
      "stateMutability": "nonpayable",
      "type": "function"
    },
    {
      "inputs": [
        {
          "internalType": "address",
          "name": "newOwner",
          "type": "address"
        }
      ],
      "name": "transferOwnership",
      "outputs": [],
      "stateMutability": "nonpayable",
      "type": "function"
    }
  ],
  "bytecode": "0x608060405260016007553480156200001657600080fd5b50336040518060400160405280601781526020017f5a6574615175657374204d61696e6e65742042616467650000000000000000008152506040518060400160405280600481526020017f5a514d4200000000000000000000000000000000000000000000000000000000815250816000908162000095919062000477565b508060019081620000a7919062000477565b505050600073ffffffffffffffffffffffffffffffffffffffff168173ffffffffffffffffffffffffffffffffffffffff16036200011f5760006040517f1e4fbdf7000000000000000000000000000000000000000000000000000000008152600401620001169190620005a3565b60405180910390fd5b62000130816200013760201b60201c565b50620005c0565b6000600660009054906101000a900473ffffffffffffffffffffffffffffffffffffffff16905081600660006101000a81548173ffffffffffffffffffffffffffffffffffffffff021916908373ffffffffffffffffffffffffffffffffffffffff1602179055508173ffffffffffffffffffffffffffffffffffffffff168173ffffffffffffffffffffffffffffffffffffffff167f8be0079c531659141344cd1fd0a4f28419497f9722a3daafe3b4186f6b6457e060405160405180910390a35050565b600081519050919050565b7f4e487b7100000000000000000000000000000000000000000000000000000000600052604160045260246000fd5b7f4e487b7100000000000000000000000000000000000000000000000000000000600052602260045260246000fd5b600060028204905060018216806200027f57607f821691505b60208210810362000295576200029462000237565b5b50919050565b60008190508160005260206000209050919050565b60006020601f8301049050919050565b600082821b905092915050565b600060088302620002ff7fffffffffffffffffffffffffffffffffffffffffffffffffffffffffffffffff82620002c0565b6200030b8683620002c0565b95508019841693508086168417925050509392505050565b6000819050919050565b6000819050919050565b600062000358620003526200034c8462000323565b6200032d565b62000323565b9050919050565b6000819050919050565b620003748362000337565b6200038c62000383826200035f565b848454620002cd565b825550505050565b600090565b620003a362000394565b620003b081848462000369565b505050565b5b81811015620003d857620003cc60008262000399565b600181019050620003b6565b5050565b601f8211156200042757620003f1816200029b565b620003fc84620002b0565b810160208510156200040c578190505b620004246200041b85620002b0565b830182620003b5565b50505b505050565b600082821c905092915050565b60006200044c600019846008026200042c565b1980831691505092915050565b600062000467838362000439565b9150826002028217905092915050565b6200048282620001fd565b67ffffffffffffffff8111156200049e576200049d62000208565b5b620004aa825462000266565b620004b7828285620003dc565b600060209050601f831160018114620004ef5760008415620004da578287015190505b620004e6858262000459565b86555062000556565b601f198416620004ff866200029b565b60005b82811015620005295784890151825560018201915060208501945060208101905062000502565b8683101562000549578489015162000545601f89168262000439565b8355505b6001600288020188555050505b505050505050565b600073ffffffffffffffffffffffffffffffffffffffff82169050919050565b60006200058b826200055e565b9050919050565b6200059d816200057e565b82525050565b6000602082019050620005ba600083018462000592565b92915050565b61301e80620005d06000396000f3fe608060405234801561001057600080fd5b50600436106101375760003560e01c8063715018a6116100b8578063a22cb4651161007c578063a22cb46514610353578063ae3c789c1461036f578063b88d4fde1461039f578063c87b56dd146103bb578063e985e9c5146103eb578063f2fde38b1461041b57610137565b8063715018a6146102aa5780638da5cb5b146102b45780638df74c00146102d257806395d89b41146103025780639ddaf5aa1461032057610137565b806342842e0e116100ff57806342842e0e146101f25780634a9531a01461020e57806361b8ce8c1461022c5780636352211e1461024a57806370a082311461027a57610137565b806301ffc9a71461013c57806306fdde031461016c578063081812fc1461018a578063095ea7b3146101ba57806323b872dd146101d6575b600080fd5b61015660048036038101906101519190611eb3565b610437565b6040516101639190611efb565b60405180910390f35b610174610519565b6040516101819190611fa6565b60405180910390f35b6101a4600480360381019061019f9190611ffe565b6105ab565b6040516101b1919061206c565b60405180910390f35b6101d460048036038101906101cf91906120b3565b6105c7565b005b6101f060048036038101906101eb91906120f3565b6105dd565b005b61020c600480360381019061020791906120f3565b6106df565b005b6102166106ff565b6040516102239190611fa6565b60405180910390f35b61023461071b565b6040516102419190612155565b60405180910390f35b610264600480360381019061025f9190611ffe565b610721565b604051610271919061206c565b60405180910390f35b610294600480360381019061028f9190612170565b610733565b6040516102a19190612155565b60405180910390f35b6102b26107ed565b005b6102bc610801565b6040516102c9919061206c565b60405180910390f35b6102ec60048036038101906102e79190612170565b61082b565b6040516102f99190612155565b60405180910390f35b61030a610843565b6040516103179190611fa6565b60405180910390f35b61033a60048036038101906103359190611ffe565b6108d5565b60405161034a94939291906121df565b60405180910390f35b61036d60048036038101906103689190612250565b610949565b005b610389600480360381019061038491906122bc565b61095f565b6040516103969190612155565b60405180910390f35b6103b960048036038101906103b49190612431565b610bb0565b005b6103d560048036038101906103d09190611ffe565b610bd5565b6040516103e29190611fa6565b60405180910390f35b610405600480360381019061040091906124b4565b610d6c565b6040516104129190611efb565b60405180910390f35b61043560048036038101906104309190612170565b610e00565b005b60007f80ac58cd000000000000000000000000000000000000000000000000000000007bffffffffffffffffffffffffffffffffffffffffffffffffffffffff1916827bffffffffffffffffffffffffffffffffffffffffffffffffffffffff1916148061050257507f5b5e139f000000000000000000000000000000000000000000000000000000007bffffffffffffffffffffffffffffffffffffffffffffffffffffffff1916827bffffffffffffffffffffffffffffffffffffffffffffffffffffffff1916145b80610512575061051182610e86565b5b9050919050565b60606000805461052890612523565b80601f016020809104026020016040519081016040528092919081815260200182805461055490612523565b80156105a15780601f10610576576101008083540402835291602001916105a1565b820191906000526020600020905b81548152906001019060200180831161058457829003601f168201915b5050505050905090565b60006105b682610ef0565b506105c082610f78565b9050919050565b6105d982826105d4610fb5565b610fbd565b5050565b600073ffffffffffffffffffffffffffffffffffffffff168273ffffffffffffffffffffffffffffffffffffffff160361064f5760006040517f64a0ae92000000000000000000000000000000000000000000000000000000008152600401610646919061206c565b60405180910390fd5b6000610663838361065e610fb5565b610fcf565b90508373ffffffffffffffffffffffffffffffffffffffff168173ffffffffffffffffffffffffffffffffffffffff16146106d9578382826040517f64283d7b0000000000000000000000000000000000000000000000000000000081526004016106d093929190612554565b60405180910390fd5b50505050565b6106fa83838360405180602001604052806000815250610bb0565b505050565b6040518060600160405280603b8152602001612f6e603b913981565b60075481565b600061072c82610ef0565b9050919050565b60008073ffffffffffffffffffffffffffffffffffffffff168273ffffffffffffffffffffffffffffffffffffffff16036107a65760006040517f89c62b6400000000000000000000000000000000000000000000000000000000815260040161079d919061206c565b60405180910390fd5b600360008373ffffffffffffffffffffffffffffffffffffffff1673ffffffffffffffffffffffffffffffffffffffff168152602001908152602001600020549050919050565b6107f56110a6565b6107ff600061112d565b565b6000600660009054906101000a900473ffffffffffffffffffffffffffffffffffffffff16905090565b60086020528060005260406000206000915090505481565b60606001805461085290612523565b80601f016020809104026020016040519081016040528092919081815260200182805461087e90612523565b80156108cb5780601f106108a0576101008083540402835291602001916108cb565b820191906000526020600020905b8154815290600101906020018083116108ae57829003601f168201915b5050505050905090565b60096020528060005260406000206000915090508060000160009054906101000a900463ffffffff16908060010154908060020160009054906101000a900467ffffffffffffffff16908060020160089054906101000a900473ffffffffffffffffffffffffffffffffffffffff16905084565b61095b610954610fb5565b83836111f3565b5050565b600080600860003373ffffffffffffffffffffffffffffffffffffffff1673ffffffffffffffffffffffffffffffffffffffff16815260200190815260200160002054146109e2576040517f08c379a00000000000000000000000000000000000000000000000000000000081526004016109d9906125d7565b60405180910390fd5b600760008154809291906109f590612626565b919050559050610a053382611362565b600060405180608001604052808563ffffffff1681526020018481526020014267ffffffffffffffff1681526020013373ffffffffffffffffffffffffffffffffffffffff168152509050806009600084815260200190815260200160002060008201518160000160006101000a81548163ffffffff021916908363ffffffff1602179055506020820151816001015560408201518160020160006101000a81548167ffffffffffffffff021916908367ffffffffffffffff16021790555060608201518160020160086101000a81548173ffffffffffffffffffffffffffffffffffffffff021916908373ffffffffffffffffffffffffffffffffffffffff16021790555090505081600860003373ffffffffffffffffffffffffffffffffffffffff1673ffffffffffffffffffffffffffffffffffffffff16815260200190815260200160002081905550813373ffffffffffffffffffffffffffffffffffffffff167f4ecf959b6722d4612e11eb0511ac8108719059dc638cb884135cdd2b0fea2bc486868560400151604051610ba19392919061266e565b60405180910390a35092915050565b610bbb8484846105dd565b610bcf610bc6610fb5565b85858585611380565b50505050565b6060610be082610721565b506000600960008481526020019081526020016000206040518060800160405290816000820160009054906101000a900463ffffffff1663ffffffff1663ffffffff168152602001600182015481526020016002820160009054906101000a900467ffffffffffffffff1667ffffffffffffffff1667ffffffffffffffff1681526020016002820160089054906101000a900473ffffffffffffffffffffffffffffffffffffffff1673ffffffffffffffffffffffffffffffffffffffff1673ffffffffffffffffffffffffffffffffffffffff168152505090506000610cc684611531565b6040518060600160405280603b8152602001612f6e603b9139610cf2846000015163ffffffff16611531565b610cff8560200151611531565b610d16866040015167ffffffffffffffff16611531565b604051602001610d2a959493929190612b55565b6040516020818303038152906040529050610d44816115ff565b604051602001610d549190612c91565b60405160208183030381529060405292505050919050565b6000600560008473ffffffffffffffffffffffffffffffffffffffff1673ffffffffffffffffffffffffffffffffffffffff16815260200190815260200160002060008373ffffffffffffffffffffffffffffffffffffffff1673ffffffffffffffffffffffffffffffffffffffff16815260200190815260200160002060009054906101000a900460ff16905092915050565b610e086110a6565b600073ffffffffffffffffffffffffffffffffffffffff168173ffffffffffffffffffffffffffffffffffffffff1603610e7a5760006040517f1e4fbdf7000000000000000000000000000000000000000000000000000000008152600401610e71919061206c565b60405180910390fd5b610e838161112d565b50565b60007f01ffc9a7000000000000000000000000000000000000000000000000000000007bffffffffffffffffffffffffffffffffffffffffffffffffffffffff1916827bffffffffffffffffffffffffffffffffffffffffffffffffffffffff1916149050919050565b600080610efc8361162c565b9050600073ffffffffffffffffffffffffffffffffffffffff168173ffffffffffffffffffffffffffffffffffffffff1603610f6f57826040517f7e273289000000000000000000000000000000000000000000000000000000008152600401610f669190612155565b60405180910390fd5b80915050919050565b60006004600083815260200190815260200160002060009054906101000a900473ffffffffffffffffffffffffffffffffffffffff169050919050565b600033905090565b610fca8383836001611669565b505050565b600080610fdb8461162c565b905060008073ffffffffffffffffffffffffffffffffffffffff168273ffffffffffffffffffffffffffffffffffffffff1614905060008073ffffffffffffffffffffffffffffffffffffffff168773ffffffffffffffffffffffffffffffffffffffff161490508115801561104f575080155b1561108f576040517f08c379a000000000000000000000000000000000000000000000000000000000815260040161108690612cff565b60405180910390fd5b61109a8787876116a4565b93505050509392505050565b6110ae610fb5565b73ffffffffffffffffffffffffffffffffffffffff166110cc610801565b73ffffffffffffffffffffffffffffffffffffffff161461112b576110ef610fb5565b6040517f118cdaa7000000000000000000000000000000000000000000000000000000008152600401611122919061206c565b60405180910390fd5b565b6000600660009054906101000a900473ffffffffffffffffffffffffffffffffffffffff16905081600660006101000a81548173ffffffffffffffffffffffffffffffffffffffff021916908373ffffffffffffffffffffffffffffffffffffffff1602179055508173ffffffffffffffffffffffffffffffffffffffff168173ffffffffffffffffffffffffffffffffffffffff167f8be0079c531659141344cd1fd0a4f28419497f9722a3daafe3b4186f6b6457e060405160405180910390a35050565b600073ffffffffffffffffffffffffffffffffffffffff168273ffffffffffffffffffffffffffffffffffffffff160361126457816040517f5b08ba1800000000000000000000000000000000000000000000000000000000815260040161125b919061206c565b60405180910390fd5b80600560008573ffffffffffffffffffffffffffffffffffffffff1673ffffffffffffffffffffffffffffffffffffffff16815260200190815260200160002060008473ffffffffffffffffffffffffffffffffffffffff1673ffffffffffffffffffffffffffffffffffffffff16815260200190815260200160002060006101000a81548160ff0219169083151502179055508173ffffffffffffffffffffffffffffffffffffffff168373ffffffffffffffffffffffffffffffffffffffff167f17307eab39ab6107e8899845ad3d59bd9653f200f220920489ca2b5937696c31836040516113559190611efb565b60405180910390a3505050565b61137c8282604051806020016040528060008152506118be565b5050565b60008373ffffffffffffffffffffffffffffffffffffffff163b111561152a578273ffffffffffffffffffffffffffffffffffffffff1663150b7a02868685856040518563ffffffff1660e01b81526004016113df9493929190612d74565b6020604051808303816000875af192505050801561141b57506040513d601f19601f820116820180604052508101906114189190612dd5565b60015b61149f573d806000811461144b576040519150601f19603f3d011682016040523d82523d6000602084013e611450565b606091505b50600081510361149757836040517f64a0ae9200000000000000000000000000000000000000000000000000000000815260040161148e919061206c565b60405180910390fd5b805160208201fd5b63150b7a0260e01b7bffffffffffffffffffffffffffffffffffffffffffffffffffffffff1916817bffffffffffffffffffffffffffffffffffffffffffffffffffffffff19161461152857836040517f64a0ae9200000000000000000000000000000000000000000000000000000000815260040161151f919061206c565b60405180910390fd5b505b5050505050565b606060006001611540846118e2565b01905060008167ffffffffffffffff81111561155f5761155e612306565b5b6040519080825280601f01601f1916602001820160405280156115915781602001600182028036833780820191505090505b509050600082602083010190505b6001156115f4578080600190039150507f3031323334353637383961626364656600000000000000000000000000000000600a86061a8153600a85816115e8576115e7612e02565b5b0494506000850361159f575b819350505050919050565b606061162582604051806060016040528060408152602001612fa9604091396001611a35565b9050919050565b60006002600083815260200190815260200160002060009054906101000a900473ffffffffffffffffffffffffffffffffffffffff169050919050565b6040517f08c379a000000000000000000000000000000000000000000000000000000000815260040161169b90612e7d565b60405180910390fd5b6000806116b08461162c565b9050600073ffffffffffffffffffffffffffffffffffffffff168373ffffffffffffffffffffffffffffffffffffffff16146116f2576116f1818486611bc9565b5b600073ffffffffffffffffffffffffffffffffffffffff168173ffffffffffffffffffffffffffffffffffffffff161461178357611734600085600080611669565b6001600360008373ffffffffffffffffffffffffffffffffffffffff1673ffffffffffffffffffffffffffffffffffffffff168152602001908152602001600020600082825403925050819055505b600073ffffffffffffffffffffffffffffffffffffffff168573ffffffffffffffffffffffffffffffffffffffff1614611806576001600360008773ffffffffffffffffffffffffffffffffffffffff1673ffffffffffffffffffffffffffffffffffffffff168152602001908152602001600020600082825401925050819055505b846002600086815260200190815260200160002060006101000a81548173ffffffffffffffffffffffffffffffffffffffff021916908373ffffffffffffffffffffffffffffffffffffffff160217905550838573ffffffffffffffffffffffffffffffffffffffff168273ffffffffffffffffffffffffffffffffffffffff167fddf252ad1be2c89b69c2b068fc378daa952ba7f163c4a11628f55a4df523b3ef60405160405180910390a4809150509392505050565b6118c88383611c8d565b6118dd6118d3610fb5565b6000858585611380565b505050565b600080600090507a184f03e93ff9f4daa797ed6e38ed64bf6a1f0100000000000000008310611940577a184f03e93ff9f4daa797ed6e38ed64bf6a1f010000000000000000838161193657611935612e02565b5b0492506040810190505b6d04ee2d6d415b85acef8100000000831061197d576d04ee2d6d415b85acef8100000000838161197357611972612e02565b5b0492506020810190505b662386f26fc1000083106119ac57662386f26fc1000083816119a2576119a1612e02565b5b0492506010810190505b6305f5e10083106119d5576305f5e10083816119cb576119ca612e02565b5b0492506008810190505b61271083106119fa5761271083816119f0576119ef612e02565b5b0492506004810190505b60648310611a1d5760648381611a1357611a12612e02565b5b0492506002810190505b600a8310611a2c576001810190505b80915050919050565b60606000845103611a5757604051806020016040528060008152509050611bc2565b600082611a89576003600286516004611a709190612e9d565b611a7a9190612edf565b611a849190612f13565b611ab0565b600360028651611a999190612edf565b611aa39190612f13565b6004611aaf9190612e9d565b5b905060008167ffffffffffffffff811115611ace57611acd612306565b5b6040519080825280601f01601f191660200182016040528015611b005781602001600182028036833780820191505090505b50905060018501602082018788518901602081018051600082525b82841015611b76576003840193508351603f8160121c168701518653600186019550603f81600c1c168701518653600186019550603f8160061c168701518653600186019550603f8116870151865360018601955050611b1b565b8082528915611bb65760038c510660018114611b995760028114611bac57611bb4565b603d6001870353603d6002870353611bb4565b603d60018703535b505b50505050505080925050505b9392505050565b611bd4838383611d86565b611c8857600073ffffffffffffffffffffffffffffffffffffffff168373ffffffffffffffffffffffffffffffffffffffff1603611c4957806040517f7e273289000000000000000000000000000000000000000000000000000000008152600401611c409190612155565b60405180910390fd5b81816040517f177e802f000000000000000000000000000000000000000000000000000000008152600401611c7f929190612f44565b60405180910390fd5b505050565b600073ffffffffffffffffffffffffffffffffffffffff168273ffffffffffffffffffffffffffffffffffffffff1603611cff5760006040517f64a0ae92000000000000000000000000000000000000000000000000000000008152600401611cf6919061206c565b60405180910390fd5b6000611d0d83836000610fcf565b9050600073ffffffffffffffffffffffffffffffffffffffff168173ffffffffffffffffffffffffffffffffffffffff1614611d815760006040517f73c6ac6e000000000000000000000000000000000000000000000000000000008152600401611d78919061206c565b60405180910390fd5b505050565b60008073ffffffffffffffffffffffffffffffffffffffff168373ffffffffffffffffffffffffffffffffffffffff1614158015611e3e57508273ffffffffffffffffffffffffffffffffffffffff168473ffffffffffffffffffffffffffffffffffffffff161480611dff5750611dfe8484610d6c565b5b80611e3d57508273ffffffffffffffffffffffffffffffffffffffff16611e2583610f78565b73ffffffffffffffffffffffffffffffffffffffff16145b5b90509392505050565b6000604051905090565b600080fd5b600080fd5b60007fffffffff0000000000000000000000000000000000000000000000000000000082169050919050565b611e9081611e5b565b8114611e9b57600080fd5b50565b600081359050611ead81611e87565b92915050565b600060208284031215611ec957611ec8611e51565b5b6000611ed784828501611e9e565b91505092915050565b60008115159050919050565b611ef581611ee0565b82525050565b6000602082019050611f106000830184611eec565b92915050565b600081519050919050565b600082825260208201905092915050565b60005b83811015611f50578082015181840152602081019050611f35565b60008484015250505050565b6000601f19601f8301169050919050565b6000611f7882611f16565b611f828185611f21565b9350611f92818560208601611f32565b611f9b81611f5c565b840191505092915050565b60006020820190508181036000830152611fc08184611f6d565b905092915050565b6000819050919050565b611fdb81611fc8565b8114611fe657600080fd5b50565b600081359050611ff881611fd2565b92915050565b60006020828403121561201457612013611e51565b5b600061202284828501611fe9565b91505092915050565b600073ffffffffffffffffffffffffffffffffffffffff82169050919050565b60006120568261202b565b9050919050565b6120668161204b565b82525050565b6000602082019050612081600083018461205d565b92915050565b6120908161204b565b811461209b57600080fd5b50565b6000813590506120ad81612087565b92915050565b600080604083850312156120ca576120c9611e51565b5b60006120d88582860161209e565b92505060206120e985828601611fe9565b9150509250929050565b60008060006060848603121561210c5761210b611e51565b5b600061211a8682870161209e565b935050602061212b8682870161209e565b925050604061213c86828701611fe9565b9150509250925092565b61214f81611fc8565b82525050565b600060208201905061216a6000830184612146565b92915050565b60006020828403121561218657612185611e51565b5b60006121948482850161209e565b91505092915050565b600063ffffffff82169050919050565b6121b68161219d565b82525050565b600067ffffffffffffffff82169050919050565b6121d9816121bc565b82525050565b60006080820190506121f460008301876121ad565b6122016020830186612146565b61220e60408301856121d0565b61221b606083018461205d565b95945050505050565b61222d81611ee0565b811461223857600080fd5b50565b60008135905061224a81612224565b92915050565b6000806040838503121561226757612266611e51565b5b60006122758582860161209e565b92505060206122868582860161223b565b9150509250929050565b6122998161219d565b81146122a457600080fd5b50565b6000813590506122b681612290565b92915050565b600080604083850312156122d3576122d2611e51565b5b60006122e1858286016122a7565b92505060206122f285828601611fe9565b9150509250929050565b600080fd5b600080fd5b7f4e487b7100000000000000000000000000000000000000000000000000000000600052604160045260246000fd5b61233e82611f5c565b810181811067ffffffffffffffff8211171561235d5761235c612306565b5b80604052505050565b6000612370611e47565b905061237c8282612335565b919050565b600067ffffffffffffffff82111561239c5761239b612306565b5b6123a582611f5c565b9050602081019050919050565b82818337600083830152505050565b60006123d46123cf84612381565b612366565b9050828152602081018484840111156123f0576123ef612301565b5b6123fb8482856123b2565b509392505050565b600082601f830112612418576124176122fc565b5b81356124288482602086016123c1565b91505092915050565b6000806000806080858703121561244b5761244a611e51565b5b60006124598782880161209e565b945050602061246a8782880161209e565b935050604061247b87828801611fe9565b925050606085013567ffffffffffffffff81111561249c5761249b611e56565b5b6124a887828801612403565b91505092959194509250565b600080604083850312156124cb576124ca611e51565b5b60006124d98582860161209e565b92505060206124ea8582860161209e565b9150509250929050565b7f4e487b7100000000000000000000000000000000000000000000000000000000600052602260045260246000fd5b6000600282049050600182168061253b57607f821691505b60208210810361254e5761254d6124f4565b5b50919050565b6000606082019050612569600083018661205d565b6125766020830185612146565b612583604083018461205d565b949350505050565b7f616c72656164792d636c61696d65640000000000000000000000000000000000600082015250565b60006125c1600f83611f21565b91506125cc8261258b565b602082019050919050565b600060208201905081810360008301526125f0816125b4565b9050919050565b7f4e487b7100000000000000000000000000000000000000000000000000000000600052601160045260246000fd5b600061263182611fc8565b91507fffffffffffffffffffffffffffffffffffffffffffffffffffffffffffffffff8203612663576126626125f7565b5b600182019050919050565b600060608201905061268360008301866121ad565b6126906020830185612146565b61269d60408301846121d0565b949350505050565b600081905092915050565b7f7b00000000000000000000000000000000000000000000000000000000000000600082015250565b60006126e66001836126a5565b91506126f1826126b0565b600182019050919050565b7f226e616d65223a225a6574615175657374204d61696e6e65742042616467652060008201527f2300000000000000000000000000000000000000000000000000000000000000602082015250565b60006127586021836126a5565b9150612763826126fc565b602182019050919050565b600061277982611f16565b61278381856126a5565b9350612793818560208601611f32565b80840191505092915050565b7f222c000000000000000000000000000000000000000000000000000000000000600082015250565b60006127d56002836126a5565b91506127e08261279f565b600282019050919050565b7f226465736372697074696f6e223a2250726f6f66206f66204d61696e6e65742060008201527f7573616765206f6e205a657461436861696e2e20536f756c626f756e642e222c602082015250565b60006128476040836126a5565b9150612852826127eb565b604082019050919050565b7f22696d616765223a22697066733a2f2f00000000000000000000000000000000600082015250565b60006128936010836126a5565b915061289e8261285d565b601082019050919050565b7f2261747472696275746573223a5b000000000000000000000000000000000000600082015250565b60006128df600e836126a5565b91506128ea826128a9565b600e82019050919050565b7f7b2274726169745f74797065223a22576f726c64222c2276616c7565223a2200600082015250565b600061292b601f836126a5565b9150612936826128f5565b601f82019050919050565b7f227d2c0000000000000000000000000000000000000000000000000000000000600082015250565b60006129776003836126a5565b915061298282612941565b600382019050919050565b7f7b2274726169745f74797065223a22585020536e617073686f74222c2276616c60008201527f7565223a22000000000000000000000000000000000000000000000000000000602082015250565b60006129e96025836126a5565b91506129f48261298d565b602582019050919050565b7f7b2274726169745f74797065223a2254696d657374616d70222c2276616c756560008201527f223a220000000000000000000000000000000000000000000000000000000000602082015250565b6000612a5b6023836126a5565b9150612a66826129ff565b602382019050919050565b7f227d000000000000000000000000000000000000000000000000000000000000600082015250565b6000612aa76002836126a5565b9150612ab282612a71565b600282019050919050565b7f5d00000000000000000000000000000000000000000000000000000000000000600082015250565b6000612af36001836126a5565b9150612afe82612abd565b600182019050919050565b7f7d00000000000000000000000000000000000000000000000000000000000000600082015250565b6000612b3f6001836126a5565b9150612b4a82612b09565b600182019050919050565b6000612b60826126d9565b9150612b6b8261274b565b9150612b77828861276e565b9150612b82826127c8565b9150612b8d8261283a565b9150612b9882612886565b9150612ba4828761276e565b9150612baf826127c8565b9150612bba826128d2565b9150612bc58261291e565b9150612bd1828661276e565b9150612bdc8261296a565b9150612be7826129dc565b9150612bf3828561276e565b9150612bfe8261296a565b9150612c0982612a4e565b9150612c15828461276e565b9150612c2082612a9a565b9150612c2b82612ae6565b9150612c3682612b32565b91508190509695505050505050565b7f646174613a6170706c69636174696f6e2f6a736f6e3b6261736536342c000000600082015250565b6000612c7b601d836126a5565b9150612c8682612c45565b601d82019050919050565b6000612c9c82612c6e565b9150612ca8828461276e565b915081905092915050565b7f5342543a206e6f6e2d7472616e7366657261626c650000000000000000000000600082015250565b6000612ce9601583611f21565b9150612cf482612cb3565b602082019050919050565b60006020820190508181036000830152612d1881612cdc565b9050919050565b600081519050919050565b600082825260208201905092915050565b6000612d4682612d1f565b612d508185612d2a565b9350612d60818560208601611f32565b612d6981611f5c565b840191505092915050565b6000608082019050612d89600083018761205d565b612d96602083018661205d565b612da36040830185612146565b8181036060830152612db58184612d3b565b905095945050505050565b600081519050612dcf81611e87565b92915050565b600060208284031215612deb57612dea611e51565b5b6000612df984828501612dc0565b91505092915050565b7f4e487b7100000000000000000000000000000000000000000000000000000000600052601260045260246000fd5b7f5342543a20617070726f76616c732064697361626c6564000000000000000000600082015250565b6000612e67601783611f21565b9150612e7282612e31565b602082019050919050565b60006020820190508181036000830152612e9681612e5a565b9050919050565b6000612ea882611fc8565b9150612eb383611fc8565b9250828202612ec181611fc8565b91508282048414831517612ed857612ed76125f7565b5b5092915050565b6000612eea82611fc8565b9150612ef583611fc8565b9250828201905080821115612f0d57612f0c6125f7565b5b92915050565b6000612f1e82611fc8565b9150612f2983611fc8565b925082612f3957612f38612e02565b5b828204905092915050565b6000604082019050612f59600083018561205d565b612f666020830184612146565b939250505056fe6261667962656961616265646a6377703665636e6632356a6a68663566666365777a646a6b37696275376f7a7833783672736a68326237366f62654142434445464748494a4b4c4d4e4f505152535455565758595a6162636465666768696a6b6c6d6e6f707172737475767778797a303132333435363738392b2fa26469706673582212201e0339b8b8ebf8028456b551ebfa2a3a94be0de7070d68d1f3c91f6c9add1c7f64736f6c63430008180033",
  "linkReferences": {},
  "deployedLinkReferences": {}
}